{"abi":[{"type":"constructor","inputs":[{"name":"name","type":"string","internalType":"string"},{"name":"symbol","type":"string","internalType":"string"}],"stateMutability":"nonpayable"},{"type":"function","name":"DOMAIN_SEPARATOR","inputs":[],"outputs":[{"name":"","type":"bytes32","internalType":"bytes32"}],"stateMutability":"view"},{"type":"function","name":"allowance","inputs":[{"name":"owner","type":"address","internalType":"address"},{"name":"spender","type":"address","internalType":"address"}],"outputs":[{"name":"","type":"uint256","internalType":"uint256"}],"stateMutability":"view"},{"type":"function","name":"approve","inputs":[{"name":"spender","type":"address","internalType":"address"},{"name":"value","type":"uint256","internalType":"uint256"}],"outputs":[{"name":"","type":"bool","internalType":"bool"}],"stateMutability":"nonpayable"},{"type":"function","name":"balanceOf","inputs":[{"name":"account","type":"address","internalType":"address"}],"outputs":[{"name":"","type":"uint256","internalType":"uint256"}],"stateMutability":"view"},{"type":"function","name":"decimals","inputs":[],"outputs":[{"name":"","type":"uint8","internalType":"uint8"}],"stateMutability":"view"},{"type":"function","name":"eip712Domain","inputs":[],"outputs":[{"name":"fields","type":"bytes1","internalType":"bytes1"},{"name":"name","type":"string","internalType":"string"},{"name":"version","type":"string","internalType":"string"},{"name":"chainId","type":"uint256","internalType":"uint256"},{"name":"verifyingContract","type":"address","internalType":"address"},{"name":"salt","type":"bytes32","internalType":"bytes32"},{"name":"extensions","type":"uint256[]","internalType":"uint256[]"}],"stateMutability":"view"},{"type":"function","name":"mint","inputs":[{"name":"to","type":"address","internalType":"address"},{"name":"amount","type":"uint256","internalType":"uint256"}],"outputs":[],"stateMutability":"nonpayable"},{"type":"function","name":"name","inputs":[],"outputs":[{"name":"","type":"string","internalType":"string"}],"stateMutability":"view"},{"type":"function","name":"nonces","inputs":[{"name":"owner","type":"address","internalType":"address"}],"outputs":[{"name":"","type":"uint256","internalType":"uint256"}],"stateMutability":"view"},{"type":"function","name":"permit","inputs":[{"name":"owner","type":"address","internalType":"address"},{"name":"spender","type":"address","internalType":"address"},{"name":"value","type":"uint256","internalType":"uint256"},{"name":"deadline","type":"uint256","internalType":"uint256"},{"name":"v","type":"uint8","internalType":"uint8"},{"name":"r","type":"bytes32","internalType":"bytes32"},{"name":"s","type":"bytes32","internalType":"bytes32"}],"outputs":[],"stateMutability":"nonpayable"},{"type":"function","name":"symbol","inputs":[],"outputs":[{"name":"","type":"string","internalType":"string"}],"stateMutability":"view"},{"type":"function","name":"totalSupply","inputs":[],"outputs":[{"name":"","type":"uint256","internalType":"uint256"}],"stateMutability":"view"},{"type":"function","name":"transfer","inputs":[{"name":"to","type":"address","internalType":"address"},{"name":"value","type":"uint256","internalType":"uint256"}],"outputs":[{"name":"","type":"bool","internalType":"bool"}],"stateMutability":"nonpayable"},{"type":"function","name":"transferFrom","inputs":[{"name":"from","type":"address","internalType":"address"},{"name":"to","type":"address","internalType":"address"},{"name":"value","type":"uint256","internalType":"uint256"}],"outputs":[{"name":"","type":"bool","internalType":"bool"}],"stateMutability":"nonpayable"},{"type":"event","name":"Approval","inputs":[{"name":"owner","type":"address","indexed":true,"internalType":"address"},{"name":"spender","type":"address","indexed":true,"internalType":"address"},{"name":"value","type":"uint256","indexed":false,"internalType":"uint256"}],"anonymous":false},{"type":"event","name":"EIP712DomainChanged","inputs":[],"anonymous":false},{"type":"event","name":"Transfer","inputs":[{"name":"from","type":"address","indexed":true,"internalType":"address"},{"name":"to","type":"address","indexed":true,"internalType":"address"},{"name":"value","type":"uint256","indexed":false,"internalType":"uint256"}],"anonymous":false},{"type":"error","name":"ECDSAInvalidSignature","inputs":[]},{"type":"error","name":"ECDSAInvalidSignatureLength","inputs":[{"name":"length","type":"uint256","internalType":"uint256"}]},{"type":"error","name":"ECDSAInvalidSignatureS","inputs":[{"name":"s","type":"bytes32","internalType":"bytes32"}]},{"type":"error","name":"ERC20InsufficientAllowance","inputs":[{"name":"spender","type":"address","internalType":"address"},{"name":"allowance","type":"uint256","internalType":"uint256"},{"name":"needed","type":"uint256","internalType":"uint256"}]},{"type":"error","name":"ERC20InsufficientBalance","inputs":[{"name":"sender","type":"address","internalType":"address"},{"name":"balance","type":"uint256","internalType":"uint256"},{"name":"needed","type":"uint256","internalType":"uint256"}]},{"type":"error","name":"ERC20InvalidApprover","inputs":[{"name":"approver","type":"address","internalType":"address"}]},{"type":"error","name":"ERC20InvalidReceiver","inputs":[{"name":"receiver","type":"address","internalType":"address"}]},{"type":"error","name":"ERC20InvalidSender","inputs":[{"name":"sender","type":"address","internalType":"address"}]},{"type":"error","name":"ERC20InvalidSpender","inputs":[{"name":"spender","type":"address","internalType":"address"}]},{"type":"error","name":"ERC2612ExpiredSignature","inputs":[{"name":"deadline","type":"uint256","internalType":"uint256"}]},{"type":"error","name":"ERC2612InvalidSigner","inputs":[{"name":"signer","type":"address","internalType":"address"},{"name":"owner","type":"address","internalType":"address"}]},{"type":"error","name":"InvalidAccountNonce","inputs":[{"name":"account","type":"address","internalType":"address"},{"name":"currentNonce","type":"uint256","internalType":"uint256"}]},{"type":"error","name":"InvalidShortString","inputs":[]},{"type":"error","name":"StringTooLong","inputs":[{"name":"str","type":"string","internalType":"string"}]}],"bytecode":{"object":"0x61016060405234801561001157600080fd5b5060405161143038038061143083398101604081905261003091610262565b6040805180820190915260018152603160f81b6020820152829081908184600361005a8382610354565b5060046100678282610354565b5061007791508390506005610125565b61012052610086816006610125565b61014052815160208084019190912060e052815190820120610100524660a05261011360e05161010051604080517f8b73c3c69bb8fe3d512ecc4cf759cc79239f7b179b0ffacaa9a75d522b39400f60208201529081019290925260608201524660808201523060a082015260009060c00160405160208183030381529060405280519060200120905090565b60805250503060c05250610469915050565b60006020835110156101415761013a83610158565b9050610152565b8161014c8482610354565b5060ff90505b92915050565b600080829050601f8151111561018c578260405163305a27a960e01b81526004016101839190610412565b60405180910390fd5b805161019782610445565b179392505050565b634e487b7160e01b600052604160045260246000fd5b60005b838110156101d05781810151838201526020016101b8565b50506000910152565b600082601f8301126101ea57600080fd5b81516001600160401b038111156102035761020361019f565b604051601f8201601f19908116603f011681016001600160401b03811182821017156102315761023161019f565b60405281815283820160200185101561024957600080fd5b61025a8260208301602087016101b5565b949350505050565b6000806040838503121561027557600080fd5b82516001600160401b0381111561028b57600080fd5b610297858286016101d9565b602085015190935090506001600160401b038111156102b557600080fd5b6102c1858286016101d9565b9150509250929050565b600181811c908216806102df57607f821691505b6020821081036102ff57634e487b7160e01b600052602260045260246000fd5b50919050565b601f82111561034f57806000526020600020601f840160051c8101602085101561032c5750805b601f840160051c820191505b8181101561034c5760008155600101610338565b50505b505050565b81516001600160401b0381111561036d5761036d61019f565b6103818161037b84546102cb565b84610305565b6020601f8211600181146103b5576000831561039d5750848201515b600019600385901b1c1916600184901b17845561034c565b600084815260208120601f198516915b828110156103e557878501518255602094850194600190920191016103c5565b50848210156104035786840151600019600387901b60f8161c191681555b50505050600190811b01905550565b60208152600082518060208401526104318160408501602087016101b5565b601f01601f19169190910160400192915050565b805160208083015191908110156102ff5760001960209190910360031b1b16919050565b60805160a05160c05160e051610100516101205161014051610f6d6104c3600039600061077001526000610743015260006106b50152600061068d015260006105e8015260006106120152600061063c0152610f6d6000f3fe608060405234801561001057600080fd5b50600436106100ea5760003560e01c806370a082311161008c57806395d89b411161006657806395d89b41146101d8578063a9059cbb146101e0578063d505accf146101f3578063dd62ed3e1461020657600080fd5b806370a08231146101815780637ecebe00146101aa57806384b0196e146101bd57600080fd5b806323b872dd116100c857806323b872dd14610142578063313ce567146101555780633644e5151461016457806340c10f191461016c57600080fd5b806306fdde03146100ef578063095ea7b31461010d57806318160ddd14610130575b600080fd5b6100f761023f565b6040516101049190610cd0565b60405180910390f35b61012061011b366004610d06565b6102d1565b6040519015158152602001610104565b6002545b604051908152602001610104565b610120610150366004610d30565b6102eb565b60405160128152602001610104565b61013461030f565b61017f61017a366004610d06565b61031e565b005b61013461018f366004610d6d565b6001600160a01b031660009081526020819052604090205490565b6101346101b8366004610d6d565b61032c565b6101c561034a565b6040516101049796959493929190610d88565b6100f7610390565b6101206101ee366004610d06565b61039f565b61017f610201366004610e20565b6103ad565b610134610214366004610e93565b6001600160a01b03918216600090815260016020908152604080832093909416825291909152205490565b60606003805461024e90610ec6565b80601f016020809104026020016040519081016040528092919081815260200182805461027a90610ec6565b80156102c75780601f1061029c576101008083540402835291602001916102c7565b820191906000526020600020905b8154815290600101906020018083116102aa57829003601f168201915b5050505050905090565b6000336102df8185856104ec565b60019150505b92915050565b6000336102f98582856104fe565b61030485858561057c565b506001949350505050565b60006103196105db565b905090565b6103288282610706565b5050565b6001600160a01b0381166000908152600760205260408120546102e5565b60006060806000806000606061035e61073c565b610366610769565b60408051600080825260208201909252600f60f81b9b939a50919850469750309650945092509050565b60606004805461024e90610ec6565b6000336102df81858561057c565b834211156103d65760405163313c898160e11b8152600481018590526024015b60405180910390fd5b60007f6e71edae12b1b97f4d1f60370fef10105fa2faae0126114a169c64845d6126c98888886104238c6001600160a01b0316600090815260076020526040902080546001810190915590565b6040805160208101969096526001600160a01b0394851690860152929091166060840152608083015260a082015260c0810186905260e001604051602081830303815290604052805190602001209050600061047e82610796565b9050600061048e828787876107c3565b9050896001600160a01b0316816001600160a01b0316146104d5576040516325c0072360e11b81526001600160a01b0380831660048301528b1660248201526044016103cd565b6104e08a8a8a6104ec565b50505050505050505050565b6104f983838360016107f1565b505050565b6001600160a01b038381166000908152600160209081526040808320938616835292905220546000198114610576578181101561056757604051637dc7a0d960e11b81526001600160a01b038416600482015260248101829052604481018390526064016103cd565b610576848484840360006107f1565b50505050565b6001600160a01b0383166105a657604051634b637e8f60e11b8152600060048201526024016103cd565b6001600160a01b0382166105d05760405163ec442f0560e01b8152600060048201526024016103cd565b6104f98383836108c6565b6000306001600160a01b037f00000000000000000000000000000000000000000000000000000000000000001614801561063457507f000000000000000000000000000000000000000000000000000000000000000046145b1561065e57507f000000000000000000000000000000000000000000000000000000000000000090565b610319604080517f8b73c3c69bb8fe3d512ecc4cf759cc79239f7b179b0ffacaa9a75d522b39400f60208201527f0000000000000000000000000000000000000000000000000000000000000000918101919091527f000000000000000000000000000000000000000000000000000000000000000060608201524660808201523060a082015260009060c00160405160208183030381529060405280519060200120905090565b6001600160a01b0382166107305760405163ec442f0560e01b8152600060048201526024016103cd565b610328600083836108c6565b60606103197f000000000000000000000000000000000000000000000000000000000000000060056109f0565b60606103197f000000000000000000000000000000000000000000000000000000000000000060066109f0565b60006102e56107a36105db565b8360405161190160f01b8152600281019290925260228201526042902090565b6000806000806107d588888888610a9b565b9250925092506107e58282610b6a565b50909695505050505050565b6001600160a01b03841661081b5760405163e602df0560e01b8152600060048201526024016103cd565b6001600160a01b03831661084557604051634a1406b160e11b8152600060048201526024016103cd565b6001600160a01b038085166000908152600160209081526040808320938716835292905220829055801561057657826001600160a01b0316846001600160a01b03167f8c5be1e5ebec7d5bd14f71427d1e84f3dd0314c0f7b2291e5b200ac8c7c3b925846040516108b891815260200190565b60405180910390a350505050565b6001600160a01b0383166108f15780600260008282546108e69190610f00565b909155506109639050565b6001600160a01b038316600090815260208190526040902054818110156109445760405163391434e360e21b81526001600160a01b038516600482015260248101829052604481018390526064016103cd565b6001600160a01b03841660009081526020819052604090209082900390555b6001600160a01b03821661097f5760028054829003905561099e565b6001600160a01b03821660009081526020819052604090208054820190555b816001600160a01b0316836001600160a01b03167fddf252ad1be2c89b69c2b068fc378daa952ba7f163c4a11628f55a4df523b3ef836040516109e391815260200190565b60405180910390a3505050565b606060ff8314610a0a57610a0383610c23565b90506102e5565b818054610a1690610ec6565b80601f0160208091040260200160405190810160405280929190818152602001828054610a4290610ec6565b8015610a8f5780601f10610a6457610100808354040283529160200191610a8f565b820191906000526020600020905b815481529060010190602001808311610a7257829003601f168201915b505050505090506102e5565b600080807f7fffffffffffffffffffffffffffffff5d576e7357a4501ddfe92f46681b20a0841115610ad65750600091506003905082610b60565b604080516000808252602082018084528a905260ff891692820192909252606081018790526080810186905260019060a0016020604051602081039080840390855afa158015610b2a573d6000803e3d6000fd5b5050604051601f1901519150506001600160a01b038116610b5657506000925060019150829050610b60565b9250600091508190505b9450945094915050565b6000826003811115610b7e57610b7e610f21565b03610b87575050565b6001826003811115610b9b57610b9b610f21565b03610bb95760405163f645eedf60e01b815260040160405180910390fd5b6002826003811115610bcd57610bcd610f21565b03610bee5760405163fce698f760e01b8152600481018290526024016103cd565b6003826003811115610c0257610c02610f21565b03610328576040516335e2f38360e21b8152600481018290526024016103cd565b60606000610c3083610c62565b604080516020808252818301909252919250600091906020820181803683375050509182525060208101929092525090565b600060ff8216601f8111156102e557604051632cd44ac360e21b815260040160405180910390fd5b6000815180845260005b81811015610cb057602081850181015186830182015201610c94565b506000602082860101526020601f19601f83011685010191505092915050565b602081526000610ce36020830184610c8a565b9392505050565b80356001600160a01b0381168114610d0157600080fd5b919050565b60008060408385031215610d1957600080fd5b610d2283610cea565b946020939093013593505050565b600080600060608486031215610d4557600080fd5b610d4e84610cea565b9250610d5c60208501610cea565b929592945050506040919091013590565b600060208284031215610d7f57600080fd5b610ce382610cea565b60ff60f81b8816815260e060208201526000610da760e0830189610c8a565b8281036040840152610db98189610c8a565b606084018890526001600160a01b038716608085015260a0840186905283810360c08501528451808252602080870193509091019060005b81811015610e0f578351835260209384019390920191600101610df1565b50909b9a5050505050505050505050565b600080600080600080600060e0888a031215610e3b57600080fd5b610e4488610cea565b9650610e5260208901610cea565b95506040880135945060608801359350608088013560ff81168114610e7657600080fd5b9699959850939692959460a0840135945060c09093013592915050565b60008060408385031215610ea657600080fd5b610eaf83610cea565b9150610ebd60208401610cea565b90509250929050565b600181811c90821680610eda57607f821691505b602082108103610efa57634e487b7160e01b600052602260045260246000fd5b50919050565b808201808211156102e557634e487b7160e01b600052601160045260246000fd5b634e487b7160e01b600052602160045260246000fdfea26469706673582212205e631e2f933ac4c54b1f6914a195de247be689bde94694e09b98eef4e3d1288464736f6c634300081a0033","linkReferences":{}},"methodIdentifiers":{"DOMAIN_SEPARATOR()":"3644e515","allowance(address,address)":"dd62ed3e","approve(address,uint256)":"095ea7b3","balanceOf(address)":"70a08231","decimals()":"313ce567","eip712Domain()":"84b0196e","mint(address,uint256)":"40c10f19","name()":"06fdde03","nonces(address)":"7ecebe00","permit(address,address,uint256,uint256,uint8,bytes32,bytes32)":"d505accf","symbol()":"95d89b41","totalSupply()":"18160ddd","transfer(address,uint256)":"a9059cbb","transferFrom(address,address,uint256)":"23b872dd"},"id":19}