{"abi":[{"type":"function","name":"getAddress","inputs":[{"name":"key","type":"bytes32","internalType":"bytes32"}],"outputs":[{"name":"","type":"address","internalType":"address"}],"stateMutability":"view"},{"type":"function","name":"getBool","inputs":[{"name":"key","type":"bytes32","internalType":"bytes32"}],"outputs":[{"name":"","type":"bool","internalType":"bool"}],"stateMutability":"view"},{"type":"function","name":"getBytes32","inputs":[{"name":"key","type":"bytes32","internalType":"bytes32"}],"outputs":[{"name":"","type":"bytes32","internalType":"bytes32"}],"stateMutability":"view"},{"type":"function","name":"getUint","inputs":[{"name":"key","type":"bytes32","internalType":"bytes32"}],"outputs":[{"name":"","type":"uint256","internalType":"uint256"}],"stateMutability":"view"},{"type":"function","name":"setAddress","inputs":[{"name":"key","type":"bytes32","internalType":"bytes32"},{"name":"value","type":"address","internalType":"address"}],"outputs":[],"stateMutability":"nonpayable"},{"type":"function","name":"setBool","inputs":[{"name":"key","type":"bytes32","internalType":"bytes32"},{"name":"value","type":"bool","internalType":"bool"}],"outputs":[],"stateMutability":"nonpayable"},{"type":"function","name":"setBytes32","inputs":[{"name":"key","type":"bytes32","internalType":"bytes32"},{"name":"value","type":"bytes32","internalType":"bytes32"}],"outputs":[],"stateMutability":"nonpayable"},{"type":"function","name":"setUint","inputs":[{"name":"key","type":"bytes32","internalType":"bytes32"},{"name":"value","type":"uint256","internalType":"uint256"}],"outputs":[],"stateMutability":"nonpayable"}],"bytecode":{"object":"0x6080604052348015600f57600080fd5b506102d78061001f6000396000f3fe608060405234801561001057600080fd5b50600436106100885760003560e01c8063abfdcced1161005b578063abfdcced14610156578063bd02d0f514610184578063ca446dd9146101a4578063e2a4853a146101e057600080fd5b806321f8a7211461008d5780634e91db08146100d35780637ae1cfca146100f5578063a6ed563e14610128575b600080fd5b6100b661009b366004610200565b6000908152600160205260409020546001600160a01b031690565b6040516001600160a01b0390911681526020015b60405180910390f35b6100f36100e1366004610219565b60009182526003602052604090912055565b005b610118610103366004610200565b60009081526002602052604090205460ff1690565b60405190151581526020016100ca565b610148610136366004610200565b60009081526003602052604090205490565b6040519081526020016100ca565b6100f361016436600461023b565b600091825260026020526040909120805460ff1916911515919091179055565b610148610192366004610200565b60009081526020819052604090205490565b6100f36101b2366004610270565b60009182526001602052604090912080546001600160a01b0319166001600160a01b03909216919091179055565b6100f36101ee366004610219565b60009182526020829052604090912055565b60006020828403121561021257600080fd5b5035919050565b6000806040838503121561022c57600080fd5b50508035926020909101359150565b6000806040838503121561024e57600080fd5b823591506020830135801515811461026557600080fd5b809150509250929050565b6000806040838503121561028357600080fd5b8235915060208301356001600160a01b038116811461026557600080fdfea26469706673582212205c129888f9b58cdde79fa38abf3be520217c7125e18bde34b533a5e3e32f5a7064736f6c634300081a0033","linkReferences":{}},"methodIdentifiers":{"getAddress(bytes32)":"21f8a721","getBool(bytes32)":"7ae1cfca","getBytes32(bytes32)":"a6ed563e","getUint(bytes32)":"bd02d0f5","setAddress(bytes32,address)":"ca446dd9","setBool(bytes32,bool)":"abfdcced","setBytes32(bytes32,bytes32)":"4e91db08","setUint(bytes32,uint256)":"e2a4853a"},"id":0}