{"abi":[{"type":"constructor","inputs":[],"stateMutability":"nonpayable"},{"type":"function","name":"AdminRole","inputs":[],"outputs":[{"name":"","type":"bytes32","internalType":"bytes32"}],"stateMutability":"view"},{"type":"function","name":"DEFAULT_ADMIN_ROLE","inputs":[],"outputs":[{"name":"","type":"bytes32","internalType":"bytes32"}],"stateMutability":"view"},{"type":"function","name":"SUSHI","inputs":[],"outputs":[{"name":"","type":"address","internalType":"contract IERC20"}],"stateMutability":"view"},{"type":"function","name":"UPGRADE_INTERFACE_VERSION","inputs":[],"outputs":[{"name":"","type":"string","internalType":"string"}],"stateMutability":"view"},{"type":"function","name":"UpdateRole","inputs":[],"outputs":[{"name":"","type":"bytes32","internalType":"bytes32"}],"stateMutability":"view"},{"type":"function","name":"add","inputs":[{"name":"allocPoint","type":"uint256","internalType":"uint256"},{"name":"_lpToken","type":"address","internalType":"contract IERC20"}],"outputs":[],"stateMutability":"nonpayable"},{"type":"function","name":"deposit","inputs":[{"name":"pid","type":"uint256","internalType":"uint256"},{"name":"amount","type":"uint256","internalType":"uint256"},{"name":"to","type":"address","internalType":"address"}],"outputs":[],"stateMutability":"nonpayable"},{"type":"function","name":"emergencyWithdraw","inputs":[{"name":"pid","type":"uint256","internalType":"uint256"},{"name":"to","type":"address","internalType":"address"}],"outputs":[],"stateMutability":"nonpayable"},{"type":"function","name":"getRoleAdmin","inputs":[{"name":"role","type":"bytes32","internalType":"bytes32"}],"outputs":[{"name":"","type":"bytes32","internalType":"bytes32"}],"stateMutability":"view"},{"type":"function","name":"getRoleMember","inputs":[{"name":"role","type":"bytes32","internalType":"bytes32"},{"name":"index","type":"uint256","internalType":"uint256"}],"outputs":[{"name":"","type":"address","internalType":"address"}],"stateMutability":"view"},{"type":"function","name":"getRoleMemberCount","inputs":[{"name":"role","type":"bytes32","internalType":"bytes32"}],"outputs":[{"name":"","type":"uint256","internalType":"uint256"}],"stateMutability":"view"},{"type":"function","name":"getRoleMembers","inputs":[{"name":"role","type":"bytes32","internalType":"bytes32"}],"outputs":[{"name":"","type":"address[]","internalType":"address[]"}],"stateMutability":"view"},{"type":"function","name":"grantRole","inputs":[{"name":"role","type":"bytes32","internalType":"bytes32"},{"name":"account","type":"address","internalType":"address"}],"outputs":[],"stateMutability":"nonpayable"},{"type":"function","name":"harvest","inputs":[{"name":"pid","type":"uint256","internalType":"uint256"},{"name":"to","type":"address","internalType":"address"}],"outputs":[],"stateMutability":"nonpayable"},{"type":"function","name":"hasRole","inputs":[{"name":"role","type":"bytes32","internalType":"bytes32"},{"name":"account","type":"address","internalType":"address"}],"outputs":[{"name":"","type":"bool","internalType":"bool"}],"stateMutability":"view"},{"type":"function","name":"initilize","inputs":[{"name":"_sushi","type":"address","internalType":"address"},{"name":"_updateroler","type":"address","internalType":"address"}],"outputs":[],"stateMutability":"nonpayable"},{"type":"function","name":"lpToken","inputs":[{"name":"","type":"uint256","internalType":"uint256"}],"outputs":[{"name":"","type":"address","internalType":"contract IERC20"}],"stateMutability":"view"},{"type":"function","name":"massUpdatePools","inputs":[{"name":"pids","type":"uint256[]","internalType":"uint256[]"}],"outputs":[],"stateMutability":"nonpayable"},{"type":"function","name":"owner","inputs":[],"outputs":[{"name":"","type":"address","internalType":"address"}],"stateMutability":"view"},{"type":"function","name":"paused","inputs":[],"outputs":[{"name":"","type":"bool","internalType":"bool"}],"stateMutability":"view"},{"type":"function","name":"pendingSushi","inputs":[{"name":"_pid","type":"uint256","internalType":"uint256"},{"name":"_user","type":"address","internalType":"address"}],"outputs":[{"name":"pending","type":"uint256","internalType":"uint256"}],"stateMutability":"view"},{"type":"function","name":"poolInfo","inputs":[{"name":"","type":"uint256","internalType":"uint256"}],"outputs":[{"name":"accSushiPerShare","type":"uint128","internalType":"uint128"},{"name":"lastRewardBlock","type":"uint64","internalType":"uint64"},{"name":"allocPoint","type":"uint64","internalType":"uint64"}],"stateMutability":"view"},{"type":"function","name":"poolLength","inputs":[],"outputs":[{"name":"pools","type":"uint256","internalType":"uint256"}],"stateMutability":"view"},{"type":"function","name":"proxiableUUID","inputs":[],"outputs":[{"name":"","type":"bytes32","internalType":"bytes32"}],"stateMutability":"view"},{"type":"function","name":"renounceOwnership","inputs":[],"outputs":[],"stateMutability":"nonpayable"},{"type":"function","name":"renounceRole","inputs":[{"name":"role","type":"bytes32","internalType":"bytes32"},{"name":"callerConfirmation","type":"address","internalType":"address"}],"outputs":[],"stateMutability":"nonpayable"},{"type":"function","name":"revokeRole","inputs":[{"name":"role","type":"bytes32","internalType":"bytes32"},{"name":"account","type":"address","internalType":"address"}],"outputs":[],"stateMutability":"nonpayable"},{"type":"function","name":"set","inputs":[{"name":"_pid","type":"uint256","internalType":"uint256"},{"name":"_allocPoint","type":"uint256","internalType":"uint256"}],"outputs":[],"stateMutability":"nonpayable"},{"type":"function","name":"setPause","inputs":[{"name":"_pause","type":"bool","internalType":"bool"}],"outputs":[],"stateMutability":"nonpayable"},{"type":"function","name":"supportsInterface","inputs":[{"name":"interfaceId","type":"bytes4","internalType":"bytes4"}],"outputs":[{"name":"","type":"bool","internalType":"bool"}],"stateMutability":"view"},{"type":"function","name":"totalAllocPoint","inputs":[],"outputs":[{"name":"","type":"uint256","internalType":"uint256"}],"stateMutability":"view"},{"type":"function","name":"transferOwnership","inputs":[{"name":"newOwner","type":"address","internalType":"address"}],"outputs":[],"stateMutability":"nonpayable"},{"type":"function","name":"updatePool","inputs":[{"name":"pid","type":"uint256","internalType":"uint256"}],"outputs":[{"name":"pool","type":"tuple","internalType":"struct MasterChef.PoolInfo","components":[{"name":"accSushiPerShare","type":"uint128","internalType":"uint128"},{"name":"lastRewardBlock","type":"uint64","internalType":"uint64"},{"name":"allocPoint","type":"uint64","internalType":"uint64"}]}],"stateMutability":"nonpayable"},{"type":"function","name":"upgradeToAndCall","inputs":[{"name":"newImplementation","type":"address","internalType":"address"},{"name":"data","type":"bytes","internalType":"bytes"}],"outputs":[],"stateMutability":"payable"},{"type":"function","name":"userInfo","inputs":[{"name":"","type":"uint256","internalType":"uint256"},{"name":"","type":"address","internalType":"address"}],"outputs":[{"name":"amount","type":"uint256","internalType":"uint256"},{"name":"rewardDebt","type":"int256","internalType":"int256"}],"stateMutability":"view"},{"type":"function","name":"withdraw","inputs":[{"name":"pid","type":"uint256","internalType":"uint256"},{"name":"amount","type":"uint256","internalType":"uint256"},{"name":"to","type":"address","internalType":"address"}],"outputs":[],"stateMutability":"nonpayable"},{"type":"function","name":"withdrawAndHarvest","inputs":[{"name":"pid","type":"uint256","internalType":"uint256"},{"name":"amount","type":"uint256","internalType":"uint256"},{"name":"to","type":"address","internalType":"address"}],"outputs":[],"stateMutability":"nonpayable"},{"type":"event","name":"Deposit","inputs":[{"name":"user","type":"address","indexed":true,"internalType":"address"},{"name":"pid","type":"uint256","indexed":true,"internalType":"uint256"},{"name":"amount","type":"uint256","indexed":false,"internalType":"uint256"},{"name":"to","type":"address","indexed":true,"internalType":"address"}],"anonymous":false},{"type":"event","name":"EmergencyWithdraw","inputs":[{"name":"user","type":"address","indexed":true,"internalType":"address"},{"name":"pid","type":"uint256","indexed":true,"internalType":"uint256"},{"name":"amount","type":"uint256","indexed":false,"internalType":"uint256"},{"name":"to","type":"address","indexed":true,"internalType":"address"}],"anonymous":false},{"type":"event","name":"Harvest","inputs":[{"name":"user","type":"address","indexed":true,"internalType":"address"},{"name":"pid","type":"uint256","indexed":true,"internalType":"uint256"},{"name":"amount","type":"uint256","indexed":false,"internalType":"uint256"}],"anonymous":false},{"type":"event","name":"Initialized","inputs":[{"name":"version","type":"uint64","indexed":false,"internalType":"uint64"}],"anonymous":false},{"type":"event","name":"LogInit","inputs":[],"anonymous":false},{"type":"event","name":"LogPoolAddition","inputs":[{"name":"pid","type":"uint256","indexed":true,"internalType":"uint256"},{"name":"allocPoint","type":"uint256","indexed":false,"internalType":"uint256"},{"name":"lpToken","type":"address","indexed":true,"internalType":"contract IERC20"}],"anonymous":false},{"type":"event","name":"LogSetPool","inputs":[{"name":"pid","type":"uint256","indexed":true,"internalType":"uint256"},{"name":"allocPoint","type":"uint256","indexed":false,"internalType":"uint256"}],"anonymous":false},{"type":"event","name":"LogUpdatePool","inputs":[{"name":"pid","type":"uint256","indexed":true,"internalType":"uint256"},{"name":"lastRewardBlock","type":"uint64","indexed":false,"internalType":"uint64"},{"name":"lpSupply","type":"uint256","indexed":false,"internalType":"uint256"},{"name":"accSushiPerShare","type":"uint256","indexed":false,"internalType":"uint256"}],"anonymous":false},{"type":"event","name":"OwnershipTransferred","inputs":[{"name":"previousOwner","type":"address","indexed":true,"internalType":"address"},{"name":"newOwner","type":"address","indexed":true,"internalType":"address"}],"anonymous":false},{"type":"event","name":"RoleAdminChanged","inputs":[{"name":"role","type":"bytes32","indexed":true,"internalType":"bytes32"},{"name":"previousAdminRole","type":"bytes32","indexed":true,"internalType":"bytes32"},{"name":"newAdminRole","type":"bytes32","indexed":true,"internalType":"bytes32"}],"anonymous":false},{"type":"event","name":"RoleGranted","inputs":[{"name":"role","type":"bytes32","indexed":true,"internalType":"bytes32"},{"name":"account","type":"address","indexed":true,"internalType":"address"},{"name":"sender","type":"address","indexed":true,"internalType":"address"}],"anonymous":false},{"type":"event","name":"RoleRevoked","inputs":[{"name":"role","type":"bytes32","indexed":true,"internalType":"bytes32"},{"name":"account","type":"address","indexed":true,"internalType":"address"},{"name":"sender","type":"address","indexed":true,"internalType":"address"}],"anonymous":false},{"type":"event","name":"Upgraded","inputs":[{"name":"implementation","type":"address","indexed":true,"internalType":"address"}],"anonymous":false},{"type":"event","name":"Withdraw","inputs":[{"name":"user","type":"address","indexed":true,"internalType":"address"},{"name":"pid","type":"uint256","indexed":true,"internalType":"uint256"},{"name":"amount","type":"uint256","indexed":false,"internalType":"uint256"},{"name":"to","type":"address","indexed":true,"internalType":"address"}],"anonymous":false},{"type":"error","name":"AccessControlBadConfirmation","inputs":[]},{"type":"error","name":"AccessControlUnauthorizedAccount","inputs":[{"name":"account","type":"address","internalType":"address"},{"name":"neededRole","type":"bytes32","internalType":"bytes32"}]},{"type":"error","name":"AddressEmptyCode","inputs":[{"name":"target","type":"address","internalType":"address"}]},{"type":"error","name":"ERC1967InvalidImplementation","inputs":[{"name":"implementation","type":"address","internalType":"address"}]},{"type":"error","name":"ERC1967NonPayable","inputs":[]},{"type":"error","name":"FailedCall","inputs":[]},{"type":"error","name":"InvalidInitialization","inputs":[]},{"type":"error","name":"NotInitializing","inputs":[]},{"type":"error","name":"OwnableInvalidOwner","inputs":[{"name":"owner","type":"address","internalType":"address"}]},{"type":"error","name":"OwnableUnauthorizedAccount","inputs":[{"name":"account","type":"address","internalType":"address"}]},{"type":"error","name":"UUPSUnauthorizedCallContext","inputs":[]},{"type":"error","name":"UUPSUnsupportedProxiableUUID","inputs":[{"name":"slot","type":"bytes32","internalType":"bytes32"}]}],"bytecode":{"object":"0x60a0604052306080526003805460ff1916905534801561001e57600080fd5b5061002761002c565b6100de565b7ff0c57e16840df040f15088dc2f81fe391c3923bec73e23a9662efc9c229c6a00805468010000000000000000900460ff161561007c5760405163f92ee8a960e01b815260040160405180910390fd5b80546001600160401b03908116146100db5780546001600160401b0319166001600160401b0390811782556040519081527fc7f505b2f371ae2175ee4913f4499e1f2633a7b5936321eed1cdaeb6115181d29060200160405180910390a15b50565b608051612e6261010760003960008181611ee101528181611f0a015261205b0152612e626000f3fe60806040526004361061021a5760003560e01c80635c975abb11610123578063a217fddf116100ab578063bedb86fb1161006f578063bedb86fb146106fa578063ca15c8731461071a578063d1abb9071461073a578063d547741f1461075a578063f2fde38b1461077a57600080fd5b8063a217fddf14610638578063a3246ad31461064d578063a86527fe1461067a578063ab560e101461069c578063ad3cb1cc146106bc57600080fd5b80638da5cb5b116100f25780638da5cb5b146105475780638dbdbe6d146105845780639010d07c146105a457806391d14854146105c457806393f1a40b146105e457600080fd5b80635c975abb146104be578063715018a6146104d857806378ed5d1f146104ed5780638910e1ed1461052557600080fd5b80632b8bbbe8116101a65780634aed2c9a116101755780634aed2c9a146103fa5780634f1ef2861461041a57806351eb05a61461042d57806352d1902d1461048957806357a5b58c1461049e57600080fd5b80632b8bbbe81461037a5780632f2ff15d1461039a5780632f940c70146103ba57806336568abe146103da57600080fd5b806317caf6f1116101ed57806317caf6f1146102e457806318fccc76146102fa578063195426ec1461031a5780631ab06ee51461033a578063248a9ca31461035a57600080fd5b806301ffc9a71461021f578063081e3eda146102545780630ad58d2f146102735780631526fe2714610295575b600080fd5b34801561022b57600080fd5b5061023f61023a366004612888565b61079a565b60405190151581526020015b60405180910390f35b34801561026057600080fd5b506001545b60405190815260200161024b565b34801561027f57600080fd5b5061029361028e3660046128c7565b6107c5565b005b3480156102a157600080fd5b506102b56102b0366004612900565b6108ec565b604080516001600160801b0390941684526001600160401b03928316602085015291169082015260600161024b565b3480156102f057600080fd5b5061026560055481565b34801561030657600080fd5b50610293610315366004612919565b610931565b34801561032657600080fd5b50610265610335366004612919565b610a0a565b34801561034657600080fd5b50610293610355366004612949565b610db2565b34801561036657600080fd5b50610265610375366004612900565b610e88565b34801561038657600080fd5b50610293610395366004612919565b610eaa565b3480156103a657600080fd5b506102936103b5366004612919565b610ff7565b3480156103c657600080fd5b506102936103d5366004612919565b611019565b3480156103e657600080fd5b506102936103f5366004612919565b6110cb565b34801561040657600080fd5b5061029361041536600461296b565b611103565b6102936104283660046129af565b61129d565b34801561043957600080fd5b5061044d610448366004612900565b6112bc565b6040805182516001600160801b031681526020808401516001600160401b0390811691830191909152928201519092169082015260600161024b565b34801561049557600080fd5b50610265611547565b3480156104aa57600080fd5b506102936104b9366004612a78565b611564565b3480156104ca57600080fd5b5060035461023f9060ff1681565b3480156104e457600080fd5b5061029361159a565b3480156104f957600080fd5b5061050d610508366004612900565b6115ae565b6040516001600160a01b03909116815260200161024b565b34801561053157600080fd5b50610265600080516020612dad83398151915281565b34801561055357600080fd5b507f9016d09d72d40fdae2fd8ceac6b6234c7706214fd39c1cd1e609a0528c199300546001600160a01b031661050d565b34801561059057600080fd5b5061029361059f3660046128c7565b6115d8565b3480156105b057600080fd5b5061050d6105bf366004612949565b6116f1565b3480156105d057600080fd5b5061023f6105df366004612919565b611720565b3480156105f057600080fd5b506106236105ff366004612919565b60046020908152600092835260408084209091529082529020805460019091015482565b6040805192835260208301919091520161024b565b34801561064457600080fd5b50610265600081565b34801561065957600080fd5b5061066d610668366004612900565b611758565b60405161024b9190612aed565b34801561068657600080fd5b50610265600080516020612ded83398151915281565b3480156106a857600080fd5b5060005461050d906001600160a01b031681565b3480156106c857600080fd5b506106ed604051806040016040528060058152602001640352e302e360dc1b81525081565b60405161024b9190612b89565b34801561070657600080fd5b50610293610715366004612baa565b61178a565b34801561072657600080fd5b50610265610735366004612900565b6117b6565b34801561074657600080fd5b506102936107553660046128c7565b6117dc565b34801561076657600080fd5b50610293610775366004612919565b611994565b34801561078657600080fd5b50610293610795366004612bc7565b6119b0565b60006001600160e01b03198216635a05180f60e01b14806107bf57506107bf826119ee565b92915050565b60035460ff16156107f15760405162461bcd60e51b81526004016107e890612be4565b60405180910390fd5b60006107fc846112bc565b6000858152600460209081526040808320338452909152902081519192509061084f9064e8d4a510009061083a9087906001600160801b0316611a23565b6108449190612c26565b600183015490611a8a565b600182015580546108609085611b17565b81556002805461089791908790811061087b5761087b612c48565b6000918252602090912001546001600160a01b03168486611b6d565b826001600160a01b031685336001600160a01b03167f8166bf25f8a2b7ed3c85049207da4358d16edbed977d23fa2ee6f0dde3ec2132876040516108dd91815260200190565b60405180910390a45050505050565b600181815481106108fc57600080fd5b6000918252602090912001546001600160801b03811691506001600160401b03600160801b8204811691600160c01b90041683565b600061093c836112bc565b6000848152600460209081526040808320338452909152812082518154939450909264e8d4a510009161097891906001600160801b0316611a23565b6109829190612c26565b905060006109a56109a0846001015484611a8a90919063ffffffff16565b611c9e565b60018401839055905080156109cb576000546109cb906001600160a01b03168683611b6d565b604051818152869033907f71bab65ced2e5750775a0613be067df48ef06cf92a496ebf7663ae06609249549060200160405180910390a3505050505050565b60008060018481548110610a2057610a20612c48565b600091825260208083206040805160608101825291909301546001600160801b0380821683526001600160401b03600160801b8304811684860152600160c01b90920490911682850152888552600483528385206001600160a01b038916865283529383902083518085019094526015845274706f6f6c2e6163635375736869506572536861726560581b9284019290925280519094509092610ac4929116611ce2565b610b0760405180604001604052806014815260200173706f6f6c2e6c617374526577617264426c6f636b60601b81525083602001516001600160401b0316611ce2565b815160408051808201909152600b81526a1d5cd95c8b985b5bdd5b9d60aa1b602082015282546001600160801b0390921691610b439190611ce2565b610b786040518060400160405280600f81526020016e1d5cd95c8b9c995dd85c991119589d608a1b8152508360010154611ce2565b600060028781548110610b8d57610b8d612c48565b6000918252602090912001546040516370a0823160e01b81523060048201526001600160a01b03909116906370a0823190602401602060405180830381865afa158015610bde573d6000803e3d6000fd5b505050506040513d601f19601f82011682018060405250810190610c029190612c5e565b9050610c2e604051806040016040528060088152602001676c70537570706c7960c01b81525082611ce2565b83602001516001600160401b031643118015610c4957508015155b15610cdf576000610c7085602001516001600160401b031643611b1790919063ffffffff16565b90506000600554610caa87604001516001600160401b0316610ca468056bc75e2d6310000086611a2390919063ffffffff16565b90611a23565b610cb49190612c26565b9050610cda83610cc98364e8d4a51000611a23565b610cd39190612c26565b8590611d27565b935050505b610d116040518060400160405280601081526020016f6163635375736869506572536861726560801b81525083611ce2565b610d426040518060400160405280600b81526020016a1d5cd95c8b985b5bdd5b9d60aa1b8152508460000154611ce2565b610d776040518060400160405280600f81526020016e1d5cd95c8b9c995dd85c991119589d608a1b8152508460010154611ce2565b60018301548354610da7916109a09164e8d4a5100090610d979087611a23565b610da19190612c26565b90611a8a565b979650505050505050565b610dba611d7c565b610dff81610df960018581548110610dd457610dd4612c48565b60009182526020909120015460055490600160c01b90046001600160401b0316611b17565b90611d27565b6005819055508060018381548110610e1957610e19612c48565b9060005260206000200160000160186101000a8154816001600160401b0302191690836001600160401b03160217905550817f942cc7e17a17c164bd977f32ab8c54265d5b9d481e4e352bf874f1e568874e7c82604051610e7c91815260200190565b60405180910390a25050565b6000908152600080516020612e0d833981519152602052604090206001015490565b610eb2611d7c565b6005544390610ec2908490612c77565b60055560028054600181810183557f405787fa12a823e0f2b7631cc41b3ba8828b3321ca811111fa75cd3aa3bb5ace90910180546001600160a01b0386166001600160a01b031990911681179091556040805160608101825260008082526001600160401b03808816602084019081528a8216948401948552865480880188559287905292517fb10e2d527612073b26eecdfd717e6a320cf44b4afac2b0732d9fcbe2b7fa0cf69092018054935194518216600160c01b026001600160c01b0395909216600160801b026001600160c01b03199094166001600160801b03939093169290921792909217929092161790559154610fbf9190612c8a565b6040518581527f4710feb78e3bce8d2e3ca2989a8eb2f8bcd32a6a55b4535942c180fc4d2e29529060200160405180910390a3505050565b61100082610e88565b61100981611dd7565b6110138383611de1565b50505050565b60008281526004602090815260408083203384529091528120805482825560018201929092556002805491929161107791908690811061105b5761105b612c48565b6000918252602090912001546001600160a01b03168483611b6d565b826001600160a01b031684336001600160a01b03167f2cac5e20e1541d836381527a43f651851e302817b71dc8e810284e69210c1c6b846040516110bd91815260200190565b60405180910390a450505050565b6001600160a01b03811633146110f45760405163334bd91960e11b815260040160405180910390fd5b6110fe8282611e26565b505050565b7ff0c57e16840df040f15088dc2f81fe391c3923bec73e23a9662efc9c229c6a008054600160401b810460ff1615906001600160401b03166000811580156111485750825b90506000826001600160401b031660011480156111645750303b155b905081158015611172575080155b156111905760405163f92ee8a960e01b815260040160405180910390fd5b845467ffffffffffffffff1916600117855583156111ba57845460ff60401b1916600160401b1785555b6111c333611e62565b6111db600080516020612dad83398151915280611e73565b611201600080516020612ded833981519152600080516020612dad833981519152611e73565b611219600080516020612dad83398151915233611de1565b50611232600080516020612ded83398151915287611de1565b50600080546001600160a01b0319166001600160a01b038916179055831561129457845460ff60401b19168555604051600181527fc7f505b2f371ae2175ee4913f4499e1f2633a7b5936321eed1cdaeb6115181d29060200160405180910390a15b50505050505050565b6112a5611ed6565b6112ae82611f7b565b6112b88282611f93565b5050565b6040805160608101825260008082526020820181905291810191909152600182815481106112ec576112ec612c48565b60009182526020918290206040805160608101825292909101546001600160801b03811683526001600160401b03600160801b82048116948401859052600160c01b909104169082015291504311156115425760006002838154811061135457611354612c48565b6000918252602090912001546040516370a0823160e01b81523060048201526001600160a01b03909116906370a0823190602401602060405180830381865afa1580156113a5573d6000803e3d6000fd5b505050506040513d601f19601f820116820180604052508101906113c99190612c5e565b9050801561146e5760006113f383602001516001600160401b031643611b1790919063ffffffff16565b9050600060055461142785604001516001600160401b0316610ca468056bc75e2d6310000086611a2390919063ffffffff16565b6114319190612c26565b90506000836114458364e8d4a51000611a23565b61144f9190612c26565b855190915061145f908290612c9d565b6001600160801b031685525050505b6001600160401b0343166020830152600180548391908590811061149457611494612c48565b6000918252602091829020835191018054848401516040958601516001600160401b03908116600160c01b026001600160c01b03928216600160801b026001600160c01b03199094166001600160801b039687161793909317919091169190911790915585830151865185519190921681529283018590521681830152905184917f0fc9545022a542541ad085d091fb09a2ab36fee366a4576ab63714ea907ad353919081900360600190a2505b919050565b6000611551612050565b50600080516020612dcd83398151915290565b8060005b818110156110135761159184848381811061158557611585612c48565b905060200201356112bc565b50600101611568565b6115a2611d7c565b6115ac6000612099565b565b600281815481106115be57600080fd5b6000918252602090912001546001600160a01b0316905081565b60035460ff16156115fb5760405162461bcd60e51b81526004016107e890612be4565b6000611606846112bc565b60008581526004602090815260408083206001600160a01b038716845290915290208054919250906116389085611d27565b815581516116709064e8d4a510009061165b9087906001600160801b0316611a23565b6116659190612c26565b60018301549061210a565b81600101819055506116ab6002868154811061168e5761168e612c48565b6000918252602090912001546001600160a01b0316333087612195565b826001600160a01b031685336001600160a01b03167f02d7e648dd130fc184d383e55bb126ac4c9c60e8f94bf05acdf557ba2d540b47876040516108dd91815260200190565b6000828152600080516020612d8d83398151915260208190526040822061171890846122d3565b949350505050565b6000918252600080516020612e0d833981519152602090815260408084206001600160a01b0393909316845291905290205460ff1690565b6000818152600080516020612d8d8339815191526020819052604090912060609190611783906122df565b9392505050565b600080516020612dad8339815191526117a281611dd7565b506003805460ff1916911515919091179055565b6000818152600080516020612d8d833981519152602081905260408220611783906122ec565b60035460ff16156117ff5760405162461bcd60e51b81526004016107e890612be4565b600061180a846112bc565b6000858152600460209081526040808320338452909152812082518154939450909264e8d4a510009161184691906001600160801b0316611a23565b6118509190612c26565b9050600061186e6109a0846001015484611a8a90919063ffffffff16565b90506118aa64e8d4a5100061189986600001516001600160801b031689611a2390919063ffffffff16565b6118a39190612c26565b8390611a8a565b600184015582546118bb9087611b17565b83556000546118d4906001600160a01b03168683611b6d565b611906600288815481106118ea576118ea612c48565b6000918252602090912001546001600160a01b03168688611b6d565b846001600160a01b031687336001600160a01b03167f8166bf25f8a2b7ed3c85049207da4358d16edbed977d23fa2ee6f0dde3ec21328960405161194c91815260200190565b60405180910390a4604051818152879033907f71bab65ced2e5750775a0613be067df48ef06cf92a496ebf7663ae06609249549060200160405180910390a350505050505050565b61199d82610e88565b6119a681611dd7565b6110138383611e26565b6119b8611d7c565b6001600160a01b0381166119e257604051631e4fbdf760e01b8152600060048201526024016107e8565b6119eb81612099565b50565b60006001600160e01b03198216637965db0b60e01b14806107bf57506301ffc9a760e01b6001600160e01b03198316146107bf565b6000811580611a4757508282611a398183612cbc565b9250611a459083612c26565b145b6107bf5760405162461bcd60e51b815260206004820152601460248201527364732d6d6174682d6d756c2d6f766572666c6f7760601b60448201526064016107e8565b600080611a978385612cd3565b905060008312158015611aaa5750838113155b80611abf5750600083128015611abf57508381135b6117835760405162461bcd60e51b8152602060048201526024808201527f5369676e6564536166654d6174683a207375627472616374696f6e206f766572604482015263666c6f7760e01b60648201526084016107e8565b600082611b248382612c8a565b91508111156107bf5760405162461bcd60e51b815260206004820152601560248201527464732d6d6174682d7375622d756e646572666c6f7760581b60448201526064016107e8565b604080516001600160a01b038481166024830152604480830185905283518084039091018152606490920183526020820180516001600160e01b031663a9059cbb60e01b1790529151600092839290871691611bc99190612cf3565b6000604051808303816000865af19150503d8060008114611c06576040519150601f19603f3d011682016040523d82523d6000602084013e611c0b565b606091505b5091509150818015611c35575080511580611c35575080806020019051810190611c359190612d0f565b611c975760405162461bcd60e51b815260206004820152602d60248201527f5472616e7366657248656c7065723a3a736166655472616e736665723a20747260448201526c185b9cd9995c8819985a5b1959609a1b60648201526084016107e8565b5050505050565b600080821215611cde5760405162461bcd60e51b815260206004820152600b60248201526a0496e7465676572203c20360ac1b60448201526064016107e8565b5090565b6112b88282604051602401611cf8929190612d2c565b60408051601f198184030181529190526020810180516001600160e01b0316632d839cb360e21b1790526122f6565b600082611d348382612c77565b91508110156107bf5760405162461bcd60e51b815260206004820152601460248201527364732d6d6174682d6164642d6f766572666c6f7760601b60448201526064016107e8565b33611dae7f9016d09d72d40fdae2fd8ceac6b6234c7706214fd39c1cd1e609a0528c199300546001600160a01b031690565b6001600160a01b0316146115ac5760405163118cdaa760e01b81523360048201526024016107e8565b6119eb81336122ff565b6000600080516020612d8d83398151915281611dfd8585612338565b90508015611718576000858152602083905260409020611e1d90856123e4565b50949350505050565b6000600080516020612d8d83398151915281611e4285856123f9565b90508015611718576000858152602083905260409020611e1d9085612475565b611e6a61248a565b6119eb816124d3565b600080516020612e0d8339815191526000611e8d84610e88565b600085815260208490526040808220600101869055519192508491839187917fbd79b86ffe0ab8e8776151514217cd7cacd52c909f66475c3af44e129f0b00ff9190a450505050565b306001600160a01b037f0000000000000000000000000000000000000000000000000000000000000000161480611f5d57507f00000000000000000000000000000000000000000000000000000000000000006001600160a01b0316611f51600080516020612dcd833981519152546001600160a01b031690565b6001600160a01b031614155b156115ac5760405163703e46dd60e11b815260040160405180910390fd5b600080516020612ded8339815191526112b881611dd7565b816001600160a01b03166352d1902d6040518163ffffffff1660e01b8152600401602060405180830381865afa925050508015611fed575060408051601f3d908101601f19168201909252611fea91810190612c5e565b60015b61201557604051634c9c8ce360e01b81526001600160a01b03831660048201526024016107e8565b600080516020612dcd833981519152811461204657604051632a87526960e21b8152600481018290526024016107e8565b6110fe83836124db565b306001600160a01b037f000000000000000000000000000000000000000000000000000000000000000016146115ac5760405163703e46dd60e11b815260040160405180910390fd5b7f9016d09d72d40fdae2fd8ceac6b6234c7706214fd39c1cd1e609a0528c19930080546001600160a01b031981166001600160a01b03848116918217845560405192169182907f8be0079c531659141344cd1fd0a4f28419497f9722a3daafe3b4186f6b6457e090600090a3505050565b6000806121178385612d4e565b90506000831215801561212a5750838112155b8061213f575060008312801561213f57508381125b6117835760405162461bcd60e51b815260206004820152602160248201527f5369676e6564536166654d6174683a206164646974696f6e206f766572666c6f6044820152607760f81b60648201526084016107e8565b604080516001600160a01b0385811660248301528481166044830152606480830185905283518084039091018152608490920183526020820180516001600160e01b03166323b872dd60e01b17905291516000928392908816916121f99190612cf3565b6000604051808303816000865af19150503d8060008114612236576040519150601f19603f3d011682016040523d82523d6000602084013e61223b565b606091505b50915091508180156122655750805115806122655750808060200190518101906122659190612d0f565b6122cb5760405162461bcd60e51b815260206004820152603160248201527f5472616e7366657248656c7065723a3a7472616e7366657246726f6d3a207472604482015270185b9cd9995c919c9bdb4819985a5b1959607a1b60648201526084016107e8565b505050505050565b60006117838383612531565b606060006117838361255b565b60006107bf825490565b6119eb816125b7565b6123098282611720565b6112b85760405163e2517d3f60e01b81526001600160a01b0382166004820152602481018390526044016107e8565b6000600080516020612e0d8339815191526123538484611720565b6123d3576000848152602082815260408083206001600160a01b03871684529091529020805460ff191660011790556123893390565b6001600160a01b0316836001600160a01b0316857f2f8788117e7eff1d82e926ec794901d17c78024a50270940304540a733656f0d60405160405180910390a460019150506107bf565b60009150506107bf565b5092915050565b6000611783836001600160a01b0384166125d8565b6000600080516020612e0d8339815191526124148484611720565b156123d3576000848152602082815260408083206001600160a01b0387168085529252808320805460ff1916905551339287917ff6391f5c32d9c69d2a47ea670b442974b53935d1edc7fd64eb21e047a839171b9190a460019150506107bf565b6000611783836001600160a01b038416612627565b7ff0c57e16840df040f15088dc2f81fe391c3923bec73e23a9662efc9c229c6a0054600160401b900460ff166115ac57604051631afcd79f60e31b815260040160405180910390fd5b6119b861248a565b6124e482612710565b6040516001600160a01b038316907fbc7cd75a20ee27fd9adebab32041f755214dbc6bffa90cc0225b39da2e5c2d3b90600090a2805115612529576110fe8282612775565b6112b86127eb565b600082600001828154811061254857612548612c48565b9060005260206000200154905092915050565b6060816000018054806020026020016040519081016040528092919081815260200182805480156125ab57602002820191906000526020600020905b815481526020019060010190808311612597575b50505050509050919050565b60006a636f6e736f6c652e6c6f679050600080835160208501845afa505050565b600081815260018301602052604081205461261f575081546001818101845560008481526020808220909301849055845484825282860190935260409020919091556107bf565b5060006107bf565b600081815260018301602052604081205480156123d357600061264b600183612c8a565b855490915060009061265f90600190612c8a565b90508082146126c457600086600001828154811061267f5761267f612c48565b90600052602060002001549050808760000184815481106126a2576126a2612c48565b6000918252602080832090910192909255918252600188019052604090208390555b85548690806126d5576126d5612d76565b6001900381819060005260206000200160009055905585600101600086815260200190815260200160002060009055600193505050506107bf565b806001600160a01b03163b60000361274657604051634c9c8ce360e01b81526001600160a01b03821660048201526024016107e8565b600080516020612dcd83398151915280546001600160a01b0319166001600160a01b0392909216919091179055565b6060600080846001600160a01b0316846040516127929190612cf3565b600060405180830381855af49150503d80600081146127cd576040519150601f19603f3d011682016040523d82523d6000602084013e6127d2565b606091505b50915091506127e285838361280a565b95945050505050565b34156115ac5760405163b398979f60e01b815260040160405180910390fd5b60608261281f5761281a8261285f565b611783565b815115801561283657506001600160a01b0384163b155b156123dd57604051639996b31560e01b81526001600160a01b03851660048201526024016107e8565b80511561286f5780518082602001fd5b60405163d6bda27560e01b815260040160405180910390fd5b60006020828403121561289a57600080fd5b81356001600160e01b03198116811461178357600080fd5b6001600160a01b03811681146119eb57600080fd5b6000806000606084860312156128dc57600080fd5b833592506020840135915060408401356128f5816128b2565b809150509250925092565b60006020828403121561291257600080fd5b5035919050565b6000806040838503121561292c57600080fd5b82359150602083013561293e816128b2565b809150509250929050565b6000806040838503121561295c57600080fd5b50508035926020909101359150565b6000806040838503121561297e57600080fd5b8235612989816128b2565b9150602083013561293e816128b2565b634e487b7160e01b600052604160045260246000fd5b600080604083850312156129c257600080fd5b82356129cd816128b2565b915060208301356001600160401b038111156129e857600080fd5b8301601f810185136129f957600080fd5b80356001600160401b03811115612a1257612a12612999565b604051601f8201601f19908116603f011681016001600160401b0381118282101715612a4057612a40612999565b604052818152828201602001871015612a5857600080fd5b816020840160208301376000602083830101528093505050509250929050565b60008060208385031215612a8b57600080fd5b82356001600160401b03811115612aa157600080fd5b8301601f81018513612ab257600080fd5b80356001600160401b03811115612ac857600080fd5b8560208260051b8401011115612add57600080fd5b6020919091019590945092505050565b602080825282518282018190526000918401906040840190835b81811015612b2e5783516001600160a01b0316835260209384019390920191600101612b07565b509095945050505050565b60005b83811015612b54578181015183820152602001612b3c565b50506000910152565b60008151808452612b75816020860160208601612b39565b601f01601f19169290920160200192915050565b6020815260006117836020830184612b5d565b80151581146119eb57600080fd5b600060208284031215612bbc57600080fd5b813561178381612b9c565b600060208284031215612bd957600080fd5b8135611783816128b2565b60208082526012908201527113585cdd195c90da19598e881c185d5cd95960721b604082015260600190565b634e487b7160e01b600052601160045260246000fd5b600082612c4357634e487b7160e01b600052601260045260246000fd5b500490565b634e487b7160e01b600052603260045260246000fd5b600060208284031215612c7057600080fd5b5051919050565b808201808211156107bf576107bf612c10565b818103818111156107bf576107bf612c10565b6001600160801b0381811683821601908111156107bf576107bf612c10565b80820281158282048414176107bf576107bf612c10565b81810360008312801583831316838312821617156123dd576123dd612c10565b60008251612d05818460208701612b39565b9190910192915050565b600060208284031215612d2157600080fd5b815161178381612b9c565b604081526000612d3f6040830185612b5d565b90508260208301529392505050565b8082018281126000831280158216821582161715612d6e57612d6e612c10565b505092915050565b634e487b7160e01b600052603160045260246000fdfec1f6fe24621ce81ec5827caf0253cadb74709b061630e6b55e8237170593200092fca2a051a1d56e4386f5a3c5a80faf206d9ce7724a6a05dadc11b8db569de0360894a13ba1a3210667c828492db98dca3e2076cc3735a920a3ca505d382bbcd4e3e506ca1d83d61cce51f23629bed4554bc706a090148511170d317cdcb69c02dd7bc7dec4dceedda775e58dd541e08a116c6c53815c0bd028192f7b626800a26469706673582212203bb34e5d8a4af8523b80927d201e324f4be662df617fce963c06035ef93c7beb64736f6c634300081a0033","linkReferences":{}},"methodIdentifiers":{"AdminRole()":"8910e1ed","DEFAULT_ADMIN_ROLE()":"a217fddf","SUSHI()":"ab560e10","UPGRADE_INTERFACE_VERSION()":"ad3cb1cc","UpdateRole()":"a86527fe","add(uint256,address)":"2b8bbbe8","deposit(uint256,uint256,address)":"8dbdbe6d","emergencyWithdraw(uint256,address)":"2f940c70","getRoleAdmin(bytes32)":"248a9ca3","getRoleMember(bytes32,uint256)":"9010d07c","getRoleMemberCount(bytes32)":"ca15c873","getRoleMembers(bytes32)":"a3246ad3","grantRole(bytes32,address)":"2f2ff15d","harvest(uint256,address)":"18fccc76","hasRole(bytes32,address)":"91d14854","initilize(address,address)":"4aed2c9a","lpToken(uint256)":"78ed5d1f","massUpdatePools(uint256[])":"57a5b58c","owner()":"8da5cb5b","paused()":"5c975abb","pendingSushi(uint256,address)":"195426ec","poolInfo(uint256)":"1526fe27","poolLength()":"081e3eda","proxiableUUID()":"52d1902d","renounceOwnership()":"715018a6","renounceRole(bytes32,address)":"36568abe","revokeRole(bytes32,address)":"d547741f","set(uint256,uint256)":"1ab06ee5","setPause(bool)":"bedb86fb","supportsInterface(bytes4)":"01ffc9a7","totalAllocPoint()":"17caf6f1","transferOwnership(address)":"f2fde38b","updatePool(uint256)":"51eb05a6","upgradeToAndCall(address,bytes)":"4f1ef286","userInfo(uint256,address)":"93f1a40b","withdraw(uint256,uint256,address)":"0ad58d2f","withdrawAndHarvest(uint256,uint256,address)":"d1abb907"},"id":1}