{"abi":[{"type":"constructor","inputs":[],"stateMutability":"nonpayable"},{"type":"function","name":"AdminRole","inputs":[],"outputs":[{"name":"","type":"bytes32","internalType":"bytes32"}],"stateMutability":"view"},{"type":"function","name":"DEFAULT_ADMIN_ROLE","inputs":[],"outputs":[{"name":"","type":"bytes32","internalType":"bytes32"}],"stateMutability":"view"},{"type":"function","name":"SUSHI","inputs":[],"outputs":[{"name":"","type":"address","internalType":"contract IERC20"}],"stateMutability":"view"},{"type":"function","name":"UPGRADE_INTERFACE_VERSION","inputs":[],"outputs":[{"name":"","type":"string","internalType":"string"}],"stateMutability":"view"},{"type":"function","name":"UpdateRole","inputs":[],"outputs":[{"name":"","type":"bytes32","internalType":"bytes32"}],"stateMutability":"view"},{"type":"function","name":"add","inputs":[{"name":"allocPoint","type":"uint256","internalType":"uint256"},{"name":"_lpToken","type":"address","internalType":"contract IERC20"}],"outputs":[],"stateMutability":"nonpayable"},{"type":"function","name":"deposit","inputs":[{"name":"pid","type":"uint256","internalType":"uint256"},{"name":"amount","type":"uint256","internalType":"uint256"},{"name":"to","type":"address","internalType":"address"}],"outputs":[],"stateMutability":"nonpayable"},{"type":"function","name":"emergencyWithdraw","inputs":[{"name":"pid","type":"uint256","internalType":"uint256"},{"name":"to","type":"address","internalType":"address"}],"outputs":[],"stateMutability":"nonpayable"},{"type":"function","name":"getRoleAdmin","inputs":[{"name":"role","type":"bytes32","internalType":"bytes32"}],"outputs":[{"name":"","type":"bytes32","internalType":"bytes32"}],"stateMutability":"view"},{"type":"function","name":"getRoleMember","inputs":[{"name":"role","type":"bytes32","internalType":"bytes32"},{"name":"index","type":"uint256","internalType":"uint256"}],"outputs":[{"name":"","type":"address","internalType":"address"}],"stateMutability":"view"},{"type":"function","name":"getRoleMemberCount","inputs":[{"name":"role","type":"bytes32","internalType":"bytes32"}],"outputs":[{"name":"","type":"uint256","internalType":"uint256"}],"stateMutability":"view"},{"type":"function","name":"getRoleMembers","inputs":[{"name":"role","type":"bytes32","internalType":"bytes32"}],"outputs":[{"name":"","type":"address[]","internalType":"address[]"}],"stateMutability":"view"},{"type":"function","name":"grantRole","inputs":[{"name":"role","type":"bytes32","internalType":"bytes32"},{"name":"account","type":"address","internalType":"address"}],"outputs":[],"stateMutability":"nonpayable"},{"type":"function","name":"harvest","inputs":[{"name":"pid","type":"uint256","internalType":"uint256"},{"name":"to","type":"address","internalType":"address"}],"outputs":[],"stateMutability":"nonpayable"},{"type":"function","name":"hasRole","inputs":[{"name":"role","type":"bytes32","internalType":"bytes32"},{"name":"account","type":"address","internalType":"address"}],"outputs":[{"name":"","type":"bool","internalType":"bool"}],"stateMutability":"view"},{"type":"function","name":"initilize","inputs":[{"name":"_sushi","type":"address","internalType":"address"},{"name":"_updateroler","type":"address","internalType":"address"}],"outputs":[],"stateMutability":"nonpayable"},{"type":"function","name":"lpToken","inputs":[{"name":"","type":"uint256","internalType":"uint256"}],"outputs":[{"name":"","type":"address","internalType":"contract IERC20"}],"stateMutability":"view"},{"type":"function","name":"massUpdatePools","inputs":[{"name":"pids","type":"uint256[]","internalType":"uint256[]"}],"outputs":[],"stateMutability":"nonpayable"},{"type":"function","name":"owner","inputs":[],"outputs":[{"name":"","type":"address","internalType":"address"}],"stateMutability":"view"},{"type":"function","name":"pendingSushi","inputs":[{"name":"_pid","type":"uint256","internalType":"uint256"},{"name":"_user","type":"address","internalType":"address"}],"outputs":[{"name":"pending","type":"uint256","internalType":"uint256"}],"stateMutability":"view"},{"type":"function","name":"poolInfo","inputs":[{"name":"","type":"uint256","internalType":"uint256"}],"outputs":[{"name":"accSushiPerShare","type":"uint128","internalType":"uint128"},{"name":"lastRewardBlock","type":"uint64","internalType":"uint64"},{"name":"allocPoint","type":"uint64","internalType":"uint64"}],"stateMutability":"view"},{"type":"function","name":"poolLength","inputs":[],"outputs":[{"name":"pools","type":"uint256","internalType":"uint256"}],"stateMutability":"view"},{"type":"function","name":"proxiableUUID","inputs":[],"outputs":[{"name":"","type":"bytes32","internalType":"bytes32"}],"stateMutability":"view"},{"type":"function","name":"renounceOwnership","inputs":[],"outputs":[],"stateMutability":"nonpayable"},{"type":"function","name":"renounceRole","inputs":[{"name":"role","type":"bytes32","internalType":"bytes32"},{"name":"callerConfirmation","type":"address","internalType":"address"}],"outputs":[],"stateMutability":"nonpayable"},{"type":"function","name":"revokeRole","inputs":[{"name":"role","type":"bytes32","internalType":"bytes32"},{"name":"account","type":"address","internalType":"address"}],"outputs":[],"stateMutability":"nonpayable"},{"type":"function","name":"set","inputs":[{"name":"_pid","type":"uint256","internalType":"uint256"},{"name":"_allocPoint","type":"uint256","internalType":"uint256"}],"outputs":[],"stateMutability":"nonpayable"},{"type":"function","name":"supportsInterface","inputs":[{"name":"interfaceId","type":"bytes4","internalType":"bytes4"}],"outputs":[{"name":"","type":"bool","internalType":"bool"}],"stateMutability":"view"},{"type":"function","name":"totalAllocPoint","inputs":[],"outputs":[{"name":"","type":"uint256","internalType":"uint256"}],"stateMutability":"view"},{"type":"function","name":"transferOwnership","inputs":[{"name":"newOwner","type":"address","internalType":"address"}],"outputs":[],"stateMutability":"nonpayable"},{"type":"function","name":"updatePool","inputs":[{"name":"pid","type":"uint256","internalType":"uint256"}],"outputs":[{"name":"pool","type":"tuple","internalType":"struct MasterChef.PoolInfo","components":[{"name":"accSushiPerShare","type":"uint128","internalType":"uint128"},{"name":"lastRewardBlock","type":"uint64","internalType":"uint64"},{"name":"allocPoint","type":"uint64","internalType":"uint64"}]}],"stateMutability":"nonpayable"},{"type":"function","name":"upgradeToAndCall","inputs":[{"name":"newImplementation","type":"address","internalType":"address"},{"name":"data","type":"bytes","internalType":"bytes"}],"outputs":[],"stateMutability":"payable"},{"type":"function","name":"userInfo","inputs":[{"name":"","type":"uint256","internalType":"uint256"},{"name":"","type":"address","internalType":"address"}],"outputs":[{"name":"amount","type":"uint256","internalType":"uint256"},{"name":"rewardDebt","type":"int256","internalType":"int256"}],"stateMutability":"view"},{"type":"function","name":"withdraw","inputs":[{"name":"pid","type":"uint256","internalType":"uint256"},{"name":"amount","type":"uint256","internalType":"uint256"},{"name":"to","type":"address","internalType":"address"}],"outputs":[],"stateMutability":"nonpayable"},{"type":"function","name":"withdrawAndHarvest","inputs":[{"name":"pid","type":"uint256","internalType":"uint256"},{"name":"amount","type":"uint256","internalType":"uint256"},{"name":"to","type":"address","internalType":"address"}],"outputs":[],"stateMutability":"nonpayable"},{"type":"event","name":"Deposit","inputs":[{"name":"user","type":"address","indexed":true,"internalType":"address"},{"name":"pid","type":"uint256","indexed":true,"internalType":"uint256"},{"name":"amount","type":"uint256","indexed":false,"internalType":"uint256"},{"name":"to","type":"address","indexed":true,"internalType":"address"}],"anonymous":false},{"type":"event","name":"EmergencyWithdraw","inputs":[{"name":"user","type":"address","indexed":true,"internalType":"address"},{"name":"pid","type":"uint256","indexed":true,"internalType":"uint256"},{"name":"amount","type":"uint256","indexed":false,"internalType":"uint256"},{"name":"to","type":"address","indexed":true,"internalType":"address"}],"anonymous":false},{"type":"event","name":"Harvest","inputs":[{"name":"user","type":"address","indexed":true,"internalType":"address"},{"name":"pid","type":"uint256","indexed":true,"internalType":"uint256"},{"name":"amount","type":"uint256","indexed":false,"internalType":"uint256"}],"anonymous":false},{"type":"event","name":"Initialized","inputs":[{"name":"version","type":"uint64","indexed":false,"internalType":"uint64"}],"anonymous":false},{"type":"event","name":"LogInit","inputs":[],"anonymous":false},{"type":"event","name":"LogPoolAddition","inputs":[{"name":"pid","type":"uint256","indexed":true,"internalType":"uint256"},{"name":"allocPoint","type":"uint256","indexed":false,"internalType":"uint256"},{"name":"lpToken","type":"address","indexed":true,"internalType":"contract IERC20"}],"anonymous":false},{"type":"event","name":"LogSetPool","inputs":[{"name":"pid","type":"uint256","indexed":true,"internalType":"uint256"},{"name":"allocPoint","type":"uint256","indexed":false,"internalType":"uint256"}],"anonymous":false},{"type":"event","name":"LogUpdatePool","inputs":[{"name":"pid","type":"uint256","indexed":true,"internalType":"uint256"},{"name":"lastRewardBlock","type":"uint64","indexed":false,"internalType":"uint64"},{"name":"lpSupply","type":"uint256","indexed":false,"internalType":"uint256"},{"name":"accSushiPerShare","type":"uint256","indexed":false,"internalType":"uint256"}],"anonymous":false},{"type":"event","name":"OwnershipTransferred","inputs":[{"name":"previousOwner","type":"address","indexed":true,"internalType":"address"},{"name":"newOwner","type":"address","indexed":true,"internalType":"address"}],"anonymous":false},{"type":"event","name":"RoleAdminChanged","inputs":[{"name":"role","type":"bytes32","indexed":true,"internalType":"bytes32"},{"name":"previousAdminRole","type":"bytes32","indexed":true,"internalType":"bytes32"},{"name":"newAdminRole","type":"bytes32","indexed":true,"internalType":"bytes32"}],"anonymous":false},{"type":"event","name":"RoleGranted","inputs":[{"name":"role","type":"bytes32","indexed":true,"internalType":"bytes32"},{"name":"account","type":"address","indexed":true,"internalType":"address"},{"name":"sender","type":"address","indexed":true,"internalType":"address"}],"anonymous":false},{"type":"event","name":"RoleRevoked","inputs":[{"name":"role","type":"bytes32","indexed":true,"internalType":"bytes32"},{"name":"account","type":"address","indexed":true,"internalType":"address"},{"name":"sender","type":"address","indexed":true,"internalType":"address"}],"anonymous":false},{"type":"event","name":"Upgraded","inputs":[{"name":"implementation","type":"address","indexed":true,"internalType":"address"}],"anonymous":false},{"type":"event","name":"Withdraw","inputs":[{"name":"user","type":"address","indexed":true,"internalType":"address"},{"name":"pid","type":"uint256","indexed":true,"internalType":"uint256"},{"name":"amount","type":"uint256","indexed":false,"internalType":"uint256"},{"name":"to","type":"address","indexed":true,"internalType":"address"}],"anonymous":false},{"type":"error","name":"AccessControlBadConfirmation","inputs":[]},{"type":"error","name":"AccessControlUnauthorizedAccount","inputs":[{"name":"account","type":"address","internalType":"address"},{"name":"neededRole","type":"bytes32","internalType":"bytes32"}]},{"type":"error","name":"AddressEmptyCode","inputs":[{"name":"target","type":"address","internalType":"address"}]},{"type":"error","name":"ERC1967InvalidImplementation","inputs":[{"name":"implementation","type":"address","internalType":"address"}]},{"type":"error","name":"ERC1967NonPayable","inputs":[]},{"type":"error","name":"FailedCall","inputs":[]},{"type":"error","name":"InvalidInitialization","inputs":[]},{"type":"error","name":"NotInitializing","inputs":[]},{"type":"error","name":"OwnableInvalidOwner","inputs":[{"name":"owner","type":"address","internalType":"address"}]},{"type":"error","name":"OwnableUnauthorizedAccount","inputs":[{"name":"account","type":"address","internalType":"address"}]},{"type":"error","name":"UUPSUnauthorizedCallContext","inputs":[]},{"type":"error","name":"UUPSUnsupportedProxiableUUID","inputs":[{"name":"slot","type":"bytes32","internalType":"bytes32"}]}],"bytecode":{"object":"0x60a06040523060805234801561001457600080fd5b5061001d610022565b6100d4565b7ff0c57e16840df040f15088dc2f81fe391c3923bec73e23a9662efc9c229c6a00805468010000000000000000900460ff16156100725760405163f92ee8a960e01b815260040160405180910390fd5b80546001600160401b03908116146100d15780546001600160401b0319166001600160401b0390811782556040519081527fc7f505b2f371ae2175ee4913f4499e1f2633a7b5936321eed1cdaeb6115181d29060200160405180910390a15b50565b608051612adf6100fd60003960008181611c0801528181611c310152611d820152612adf6000f3fe6080604052600436106102045760003560e01c806357a5b58c11610118578063a217fddf116100a0578063ad3cb1cc1161006f578063ad3cb1cc1461068c578063ca15c873146106ca578063d1abb907146106ea578063d547741f1461070a578063f2fde38b1461072a57600080fd5b8063a217fddf14610608578063a3246ad31461061d578063a86527fe1461064a578063ab560e101461066c57600080fd5b80638da5cb5b116100e75780638da5cb5b146105175780638dbdbe6d146105545780639010d07c1461057457806391d148541461059457806393f1a40b146105b457600080fd5b806357a5b58c14610488578063715018a6146104a857806378ed5d1f146104bd5780638910e1ed146104f557600080fd5b8063248a9ca31161019b57806336568abe1161016a57806336568abe146103c45780634aed2c9a146103e45780634f1ef2861461040457806351eb05a61461041757806352d1902d1461047357600080fd5b8063248a9ca3146103445780632b8bbbe8146103645780632f2ff15d146103845780632f940c70146103a457600080fd5b806317caf6f1116101d757806317caf6f1146102ce57806318fccc76146102e4578063195426ec146103045780631ab06ee51461032457600080fd5b806301ffc9a714610209578063081e3eda1461023e5780630ad58d2f1461025d5780631526fe271461027f575b600080fd5b34801561021557600080fd5b50610229610224366004612585565b61074a565b60405190151581526020015b60405180910390f35b34801561024a57600080fd5b506001545b604051908152602001610235565b34801561026957600080fd5b5061027d6102783660046125c4565b610775565b005b34801561028b57600080fd5b5061029f61029a3660046125fd565b610870565b604080516001600160801b0390941684526001600160401b039283166020850152911690820152606001610235565b3480156102da57600080fd5b5061024f60045481565b3480156102f057600080fd5b5061027d6102ff366004612616565b6108b5565b34801561031057600080fd5b5061024f61031f366004612616565b61098e565b34801561033057600080fd5b5061027d61033f366004612646565b610b8b565b34801561035057600080fd5b5061024f61035f3660046125fd565b610c61565b34801561037057600080fd5b5061027d61037f366004612616565b610c83565b34801561039057600080fd5b5061027d61039f366004612616565b610dd0565b3480156103b057600080fd5b5061027d6103bf366004612616565b610df2565b3480156103d057600080fd5b5061027d6103df366004612616565b610ea4565b3480156103f057600080fd5b5061027d6103ff366004612668565b610edc565b61027d6104123660046126ac565b611076565b34801561042357600080fd5b506104376104323660046125fd565b611095565b6040805182516001600160801b031681526020808401516001600160401b03908116918301919091529282015190921690820152606001610235565b34801561047f57600080fd5b5061024f611320565b34801561049457600080fd5b5061027d6104a3366004612775565b61133d565b3480156104b457600080fd5b5061027d611373565b3480156104c957600080fd5b506104dd6104d83660046125fd565b611387565b6040516001600160a01b039091168152602001610235565b34801561050157600080fd5b5061024f600080516020612a2a83398151915281565b34801561052357600080fd5b507f9016d09d72d40fdae2fd8ceac6b6234c7706214fd39c1cd1e609a0528c199300546001600160a01b03166104dd565b34801561056057600080fd5b5061027d61056f3660046125c4565b6113b1565b34801561058057600080fd5b506104dd61058f366004612646565b6114a7565b3480156105a057600080fd5b506102296105af366004612616565b6114d6565b3480156105c057600080fd5b506105f36105cf366004612616565b60036020908152600092835260408084209091529082529020805460019091015482565b60408051928352602083019190915201610235565b34801561061457600080fd5b5061024f600081565b34801561062957600080fd5b5061063d6106383660046125fd565b61150e565b60405161023591906127ea565b34801561065657600080fd5b5061024f600080516020612a6a83398151915281565b34801561067857600080fd5b506000546104dd906001600160a01b031681565b34801561069857600080fd5b506106bd604051806040016040528060058152602001640352e302e360dc1b81525081565b604051610235919061285a565b3480156106d657600080fd5b5061024f6106e53660046125fd565b611540565b3480156106f657600080fd5b5061027d6107053660046125c4565b611566565b34801561071657600080fd5b5061027d610725366004612616565b6116fb565b34801561073657600080fd5b5061027d61074536600461288d565b611717565b60006001600160e01b03198216635a05180f60e01b148061076f575061076f8261175a565b92915050565b600061078084611095565b600085815260036020908152604080832033845290915290208151919250906107d39064e8d4a51000906107be9087906001600160801b031661178f565b6107c891906128c0565b6001830154906117f6565b600182015580546107e49085611883565b81556002805461081b9190879081106107ff576107ff6128e2565b6000918252602090912001546001600160a01b031684866118d9565b826001600160a01b031685336001600160a01b03167f8166bf25f8a2b7ed3c85049207da4358d16edbed977d23fa2ee6f0dde3ec21328760405161086191815260200190565b60405180910390a45050505050565b6001818154811061088057600080fd5b6000918252602090912001546001600160801b03811691506001600160401b03600160801b8204811691600160c01b90041683565b60006108c083611095565b6000848152600360209081526040808320338452909152812082518154939450909264e8d4a51000916108fc91906001600160801b031661178f565b61090691906128c0565b905060006109296109248460010154846117f690919063ffffffff16565b611a0a565b600184018390559050801561094f5760005461094f906001600160a01b031686836118d9565b604051818152869033907f71bab65ced2e5750775a0613be067df48ef06cf92a496ebf7663ae06609249549060200160405180910390a3505050505050565b600080600184815481106109a4576109a46128e2565b600091825260208083206040805160608101825291909301546001600160801b0380821683526001600160401b03600160801b8304811684860152600160c01b90920490911682850152888552600383528385206001600160a01b0389168652909252918320825160028054949650919492169288908110610a2857610a286128e2565b6000918252602090912001546040516370a0823160e01b81523060048201526001600160a01b03909116906370a0823190602401602060405180830381865afa158015610a79573d6000803e3d6000fd5b505050506040513d601f19601f82011682018060405250810190610a9d91906128f8565b905083602001516001600160401b031643118015610aba57508015155b15610b50576000610ae185602001516001600160401b03164361188390919063ffffffff16565b90506000600454610b1b87604001516001600160401b0316610b1568056bc75e2d631000008661178f90919063ffffffff16565b9061178f565b610b2591906128c0565b9050610b4b83610b3a8364e8d4a5100061178f565b610b4491906128c0565b8590611a4e565b935050505b60018301548354610b80916109249164e8d4a5100090610b70908761178f565b610b7a91906128c0565b906117f6565b979650505050505050565b610b93611aa3565b610bd881610bd260018581548110610bad57610bad6128e2565b60009182526020909120015460045490600160c01b90046001600160401b0316611883565b90611a4e565b6004819055508060018381548110610bf257610bf26128e2565b9060005260206000200160000160186101000a8154816001600160401b0302191690836001600160401b03160217905550817f942cc7e17a17c164bd977f32ab8c54265d5b9d481e4e352bf874f1e568874e7c82604051610c5591815260200190565b60405180910390a25050565b6000908152600080516020612a8a833981519152602052604090206001015490565b610c8b611aa3565b6004544390610c9b908490612911565b60045560028054600181810183557f405787fa12a823e0f2b7631cc41b3ba8828b3321ca811111fa75cd3aa3bb5ace90910180546001600160a01b0386166001600160a01b031990911681179091556040805160608101825260008082526001600160401b03808816602084019081528a8216948401948552865480880188559287905292517fb10e2d527612073b26eecdfd717e6a320cf44b4afac2b0732d9fcbe2b7fa0cf69092018054935194518216600160c01b026001600160c01b0395909216600160801b026001600160c01b03199094166001600160801b03939093169290921792909217929092161790559154610d989190612924565b6040518581527f4710feb78e3bce8d2e3ca2989a8eb2f8bcd32a6a55b4535942c180fc4d2e29529060200160405180910390a3505050565b610dd982610c61565b610de281611afe565b610dec8383611b08565b50505050565b600082815260036020908152604080832033845290915281208054828255600182019290925560028054919291610e50919086908110610e3457610e346128e2565b6000918252602090912001546001600160a01b031684836118d9565b826001600160a01b031684336001600160a01b03167f2cac5e20e1541d836381527a43f651851e302817b71dc8e810284e69210c1c6b84604051610e9691815260200190565b60405180910390a450505050565b6001600160a01b0381163314610ecd5760405163334bd91960e11b815260040160405180910390fd5b610ed78282611b4d565b505050565b7ff0c57e16840df040f15088dc2f81fe391c3923bec73e23a9662efc9c229c6a008054600160401b810460ff1615906001600160401b0316600081158015610f215750825b90506000826001600160401b03166001148015610f3d5750303b155b905081158015610f4b575080155b15610f695760405163f92ee8a960e01b815260040160405180910390fd5b845467ffffffffffffffff191660011785558315610f9357845460ff60401b1916600160401b1785555b610f9c33611b89565b610fb4600080516020612a2a83398151915280611b9a565b610fda600080516020612a6a833981519152600080516020612a2a833981519152611b9a565b610ff2600080516020612a2a83398151915233611b08565b5061100b600080516020612a6a83398151915287611b08565b50600080546001600160a01b0319166001600160a01b038916179055831561106d57845460ff60401b19168555604051600181527fc7f505b2f371ae2175ee4913f4499e1f2633a7b5936321eed1cdaeb6115181d29060200160405180910390a15b50505050505050565b61107e611bfd565b61108782611ca2565b6110918282611cba565b5050565b6040805160608101825260008082526020820181905291810191909152600182815481106110c5576110c56128e2565b60009182526020918290206040805160608101825292909101546001600160801b03811683526001600160401b03600160801b82048116948401859052600160c01b9091041690820152915043111561131b5760006002838154811061112d5761112d6128e2565b6000918252602090912001546040516370a0823160e01b81523060048201526001600160a01b03909116906370a0823190602401602060405180830381865afa15801561117e573d6000803e3d6000fd5b505050506040513d601f19601f820116820180604052508101906111a291906128f8565b905080156112475760006111cc83602001516001600160401b03164361188390919063ffffffff16565b9050600060045461120085604001516001600160401b0316610b1568056bc75e2d631000008661178f90919063ffffffff16565b61120a91906128c0565b905060008361121e8364e8d4a5100061178f565b61122891906128c0565b8551909150611238908290612937565b6001600160801b031685525050505b6001600160401b0343166020830152600180548391908590811061126d5761126d6128e2565b6000918252602091829020835191018054848401516040958601516001600160401b03908116600160c01b026001600160c01b03928216600160801b026001600160c01b03199094166001600160801b039687161793909317919091169190911790915585830151865185519190921681529283018590521681830152905184917f0fc9545022a542541ad085d091fb09a2ab36fee366a4576ab63714ea907ad353919081900360600190a2505b919050565b600061132a611d77565b50600080516020612a4a83398151915290565b8060005b81811015610dec5761136a84848381811061135e5761135e6128e2565b90506020020135611095565b50600101611341565b61137b611aa3565b6113856000611dc0565b565b6002818154811061139757600080fd5b6000918252602090912001546001600160a01b0316905081565b60006113bc84611095565b60008581526003602090815260408083206001600160a01b038716845290915290208054919250906113ee9085611a4e565b815581516114269064e8d4a51000906114119087906001600160801b031661178f565b61141b91906128c0565b600183015490611e31565b816001018190555061146160028681548110611444576114446128e2565b6000918252602090912001546001600160a01b0316333087611ebc565b826001600160a01b031685336001600160a01b03167f02d7e648dd130fc184d383e55bb126ac4c9c60e8f94bf05acdf557ba2d540b478760405161086191815260200190565b6000828152600080516020612a0a8339815191526020819052604082206114ce9084611ffa565b949350505050565b6000918252600080516020612a8a833981519152602090815260408084206001600160a01b0393909316845291905290205460ff1690565b6000818152600080516020612a0a833981519152602081905260409091206060919061153990612006565b9392505050565b6000818152600080516020612a0a83398151915260208190526040822061153990612013565b600061157184611095565b6000858152600360209081526040808320338452909152812082518154939450909264e8d4a51000916115ad91906001600160801b031661178f565b6115b791906128c0565b905060006115d56109248460010154846117f690919063ffffffff16565b905061161164e8d4a5100061160086600001516001600160801b03168961178f90919063ffffffff16565b61160a91906128c0565b83906117f6565b600184015582546116229087611883565b835560005461163b906001600160a01b031686836118d9565b61166d60028881548110611651576116516128e2565b6000918252602090912001546001600160a01b031686886118d9565b846001600160a01b031687336001600160a01b03167f8166bf25f8a2b7ed3c85049207da4358d16edbed977d23fa2ee6f0dde3ec2132896040516116b391815260200190565b60405180910390a4604051818152879033907f71bab65ced2e5750775a0613be067df48ef06cf92a496ebf7663ae06609249549060200160405180910390a350505050505050565b61170482610c61565b61170d81611afe565b610dec8383611b4d565b61171f611aa3565b6001600160a01b03811661174e57604051631e4fbdf760e01b8152600060048201526024015b60405180910390fd5b61175781611dc0565b50565b60006001600160e01b03198216637965db0b60e01b148061076f57506301ffc9a760e01b6001600160e01b031983161461076f565b60008115806117b3575082826117a58183612956565b92506117b190836128c0565b145b61076f5760405162461bcd60e51b815260206004820152601460248201527364732d6d6174682d6d756c2d6f766572666c6f7760601b6044820152606401611745565b600080611803838561296d565b9050600083121580156118165750838113155b8061182b575060008312801561182b57508381135b6115395760405162461bcd60e51b8152602060048201526024808201527f5369676e6564536166654d6174683a207375627472616374696f6e206f766572604482015263666c6f7760e01b6064820152608401611745565b6000826118908382612924565b915081111561076f5760405162461bcd60e51b815260206004820152601560248201527464732d6d6174682d7375622d756e646572666c6f7760581b6044820152606401611745565b604080516001600160a01b038481166024830152604480830185905283518084039091018152606490920183526020820180516001600160e01b031663a9059cbb60e01b1790529151600092839290871691611935919061298d565b6000604051808303816000865af19150503d8060008114611972576040519150601f19603f3d011682016040523d82523d6000602084013e611977565b606091505b50915091508180156119a15750805115806119a15750808060200190518101906119a191906129a9565b611a035760405162461bcd60e51b815260206004820152602d60248201527f5472616e7366657248656c7065723a3a736166655472616e736665723a20747260448201526c185b9cd9995c8819985a5b1959609a1b6064820152608401611745565b5050505050565b600080821215611a4a5760405162461bcd60e51b815260206004820152600b60248201526a0496e7465676572203c20360ac1b6044820152606401611745565b5090565b600082611a5b8382612911565b915081101561076f5760405162461bcd60e51b815260206004820152601460248201527364732d6d6174682d6164642d6f766572666c6f7760601b6044820152606401611745565b33611ad57f9016d09d72d40fdae2fd8ceac6b6234c7706214fd39c1cd1e609a0528c199300546001600160a01b031690565b6001600160a01b0316146113855760405163118cdaa760e01b8152336004820152602401611745565b611757813361201d565b6000600080516020612a0a83398151915281611b248585612056565b905080156114ce576000858152602083905260409020611b449085612102565b50949350505050565b6000600080516020612a0a83398151915281611b698585612117565b905080156114ce576000858152602083905260409020611b449085612193565b611b916121a8565b611757816121f1565b600080516020612a8a8339815191526000611bb484610c61565b600085815260208490526040808220600101869055519192508491839187917fbd79b86ffe0ab8e8776151514217cd7cacd52c909f66475c3af44e129f0b00ff9190a450505050565b306001600160a01b037f0000000000000000000000000000000000000000000000000000000000000000161480611c8457507f00000000000000000000000000000000000000000000000000000000000000006001600160a01b0316611c78600080516020612a4a833981519152546001600160a01b031690565b6001600160a01b031614155b156113855760405163703e46dd60e11b815260040160405180910390fd5b600080516020612a6a83398151915261109181611afe565b816001600160a01b03166352d1902d6040518163ffffffff1660e01b8152600401602060405180830381865afa925050508015611d14575060408051601f3d908101601f19168201909252611d11918101906128f8565b60015b611d3c57604051634c9c8ce360e01b81526001600160a01b0383166004820152602401611745565b600080516020612a4a8339815191528114611d6d57604051632a87526960e21b815260048101829052602401611745565b610ed783836121f9565b306001600160a01b037f000000000000000000000000000000000000000000000000000000000000000016146113855760405163703e46dd60e11b815260040160405180910390fd5b7f9016d09d72d40fdae2fd8ceac6b6234c7706214fd39c1cd1e609a0528c19930080546001600160a01b031981166001600160a01b03848116918217845560405192169182907f8be0079c531659141344cd1fd0a4f28419497f9722a3daafe3b4186f6b6457e090600090a3505050565b600080611e3e83856129cb565b905060008312158015611e515750838112155b80611e665750600083128015611e6657508381125b6115395760405162461bcd60e51b815260206004820152602160248201527f5369676e6564536166654d6174683a206164646974696f6e206f766572666c6f6044820152607760f81b6064820152608401611745565b604080516001600160a01b0385811660248301528481166044830152606480830185905283518084039091018152608490920183526020820180516001600160e01b03166323b872dd60e01b1790529151600092839290881691611f20919061298d565b6000604051808303816000865af19150503d8060008114611f5d576040519150601f19603f3d011682016040523d82523d6000602084013e611f62565b606091505b5091509150818015611f8c575080511580611f8c575080806020019051810190611f8c91906129a9565b611ff25760405162461bcd60e51b815260206004820152603160248201527f5472616e7366657248656c7065723a3a7472616e7366657246726f6d3a207472604482015270185b9cd9995c919c9bdb4819985a5b1959607a1b6064820152608401611745565b505050505050565b6000611539838361224f565b6060600061153983612279565b600061076f825490565b61202782826114d6565b6110915760405163e2517d3f60e01b81526001600160a01b038216600482015260248101839052604401611745565b6000600080516020612a8a83398151915261207184846114d6565b6120f1576000848152602082815260408083206001600160a01b03871684529091529020805460ff191660011790556120a73390565b6001600160a01b0316836001600160a01b0316857f2f8788117e7eff1d82e926ec794901d17c78024a50270940304540a733656f0d60405160405180910390a4600191505061076f565b600091505061076f565b5092915050565b6000611539836001600160a01b0384166122d5565b6000600080516020612a8a83398151915261213284846114d6565b156120f1576000848152602082815260408083206001600160a01b0387168085529252808320805460ff1916905551339287917ff6391f5c32d9c69d2a47ea670b442974b53935d1edc7fd64eb21e047a839171b9190a4600191505061076f565b6000611539836001600160a01b038416612324565b7ff0c57e16840df040f15088dc2f81fe391c3923bec73e23a9662efc9c229c6a0054600160401b900460ff1661138557604051631afcd79f60e31b815260040160405180910390fd5b61171f6121a8565b6122028261240d565b6040516001600160a01b038316907fbc7cd75a20ee27fd9adebab32041f755214dbc6bffa90cc0225b39da2e5c2d3b90600090a280511561224757610ed78282612472565b6110916124e8565b6000826000018281548110612266576122666128e2565b9060005260206000200154905092915050565b6060816000018054806020026020016040519081016040528092919081815260200182805480156122c957602002820191906000526020600020905b8154815260200190600101908083116122b5575b50505050509050919050565b600081815260018301602052604081205461231c5750815460018181018455600084815260208082209093018490558454848252828601909352604090209190915561076f565b50600061076f565b600081815260018301602052604081205480156120f1576000612348600183612924565b855490915060009061235c90600190612924565b90508082146123c157600086600001828154811061237c5761237c6128e2565b906000526020600020015490508087600001848154811061239f5761239f6128e2565b6000918252602080832090910192909255918252600188019052604090208390555b85548690806123d2576123d26129f3565b60019003818190600052602060002001600090559055856001016000868152602001908152602001600020600090556001935050505061076f565b806001600160a01b03163b60000361244357604051634c9c8ce360e01b81526001600160a01b0382166004820152602401611745565b600080516020612a4a83398151915280546001600160a01b0319166001600160a01b0392909216919091179055565b6060600080846001600160a01b03168460405161248f919061298d565b600060405180830381855af49150503d80600081146124ca576040519150601f19603f3d011682016040523d82523d6000602084013e6124cf565b606091505b50915091506124df858383612507565b95945050505050565b34156113855760405163b398979f60e01b815260040160405180910390fd5b60608261251c576125178261255c565b611539565b815115801561253357506001600160a01b0384163b155b156120fb57604051639996b31560e01b81526001600160a01b0385166004820152602401611745565b80511561256c5780518082602001fd5b60405163d6bda27560e01b815260040160405180910390fd5b60006020828403121561259757600080fd5b81356001600160e01b03198116811461153957600080fd5b6001600160a01b038116811461175757600080fd5b6000806000606084860312156125d957600080fd5b833592506020840135915060408401356125f2816125af565b809150509250925092565b60006020828403121561260f57600080fd5b5035919050565b6000806040838503121561262957600080fd5b82359150602083013561263b816125af565b809150509250929050565b6000806040838503121561265957600080fd5b50508035926020909101359150565b6000806040838503121561267b57600080fd5b8235612686816125af565b9150602083013561263b816125af565b634e487b7160e01b600052604160045260246000fd5b600080604083850312156126bf57600080fd5b82356126ca816125af565b915060208301356001600160401b038111156126e557600080fd5b8301601f810185136126f657600080fd5b80356001600160401b0381111561270f5761270f612696565b604051601f8201601f19908116603f011681016001600160401b038111828210171561273d5761273d612696565b60405281815282820160200187101561275557600080fd5b816020840160208301376000602083830101528093505050509250929050565b6000806020838503121561278857600080fd5b82356001600160401b0381111561279e57600080fd5b8301601f810185136127af57600080fd5b80356001600160401b038111156127c557600080fd5b8560208260051b84010111156127da57600080fd5b6020919091019590945092505050565b602080825282518282018190526000918401906040840190835b8181101561282b5783516001600160a01b0316835260209384019390920191600101612804565b509095945050505050565b60005b83811015612851578181015183820152602001612839565b50506000910152565b6020815260008251806020840152612879816040850160208701612836565b601f01601f19169190910160400192915050565b60006020828403121561289f57600080fd5b8135611539816125af565b634e487b7160e01b600052601160045260246000fd5b6000826128dd57634e487b7160e01b600052601260045260246000fd5b500490565b634e487b7160e01b600052603260045260246000fd5b60006020828403121561290a57600080fd5b5051919050565b8082018082111561076f5761076f6128aa565b8181038181111561076f5761076f6128aa565b6001600160801b03818116838216019081111561076f5761076f6128aa565b808202811582820484141761076f5761076f6128aa565b81810360008312801583831316838312821617156120fb576120fb6128aa565b6000825161299f818460208701612836565b9190910192915050565b6000602082840312156129bb57600080fd5b8151801515811461153957600080fd5b80820182811260008312801582168215821617156129eb576129eb6128aa565b505092915050565b634e487b7160e01b600052603160045260246000fdfec1f6fe24621ce81ec5827caf0253cadb74709b061630e6b55e8237170593200092fca2a051a1d56e4386f5a3c5a80faf206d9ce7724a6a05dadc11b8db569de0360894a13ba1a3210667c828492db98dca3e2076cc3735a920a3ca505d382bbcd4e3e506ca1d83d61cce51f23629bed4554bc706a090148511170d317cdcb69c02dd7bc7dec4dceedda775e58dd541e08a116c6c53815c0bd028192f7b626800a2646970667358221220839a82f30fc6249173aca4efbe02bf921f731971c606ce09665f5191745b1b9f64736f6c634300081a0033","linkReferences":{}},"methodIdentifiers":{"AdminRole()":"8910e1ed","DEFAULT_ADMIN_ROLE()":"a217fddf","SUSHI()":"ab560e10","UPGRADE_INTERFACE_VERSION()":"ad3cb1cc","UpdateRole()":"a86527fe","add(uint256,address)":"2b8bbbe8","deposit(uint256,uint256,address)":"8dbdbe6d","emergencyWithdraw(uint256,address)":"2f940c70","getRoleAdmin(bytes32)":"248a9ca3","getRoleMember(bytes32,uint256)":"9010d07c","getRoleMemberCount(bytes32)":"ca15c873","getRoleMembers(bytes32)":"a3246ad3","grantRole(bytes32,address)":"2f2ff15d","harvest(uint256,address)":"18fccc76","hasRole(bytes32,address)":"91d14854","initilize(address,address)":"4aed2c9a","lpToken(uint256)":"78ed5d1f","massUpdatePools(uint256[])":"57a5b58c","owner()":"8da5cb5b","pendingSushi(uint256,address)":"195426ec","poolInfo(uint256)":"1526fe27","poolLength()":"081e3eda","proxiableUUID()":"52d1902d","renounceOwnership()":"715018a6","renounceRole(bytes32,address)":"36568abe","revokeRole(bytes32,address)":"d547741f","set(uint256,uint256)":"1ab06ee5","supportsInterface(bytes4)":"01ffc9a7","totalAllocPoint()":"17caf6f1","transferOwnership(address)":"f2fde38b","updatePool(uint256)":"51eb05a6","upgradeToAndCall(address,bytes)":"4f1ef286","userInfo(uint256,address)":"93f1a40b","withdraw(uint256,uint256,address)":"0ad58d2f","withdrawAndHarvest(uint256,uint256,address)":"d1abb907"},"id":2}