{"abi":[{"type":"constructor","inputs":[{"name":"storageContract","type":"address","internalType":"address"}],"stateMutability":"nonpayable"},{"type":"function","name":"DEFAULT_ADMIN_ROLE","inputs":[],"outputs":[{"name":"","type":"bytes32","internalType":"bytes32"}],"stateMutability":"view"},{"type":"function","name":"add","inputs":[{"name":"allocPoint","type":"uint256","internalType":"uint256"},{"name":"_lpToken","type":"address","internalType":"contract IERC20"}],"outputs":[],"stateMutability":"nonpayable"},{"type":"function","name":"deposit","inputs":[{"name":"pid","type":"uint256","internalType":"uint256"},{"name":"amount","type":"uint256","internalType":"uint256"},{"name":"to","type":"address","internalType":"address"}],"outputs":[],"stateMutability":"nonpayable"},{"type":"function","name":"emergencyWithdraw","inputs":[{"name":"pid","type":"uint256","internalType":"uint256"},{"name":"to","type":"address","internalType":"address"}],"outputs":[],"stateMutability":"nonpayable"},{"type":"function","name":"getRoleAdmin","inputs":[{"name":"role","type":"bytes32","internalType":"bytes32"}],"outputs":[{"name":"","type":"bytes32","internalType":"bytes32"}],"stateMutability":"view"},{"type":"function","name":"getRoleMember","inputs":[{"name":"role","type":"bytes32","internalType":"bytes32"},{"name":"index","type":"uint256","internalType":"uint256"}],"outputs":[{"name":"","type":"address","internalType":"address"}],"stateMutability":"view"},{"type":"function","name":"getRoleMemberCount","inputs":[{"name":"role","type":"bytes32","internalType":"bytes32"}],"outputs":[{"name":"","type":"uint256","internalType":"uint256"}],"stateMutability":"view"},{"type":"function","name":"getRoleMembers","inputs":[{"name":"role","type":"bytes32","internalType":"bytes32"}],"outputs":[{"name":"","type":"address[]","internalType":"address[]"}],"stateMutability":"view"},{"type":"function","name":"grantRole","inputs":[{"name":"role","type":"bytes32","internalType":"bytes32"},{"name":"account","type":"address","internalType":"address"}],"outputs":[],"stateMutability":"nonpayable"},{"type":"function","name":"harvest","inputs":[{"name":"pid","type":"uint256","internalType":"uint256"},{"name":"to","type":"address","internalType":"address"}],"outputs":[],"stateMutability":"nonpayable"},{"type":"function","name":"hasRole","inputs":[{"name":"role","type":"bytes32","internalType":"bytes32"},{"name":"account","type":"address","internalType":"address"}],"outputs":[{"name":"","type":"bool","internalType":"bool"}],"stateMutability":"view"},{"type":"function","name":"initilize","inputs":[{"name":"_sushi","type":"address","internalType":"address"},{"name":"_updateroler","type":"address","internalType":"address"}],"outputs":[],"stateMutability":"nonpayable"},{"type":"function","name":"massUpdatePools","inputs":[{"name":"pids","type":"uint256[]","internalType":"uint256[]"}],"outputs":[],"stateMutability":"nonpayable"},{"type":"function","name":"owner","inputs":[],"outputs":[{"name":"","type":"address","internalType":"address"}],"stateMutability":"view"},{"type":"function","name":"pendingSushi","inputs":[{"name":"_pid","type":"uint256","internalType":"uint256"},{"name":"_user","type":"address","internalType":"address"}],"outputs":[{"name":"pending","type":"uint256","internalType":"uint256"}],"stateMutability":"view"},{"type":"function","name":"renounceOwnership","inputs":[],"outputs":[],"stateMutability":"nonpayable"},{"type":"function","name":"renounceRole","inputs":[{"name":"role","type":"bytes32","internalType":"bytes32"},{"name":"callerConfirmation","type":"address","internalType":"address"}],"outputs":[],"stateMutability":"nonpayable"},{"type":"function","name":"revokeRole","inputs":[{"name":"role","type":"bytes32","internalType":"bytes32"},{"name":"account","type":"address","internalType":"address"}],"outputs":[],"stateMutability":"nonpayable"},{"type":"function","name":"set","inputs":[{"name":"_pid","type":"uint256","internalType":"uint256"},{"name":"_allocPoint","type":"uint256","internalType":"uint256"}],"outputs":[],"stateMutability":"nonpayable"},{"type":"function","name":"supportsInterface","inputs":[{"name":"interfaceId","type":"bytes4","internalType":"bytes4"}],"outputs":[{"name":"","type":"bool","internalType":"bool"}],"stateMutability":"view"},{"type":"function","name":"transferOwnership","inputs":[{"name":"newOwner","type":"address","internalType":"address"}],"outputs":[],"stateMutability":"nonpayable"},{"type":"function","name":"updatePool","inputs":[{"name":"pid","type":"uint256","internalType":"uint256"}],"outputs":[{"name":"pool","type":"tuple","internalType":"struct MasterChefStorage.PoolInfo","components":[{"name":"accSushiPerShare","type":"uint128","internalType":"uint128"},{"name":"lastRewardBlock","type":"uint64","internalType":"uint64"},{"name":"allocPoint","type":"uint64","internalType":"uint64"}]}],"stateMutability":"nonpayable"},{"type":"function","name":"withdraw","inputs":[{"name":"pid","type":"uint256","internalType":"uint256"},{"name":"amount","type":"uint256","internalType":"uint256"},{"name":"to","type":"address","internalType":"address"}],"outputs":[],"stateMutability":"nonpayable"},{"type":"function","name":"withdrawAndHarvest","inputs":[{"name":"pid","type":"uint256","internalType":"uint256"},{"name":"amount","type":"uint256","internalType":"uint256"},{"name":"to","type":"address","internalType":"address"}],"outputs":[],"stateMutability":"nonpayable"},{"type":"event","name":"Deposit","inputs":[{"name":"user","type":"address","indexed":true,"internalType":"address"},{"name":"pid","type":"uint256","indexed":true,"internalType":"uint256"},{"name":"amount","type":"uint256","indexed":false,"internalType":"uint256"},{"name":"to","type":"address","indexed":true,"internalType":"address"}],"anonymous":false},{"type":"event","name":"EmergencyWithdraw","inputs":[{"name":"user","type":"address","indexed":true,"internalType":"address"},{"name":"pid","type":"uint256","indexed":true,"internalType":"uint256"},{"name":"amount","type":"uint256","indexed":false,"internalType":"uint256"},{"name":"to","type":"address","indexed":true,"internalType":"address"}],"anonymous":false},{"type":"event","name":"Harvest","inputs":[{"name":"user","type":"address","indexed":true,"internalType":"address"},{"name":"pid","type":"uint256","indexed":true,"internalType":"uint256"},{"name":"amount","type":"uint256","indexed":false,"internalType":"uint256"}],"anonymous":false},{"type":"event","name":"Initialized","inputs":[{"name":"version","type":"uint64","indexed":false,"internalType":"uint64"}],"anonymous":false},{"type":"event","name":"LogInit","inputs":[],"anonymous":false},{"type":"event","name":"LogPoolAddition","inputs":[{"name":"pid","type":"uint256","indexed":true,"internalType":"uint256"},{"name":"allocPoint","type":"uint256","indexed":false,"internalType":"uint256"},{"name":"lpToken","type":"address","indexed":true,"internalType":"contract IERC20"}],"anonymous":false},{"type":"event","name":"LogSetPool","inputs":[{"name":"pid","type":"uint256","indexed":true,"internalType":"uint256"},{"name":"allocPoint","type":"uint256","indexed":false,"internalType":"uint256"}],"anonymous":false},{"type":"event","name":"LogUpdatePool","inputs":[{"name":"pid","type":"uint256","indexed":true,"internalType":"uint256"},{"name":"lastRewardBlock","type":"uint64","indexed":false,"internalType":"uint64"},{"name":"lpSupply","type":"uint256","indexed":false,"internalType":"uint256"},{"name":"accSushiPerShare","type":"uint256","indexed":false,"internalType":"uint256"}],"anonymous":false},{"type":"event","name":"OwnershipTransferred","inputs":[{"name":"previousOwner","type":"address","indexed":true,"internalType":"address"},{"name":"newOwner","type":"address","indexed":true,"internalType":"address"}],"anonymous":false},{"type":"event","name":"RoleAdminChanged","inputs":[{"name":"role","type":"bytes32","indexed":true,"internalType":"bytes32"},{"name":"previousAdminRole","type":"bytes32","indexed":true,"internalType":"bytes32"},{"name":"newAdminRole","type":"bytes32","indexed":true,"internalType":"bytes32"}],"anonymous":false},{"type":"event","name":"RoleGranted","inputs":[{"name":"role","type":"bytes32","indexed":true,"internalType":"bytes32"},{"name":"account","type":"address","indexed":true,"internalType":"address"},{"name":"sender","type":"address","indexed":true,"internalType":"address"}],"anonymous":false},{"type":"event","name":"RoleRevoked","inputs":[{"name":"role","type":"bytes32","indexed":true,"internalType":"bytes32"},{"name":"account","type":"address","indexed":true,"internalType":"address"},{"name":"sender","type":"address","indexed":true,"internalType":"address"}],"anonymous":false},{"type":"event","name":"Withdraw","inputs":[{"name":"user","type":"address","indexed":true,"internalType":"address"},{"name":"pid","type":"uint256","indexed":true,"internalType":"uint256"},{"name":"amount","type":"uint256","indexed":false,"internalType":"uint256"},{"name":"to","type":"address","indexed":true,"internalType":"address"}],"anonymous":false},{"type":"error","name":"AccessControlBadConfirmation","inputs":[]},{"type":"error","name":"AccessControlUnauthorizedAccount","inputs":[{"name":"account","type":"address","internalType":"address"},{"name":"neededRole","type":"bytes32","internalType":"bytes32"}]},{"type":"error","name":"InvalidInitialization","inputs":[]},{"type":"error","name":"NotInitializing","inputs":[]},{"type":"error","name":"OwnableInvalidOwner","inputs":[{"name":"owner","type":"address","internalType":"address"}]},{"type":"error","name":"OwnableUnauthorizedAccount","inputs":[{"name":"account","type":"address","internalType":"address"}]}],"bytecode":{"object":"0x6080604052348015600f57600080fd5b5060405161304e38038061304e833981016040819052602c916050565b600080546001600160a01b0319166001600160a01b0392909216919091179055607e565b600060208284031215606157600080fd5b81516001600160a01b0381168114607757600080fd5b9392505050565b612fc18061008d6000396000f3fe608060405234801561001057600080fd5b50600436106101585760003560e01c806357a5b58c116100c3578063a217fddf1161007c578063a217fddf1461033a578063a3246ad314610342578063ca15c87314610362578063d1abb90714610375578063d547741f14610388578063f2fde38b1461039b57600080fd5b806357a5b58c146102a2578063715018a6146102b55780638da5cb5b146102bd5780638dbdbe6d146103015780639010d07c1461031457806391d148541461032757600080fd5b80632b8bbbe8116101155780632b8bbbe8146101f45780632f2ff15d146102075780632f940c701461021a57806336568abe1461022d5780634aed2c9a1461024057806351eb05a61461025357600080fd5b806301ffc9a71461015d5780630ad58d2f1461018557806318fccc761461019a578063195426ec146101ad5780631ab06ee5146101ce578063248a9ca3146101e1575b600080fd5b61017061016b366004612aa8565b6103ae565b60405190151581526020015b60405180910390f35b610198610193366004612ae7565b6103d9565b005b6101986101a8366004612b20565b61064d565b6101c06101bb366004612b20565b6108bb565b60405190815260200161017c565b6101986101dc366004612b50565b610d20565b6101c06101ef366004612b72565b610f4f565b610198610202366004612b20565b610f71565b610198610215366004612b20565b6111e2565b610198610228366004612b20565b611204565b61019861023b366004612b20565b6113ba565b61019861024e366004612b8b565b6113f2565b610266610261366004612b72565b611557565b6040805182516001600160801b031681526020808401516001600160401b0390811691830191909152928201519092169082015260600161017c565b6101986102b0366004612bb9565b61195b565b610198611991565b7f9016d09d72d40fdae2fd8ceac6b6234c7706214fd39c1cd1e609a0528c199300546001600160a01b03165b6040516001600160a01b03909116815260200161017c565b61019861030f366004612ae7565b6119a5565b6102e9610322366004612b50565b611bfe565b610170610335366004612b20565b611c2d565b6101c0600081565b610355610350366004612b72565b611c65565b60405161017c9190612c2e565b6101c0610370366004612b72565b611c97565b610198610383366004612ae7565b611cbd565b610198610396366004612b20565b612070565b6101986103a9366004612c7a565b61208c565b60006001600160e01b03198216635a05180f60e01b14806103d357506103d3826120cf565b92915050565b60006103e484611557565b600080546040516348c6ab9760e11b81526004810188905233602482015292935090916001600160a01b039091169063918d572e906044016040805180830381865afa158015610438573d6000803e3d6000fd5b505050506040513d601f19601f8201168201806040525081019061045c9190612c97565b905061050160008054906101000a90046001600160a01b03166001600160a01b031663146539ca6040518163ffffffff1660e01b8152600401602060405180830381865afa1580156104b2573d6000803e3d6000fd5b505050506040513d601f19601f820116820180604052508101906104d69190612cf7565b83516104ec9087906001600160801b0316612104565b6104f69190612d26565b60208301519061216b565b6020820152805161051290856121f8565b8082526000546020830151604051621b56d160e41b81526001600160a01b03909216926301b56d109261054e928a923392909190600401612d48565b600060405180830381600087803b15801561056857600080fd5b505af115801561057c573d6000803e3d6000fd5b505060005460405163878db06160e01b8152600481018990526105f893506001600160a01b03909116915063878db06190602401602060405180830381865afa1580156105cd573d6000803e3d6000fd5b505050506040513d601f19601f820116820180604052508101906105f19190612d6c565b848661224e565b826001600160a01b031685336001600160a01b03167f8166bf25f8a2b7ed3c85049207da4358d16edbed977d23fa2ee6f0dde3ec21328760405161063e91815260200190565b60405180910390a45050505050565b600061065883611557565b600080546040516348c6ab9760e11b81526004810187905233602482015292935090916001600160a01b039091169063918d572e906044016040805180830381865afa1580156106ac573d6000803e3d6000fd5b505050506040513d601f19601f820116820180604052508101906106d09190612c97565b905060008060009054906101000a90046001600160a01b03166001600160a01b031663146539ca6040518163ffffffff1660e01b8152600401602060405180830381865afa158015610726573d6000803e3d6000fd5b505050506040513d601f19601f8201168201806040525081019061074a9190612cf7565b83518351610760916001600160801b0316612104565b61076a9190612d26565b9050600061078d61078884602001518461216b90919063ffffffff16565b61237f565b602084018390526000548451604051621b56d160e41b81529293506001600160a01b03909116916301b56d10916107cc918a9133918890600401612d48565b600060405180830381600087803b1580156107e657600080fd5b505af11580156107fa573d6000803e3d6000fd5b505050508060001461087c576000546040805163384c315360e21b8152905161087c926001600160a01b03169163e130c54c9160048083019260209291908290030181865afa158015610851573d6000803e3d6000fd5b505050506040513d601f19601f820116820180604052508101906108759190612d6c565b868361224e565b604051818152869033907f71bab65ced2e5750775a0613be067df48ef06cf92a496ebf7663ae06609249549060200160405180910390a3505050505050565b60008054604051636f7a246560e11b81526004810185905282916001600160a01b03169063def448ca90602401606060405180830381865afa158015610905573d6000803e3d6000fd5b505050506040513d601f19601f820116820180604052508101906109299190612da0565b600080546040516348c6ab9760e11b8152600481018890526001600160a01b0387811660248301529394509192169063918d572e906044016040805180830381865afa15801561097d573d6000803e3d6000fd5b505050506040513d601f19601f820116820180604052508101906109a19190612c97565b82516000805460405163878db06160e01b8152600481018a90529394506001600160801b039092169290916001600160a01b03169063878db06190602401602060405180830381865afa1580156109fc573d6000803e3d6000fd5b505050506040513d601f19601f82011682018060405250810190610a209190612d6c565b6040516370a0823160e01b81523060048201526001600160a01b0391909116906370a0823190602401602060405180830381865afa158015610a66573d6000803e3d6000fd5b505050506040513d601f19601f82011682018060405250810190610a8a9190612cf7565b905083602001516001600160401b031643118015610aa757508015155b15610c83576000610ace85602001516001600160401b0316436121f890919063ffffffff16565b905060008060009054906101000a90046001600160a01b03166001600160a01b0316633a58b91a6040518163ffffffff1660e01b8152600401602060405180830381865afa158015610b24573d6000803e3d6000fd5b505050506040513d601f19601f82011682018060405250810190610b489190612cf7565b610bde87604001516001600160401b0316610bd860008054906101000a90046001600160a01b03166001600160a01b03166387c361a56040518163ffffffff1660e01b8152600401602060405180830381865afa158015610bad573d6000803e3d6000fd5b505050506040513d601f19601f82011682018060405250810190610bd19190612cf7565b8690612104565b90612104565b610be89190612d26565b9050610c7e83610c6d60008054906101000a90046001600160a01b03166001600160a01b031663146539ca6040518163ffffffff1660e01b8152600401602060405180830381865afa158015610c42573d6000803e3d6000fd5b505050506040513d601f19601f82011682018060405250810190610c669190612cf7565b8490612104565b610c779190612d26565b85906123c3565b935050505b60208084015160005460408051630a329ce560e11b81529051610d159461078894936001600160a01b03169263146539ca92600480830193928290030181865afa158015610cd5573d6000803e3d6000fd5b505050506040513d601f19601f82011682018060405250810190610cf99190612cf7565b8651610d059087612104565b610d0f9190612d26565b9061216b565b979650505050505050565b610d28612418565b60008054604051636f7a246560e11b8152600481018590526001600160a01b039091169063def448ca90602401606060405180830381865afa158015610d72573d6000803e3d6000fd5b505050506040513d601f19601f82011682018060405250810190610d969190612da0565b6000546040808301518151631d2c5c8d60e11b815291519394506001600160a01b039092169263ca8e6c039286926001600160401b03909116918591633a58b91a9160048083019260209291908290030181865afa158015610dfc573d6000803e3d6000fd5b505050506040513d601f19601f82011682018060405250810190610e209190612cf7565b610e2a9190612e2a565b610e349190612e3d565b6040518263ffffffff1660e01b8152600401610e5291815260200190565b600060405180830381600087803b158015610e6c57600080fd5b505af1158015610e80573d6000803e3d6000fd5b50506000548351602085015160405163954d671b60e01b8152600481018990526001600160801b0390921660248301526001600160401b039081166044830152861660648201526001600160a01b03909116925063954d671b9150608401600060405180830381600087803b158015610ef857600080fd5b505af1158015610f0c573d6000803e3d6000fd5b50505050827f942cc7e17a17c164bd977f32ab8c54265d5b9d481e4e352bf874f1e568874e7c83604051610f4291815260200190565b60405180910390a2505050565b6000908152600080516020612f6c833981519152602052604090206001015490565b610f79612418565b6000805460408051631d2c5c8d60e11b815290514393926001600160a01b031691633a58b91a9160048083019260209291908290030181865afa158015610fc4573d6000803e3d6000fd5b505050506040513d601f19601f82011682018060405250810190610fe89190612cf7565b6000549091506001600160a01b031663ca8e6c036110068684612e3d565b6040518263ffffffff1660e01b815260040161102491815260200190565b600060405180830381600087803b15801561103e57600080fd5b505af1158015611052573d6000803e3d6000fd5b50506000546040516375fdcc3160e01b81526001600160a01b03878116600483015290911692506375fdcc319150602401600060405180830381600087803b15801561109d57600080fd5b505af11580156110b1573d6000803e3d6000fd5b50506000805460405163042ee34960e51b81526001600160401b03808a1660048301528716602482015260448101929092526001600160a01b031692506385dc69209150606401600060405180830381600087803b15801561111257600080fd5b505af1158015611126573d6000803e3d6000fd5b50505050826001600160a01b031660008054906101000a90046001600160a01b03166001600160a01b03166373b001d96040518163ffffffff1660e01b8152600401602060405180830381865afa158015611185573d6000803e3d6000fd5b505050506040513d601f19601f820116820180604052508101906111a99190612cf7565b6040518681527f4710feb78e3bce8d2e3ca2989a8eb2f8bcd32a6a55b4535942c180fc4d2e29529060200160405180910390a350505050565b6111eb82610f4f565b6111f481612473565b6111fe838361247d565b50505050565b600080546040516348c6ab9760e11b8152600481018590523360248201526001600160a01b039091169063918d572e906044016040805180830381865afa158015611253573d6000803e3d6000fd5b505050506040513d601f19601f820116820180604052508101906112779190612c97565b80516000808352602083018190528054604051621b56d160e41b815293945091926001600160a01b03909216916301b56d10916112bc91889133918190600401612d48565b600060405180830381600087803b1580156112d657600080fd5b505af11580156112ea573d6000803e3d6000fd5b505060005460405163878db06160e01b81526004810188905261136693506001600160a01b03909116915063878db06190602401602060405180830381865afa15801561133b573d6000803e3d6000fd5b505050506040513d601f19601f8201168201806040525081019061135f9190612d6c565b848361224e565b826001600160a01b031684336001600160a01b03167f2cac5e20e1541d836381527a43f651851e302817b71dc8e810284e69210c1c6b846040516113ac91815260200190565b60405180910390a450505050565b6001600160a01b03811633146113e35760405163334bd91960e11b815260040160405180910390fd5b6113ed82826124c2565b505050565b7ff0c57e16840df040f15088dc2f81fe391c3923bec73e23a9662efc9c229c6a008054600160401b810460ff1615906001600160401b03166000811580156114375750825b90506000826001600160401b031660011480156114535750303b155b905081158015611461575080155b1561147f5760405163f92ee8a960e01b815260040160405180910390fd5b845467ffffffffffffffff1916600117855583156114a957845460ff60401b1916600160401b1785555b60005460405163797668d760e11b81526001600160a01b0389811660048301529091169063f2ecd1ae90602401600060405180830381600087803b1580156114f057600080fd5b505af1158015611504573d6000803e3d6000fd5b50505050831561154e57845460ff60401b19168555604051600181527fc7f505b2f371ae2175ee4913f4499e1f2633a7b5936321eed1cdaeb6115181d29060200160405180910390a15b50505050505050565b60408051606081018252600080825260208201819052818301819052549151636f7a246560e11b81526004810184905290916001600160a01b03169063def448ca90602401606060405180830381865afa1580156115b9573d6000803e3d6000fd5b505050506040513d601f19601f820116820180604052508101906115dd9190612da0565b905080602001516001600160401b0316431115611956576000805460405163878db06160e01b8152600481018590526001600160a01b039091169063878db06190602401602060405180830381865afa15801561163e573d6000803e3d6000fd5b505050506040513d601f19601f820116820180604052508101906116629190612d6c565b6040516370a0823160e01b81523060048201526001600160a01b0391909116906370a0823190602401602060405180830381865afa1580156116a8573d6000803e3d6000fd5b505050506040513d601f19601f820116820180604052508101906116cc9190612cf7565b905080156118615760006116f683602001516001600160401b0316436121f890919063ffffffff16565b905060008060009054906101000a90046001600160a01b03166001600160a01b0316633a58b91a6040518163ffffffff1660e01b8152600401602060405180830381865afa15801561174c573d6000803e3d6000fd5b505050506040513d601f19601f820116820180604052508101906117709190612cf7565b6117d585604001516001600160401b0316610bd860008054906101000a90046001600160a01b03166001600160a01b03166387c361a56040518163ffffffff1660e01b8152600401602060405180830381865afa158015610bad573d6000803e3d6000fd5b6117df9190612d26565b905060008361183860008054906101000a90046001600160a01b03166001600160a01b031663146539ca6040518163ffffffff1660e01b8152600401602060405180830381865afa158015610c42573d6000803e3d6000fd5b6118429190612d26565b8551909150611852908290612e50565b6001600160801b031685525050505b6001600160401b03438116602084018190526000548451604080870151905163954d671b60e01b8152600481018990526001600160801b03909216602483015260448201939093529190921660648201526001600160a01b039091169063954d671b90608401600060405180830381600087803b1580156118e157600080fd5b505af11580156118f5573d6000803e3d6000fd5b505050506020828101518351604080516001600160401b0390931683529282018490526001600160801b031681830152905184917f0fc9545022a542541ad085d091fb09a2ab36fee366a4576ab63714ea907ad353919081900360600190a2505b919050565b8060005b818110156111fe5761198884848381811061197c5761197c612e6f565b90506020020135611557565b5060010161195f565b611999612418565b6119a360006124fe565b565b60006119b084611557565b600080546040516348c6ab9760e11b8152600481018890526001600160a01b0386811660248301529394509192169063918d572e906044016040805180830381865afa158015611a04573d6000803e3d6000fd5b505050506040513d601f19601f82011682018060405250810190611a289190612c97565b8051909150611a3790856123c3565b815260005460408051630a329ce560e11b81529051611ad3926001600160a01b03169163146539ca9160048083019260209291908290030181865afa158015611a84573d6000803e3d6000fd5b505050506040513d601f19601f82011682018060405250810190611aa89190612cf7565b8351611abe9087906001600160801b0316612104565b611ac89190612d26565b60208301519061256f565b602082018190526000548251604051621b56d160e41b81526001600160a01b03909216926301b56d1092611b0d928a928992600401612d48565b600060405180830381600087803b158015611b2757600080fd5b505af1158015611b3b573d6000803e3d6000fd5b505060005460405163878db06160e01b815260048101899052611bb893506001600160a01b03909116915063878db06190602401602060405180830381865afa158015611b8c573d6000803e3d6000fd5b505050506040513d601f19601f82011682018060405250810190611bb09190612d6c565b3330876125fa565b826001600160a01b031685336001600160a01b03167f02d7e648dd130fc184d383e55bb126ac4c9c60e8f94bf05acdf557ba2d540b478760405161063e91815260200190565b6000828152600080516020612f4c833981519152602081905260408220611c259084612738565b949350505050565b6000918252600080516020612f6c833981519152602090815260408084206001600160a01b0393909316845291905290205460ff1690565b6000818152600080516020612f4c8339815191526020819052604090912060609190611c9090612744565b9392505050565b6000818152600080516020612f4c833981519152602081905260408220611c9090612751565b6000611cc884611557565b600080546040516348c6ab9760e11b81526004810188905233602482015292935090916001600160a01b039091169063918d572e906044016040805180830381865afa158015611d1c573d6000803e3d6000fd5b505050506040513d601f19601f82011682018060405250810190611d409190612c97565b905060008060009054906101000a90046001600160a01b03166001600160a01b031663146539ca6040518163ffffffff1660e01b8152600401602060405180830381865afa158015611d96573d6000803e3d6000fd5b505050506040513d601f19601f82011682018060405250810190611dba9190612cf7565b83518351611dd0916001600160801b0316612104565b611dda9190612d26565b90506000611df861078884602001518461216b90919063ffffffff16565b9050611e9960008054906101000a90046001600160a01b03166001600160a01b031663146539ca6040518163ffffffff1660e01b8152600401602060405180830381865afa158015611e4e573d6000803e3d6000fd5b505050506040513d601f19601f82011682018060405250810190611e729190612cf7565b8551611e889089906001600160801b0316612104565b611e929190612d26565b839061216b565b60208401528251611eaa90876121f8565b8084526000546020850151604051621b56d160e41b81526001600160a01b03909216926301b56d1092611ee6928c923392909190600401612d48565b600060405180830381600087803b158015611f0057600080fd5b505af1158015611f14573d6000803e3d6000fd5b50505050611f6c60008054906101000a90046001600160a01b03166001600160a01b031663e130c54c6040518163ffffffff1660e01b8152600401602060405180830381865afa158015610851573d6000803e3d6000fd5b60005460405163878db06160e01b815260048101899052611fe2916001600160a01b03169063878db06190602401602060405180830381865afa158015611fb7573d6000803e3d6000fd5b505050506040513d601f19601f82011682018060405250810190611fdb9190612d6c565b868861224e565b846001600160a01b031687336001600160a01b03167f8166bf25f8a2b7ed3c85049207da4358d16edbed977d23fa2ee6f0dde3ec21328960405161202891815260200190565b60405180910390a4604051818152879033907f71bab65ced2e5750775a0613be067df48ef06cf92a496ebf7663ae06609249549060200160405180910390a350505050505050565b61207982610f4f565b61208281612473565b6111fe83836124c2565b612094612418565b6001600160a01b0381166120c357604051631e4fbdf760e01b8152600060048201526024015b60405180910390fd5b6120cc816124fe565b50565b60006001600160e01b03198216637965db0b60e01b14806103d357506301ffc9a760e01b6001600160e01b03198316146103d3565b60008115806121285750828261211a8183612e85565b92506121269083612d26565b145b6103d35760405162461bcd60e51b815260206004820152601460248201527364732d6d6174682d6d756c2d6f766572666c6f7760601b60448201526064016120ba565b6000806121788385612e9c565b90506000831215801561218b5750838113155b806121a057506000831280156121a057508381135b611c905760405162461bcd60e51b8152602060048201526024808201527f5369676e6564536166654d6174683a207375627472616374696f6e206f766572604482015263666c6f7760e01b60648201526084016120ba565b6000826122058382612e2a565b91508111156103d35760405162461bcd60e51b815260206004820152601560248201527464732d6d6174682d7375622d756e646572666c6f7760581b60448201526064016120ba565b604080516001600160a01b038481166024830152604480830185905283518084039091018152606490920183526020820180516001600160e01b031663a9059cbb60e01b17905291516000928392908716916122aa9190612ebc565b6000604051808303816000865af19150503d80600081146122e7576040519150601f19603f3d011682016040523d82523d6000602084013e6122ec565b606091505b50915091508180156123165750805115806123165750808060200190518101906123169190612eeb565b6123785760405162461bcd60e51b815260206004820152602d60248201527f5472616e7366657248656c7065723a3a736166655472616e736665723a20747260448201526c185b9cd9995c8819985a5b1959609a1b60648201526084016120ba565b5050505050565b6000808212156123bf5760405162461bcd60e51b815260206004820152600b60248201526a0496e7465676572203c20360ac1b60448201526064016120ba565b5090565b6000826123d08382612e3d565b91508110156103d35760405162461bcd60e51b815260206004820152601460248201527364732d6d6174682d6164642d6f766572666c6f7760601b60448201526064016120ba565b3361244a7f9016d09d72d40fdae2fd8ceac6b6234c7706214fd39c1cd1e609a0528c199300546001600160a01b031690565b6001600160a01b0316146119a35760405163118cdaa760e01b81523360048201526024016120ba565b6120cc813361275b565b6000600080516020612f4c833981519152816124998585612798565b90508015611c255760008581526020839052604090206124b99085612844565b50949350505050565b6000600080516020612f4c833981519152816124de8585612859565b90508015611c255760008581526020839052604090206124b990856128d5565b7f9016d09d72d40fdae2fd8ceac6b6234c7706214fd39c1cd1e609a0528c19930080546001600160a01b031981166001600160a01b03848116918217845560405192169182907f8be0079c531659141344cd1fd0a4f28419497f9722a3daafe3b4186f6b6457e090600090a3505050565b60008061257c8385612f0d565b90506000831215801561258f5750838112155b806125a457506000831280156125a457508381125b611c905760405162461bcd60e51b815260206004820152602160248201527f5369676e6564536166654d6174683a206164646974696f6e206f766572666c6f6044820152607760f81b60648201526084016120ba565b604080516001600160a01b0385811660248301528481166044830152606480830185905283518084039091018152608490920183526020820180516001600160e01b03166323b872dd60e01b179052915160009283929088169161265e9190612ebc565b6000604051808303816000865af19150503d806000811461269b576040519150601f19603f3d011682016040523d82523d6000602084013e6126a0565b606091505b50915091508180156126ca5750805115806126ca5750808060200190518101906126ca9190612eeb565b6127305760405162461bcd60e51b815260206004820152603160248201527f5472616e7366657248656c7065723a3a7472616e7366657246726f6d3a207472604482015270185b9cd9995c919c9bdb4819985a5b1959607a1b60648201526084016120ba565b505050505050565b6000611c9083836128ea565b60606000611c9083612914565b60006103d3825490565b6127658282611c2d565b6127945760405163e2517d3f60e01b81526001600160a01b0382166004820152602481018390526044016120ba565b5050565b6000600080516020612f6c8339815191526127b38484611c2d565b612833576000848152602082815260408083206001600160a01b03871684529091529020805460ff191660011790556127e93390565b6001600160a01b0316836001600160a01b0316857f2f8788117e7eff1d82e926ec794901d17c78024a50270940304540a733656f0d60405160405180910390a460019150506103d3565b60009150506103d3565b5092915050565b6000611c90836001600160a01b038416612970565b6000600080516020612f6c8339815191526128748484611c2d565b15612833576000848152602082815260408083206001600160a01b0387168085529252808320805460ff1916905551339287917ff6391f5c32d9c69d2a47ea670b442974b53935d1edc7fd64eb21e047a839171b9190a460019150506103d3565b6000611c90836001600160a01b0384166129bf565b600082600001828154811061290157612901612e6f565b9060005260206000200154905092915050565b60608160000180548060200260200160405190810160405280929190818152602001828054801561296457602002820191906000526020600020905b815481526020019060010190808311612950575b50505050509050919050565b60008181526001830160205260408120546129b7575081546001818101845560008481526020808220909301849055845484825282860190935260409020919091556103d3565b5060006103d3565b600081815260018301602052604081205480156128335760006129e3600183612e2a565b85549091506000906129f790600190612e2a565b9050808214612a5c576000866000018281548110612a1757612a17612e6f565b9060005260206000200154905080876000018481548110612a3a57612a3a612e6f565b6000918252602080832090910192909255918252600188019052604090208390555b8554869080612a6d57612a6d612f35565b6001900381819060005260206000200160009055905585600101600086815260200190815260200160002060009055600193505050506103d3565b600060208284031215612aba57600080fd5b81356001600160e01b031981168114611c9057600080fd5b6001600160a01b03811681146120cc57600080fd5b600080600060608486031215612afc57600080fd5b83359250602084013591506040840135612b1581612ad2565b809150509250925092565b60008060408385031215612b3357600080fd5b823591506020830135612b4581612ad2565b809150509250929050565b60008060408385031215612b6357600080fd5b50508035926020909101359150565b600060208284031215612b8457600080fd5b5035919050565b60008060408385031215612b9e57600080fd5b8235612ba981612ad2565b91506020830135612b4581612ad2565b60008060208385031215612bcc57600080fd5b82356001600160401b03811115612be257600080fd5b8301601f81018513612bf357600080fd5b80356001600160401b03811115612c0957600080fd5b8560208260051b8401011115612c1e57600080fd5b6020919091019590945092505050565b602080825282518282018190526000918401906040840190835b81811015612c6f5783516001600160a01b0316835260209384019390920191600101612c48565b509095945050505050565b600060208284031215612c8c57600080fd5b8135611c9081612ad2565b60006040828403128015612caa57600080fd5b506040805160009181016001600160401b0381118282101715612cdb57634e487b7160e01b83526041600452602483fd5b6040528351815260209384015193810193909352509092915050565b600060208284031215612d0957600080fd5b5051919050565b634e487b7160e01b600052601160045260246000fd5b600082612d4357634e487b7160e01b600052601260045260246000fd5b500490565b9384526001600160a01b039290921660208401526040830152606082015260800190565b600060208284031215612d7e57600080fd5b8151611c9081612ad2565b80516001600160401b038116811461195657600080fd5b60006060828403128015612db357600080fd5b50604051600090606081016001600160401b0381118282101715612de557634e487b7160e01b83526041600452602483fd5b60405283516001600160801b0381168114612dfe578283fd5b8152612e0c60208501612d89565b6020820152612e1d60408501612d89565b6040820152949350505050565b818103818111156103d3576103d3612d10565b808201808211156103d3576103d3612d10565b6001600160801b0381811683821601908111156103d3576103d3612d10565b634e487b7160e01b600052603260045260246000fd5b80820281158282048414176103d3576103d3612d10565b818103600083128015838313168383128216171561283d5761283d612d10565b6000825160005b81811015612edd5760208186018101518583015201612ec3565b506000920191825250919050565b600060208284031215612efd57600080fd5b81518015158114611c9057600080fd5b8082018281126000831280158216821582161715612f2d57612f2d612d10565b505092915050565b634e487b7160e01b600052603160045260246000fdfec1f6fe24621ce81ec5827caf0253cadb74709b061630e6b55e8237170593200002dd7bc7dec4dceedda775e58dd541e08a116c6c53815c0bd028192f7b626800a264697066735822122055cce9dc9b19f54dde4817833631d8230169d12e8798db4020e101ac3b485fbd64736f6c634300081a0033","linkReferences":{}},"methodIdentifiers":{"DEFAULT_ADMIN_ROLE()":"a217fddf","add(uint256,address)":"2b8bbbe8","deposit(uint256,uint256,address)":"8dbdbe6d","emergencyWithdraw(uint256,address)":"2f940c70","getRoleAdmin(bytes32)":"248a9ca3","getRoleMember(bytes32,uint256)":"9010d07c","getRoleMemberCount(bytes32)":"ca15c873","getRoleMembers(bytes32)":"a3246ad3","grantRole(bytes32,address)":"2f2ff15d","harvest(uint256,address)":"18fccc76","hasRole(bytes32,address)":"91d14854","initilize(address,address)":"4aed2c9a","massUpdatePools(uint256[])":"57a5b58c","owner()":"8da5cb5b","pendingSushi(uint256,address)":"195426ec","renounceOwnership()":"715018a6","renounceRole(bytes32,address)":"36568abe","revokeRole(bytes32,address)":"d547741f","set(uint256,uint256)":"1ab06ee5","supportsInterface(bytes4)":"01ffc9a7","transferOwnership(address)":"f2fde38b","updatePool(uint256)":"51eb05a6","withdraw(uint256,uint256,address)":"0ad58d2f","withdrawAndHarvest(uint256,uint256,address)":"d1abb907"},"id":3}