{"abi":[{"type":"constructor","inputs":[],"stateMutability":"nonpayable"},{"type":"function","name":"DEFAULT_ADMIN_ROLE","inputs":[],"outputs":[{"name":"","type":"bytes32","internalType":"bytes32"}],"stateMutability":"view"},{"type":"function","name":"add","inputs":[{"name":"allocPoint","type":"uint256","internalType":"uint256"},{"name":"_lpToken","type":"address","internalType":"contract IERC20"}],"outputs":[],"stateMutability":"nonpayable"},{"type":"function","name":"deposit","inputs":[{"name":"pid","type":"uint256","internalType":"uint256"},{"name":"amount","type":"uint256","internalType":"uint256"},{"name":"to","type":"address","internalType":"address"}],"outputs":[],"stateMutability":"nonpayable"},{"type":"function","name":"emergencyWithdraw","inputs":[{"name":"pid","type":"uint256","internalType":"uint256"},{"name":"to","type":"address","internalType":"address"}],"outputs":[],"stateMutability":"nonpayable"},{"type":"function","name":"getRoleAdmin","inputs":[{"name":"role","type":"bytes32","internalType":"bytes32"}],"outputs":[{"name":"","type":"bytes32","internalType":"bytes32"}],"stateMutability":"view"},{"type":"function","name":"getRoleMember","inputs":[{"name":"role","type":"bytes32","internalType":"bytes32"},{"name":"index","type":"uint256","internalType":"uint256"}],"outputs":[{"name":"","type":"address","internalType":"address"}],"stateMutability":"view"},{"type":"function","name":"getRoleMemberCount","inputs":[{"name":"role","type":"bytes32","internalType":"bytes32"}],"outputs":[{"name":"","type":"uint256","internalType":"uint256"}],"stateMutability":"view"},{"type":"function","name":"getRoleMembers","inputs":[{"name":"role","type":"bytes32","internalType":"bytes32"}],"outputs":[{"name":"","type":"address[]","internalType":"address[]"}],"stateMutability":"view"},{"type":"function","name":"grantRole","inputs":[{"name":"role","type":"bytes32","internalType":"bytes32"},{"name":"account","type":"address","internalType":"address"}],"outputs":[],"stateMutability":"nonpayable"},{"type":"function","name":"harvest","inputs":[{"name":"pid","type":"uint256","internalType":"uint256"},{"name":"to","type":"address","internalType":"address"}],"outputs":[],"stateMutability":"nonpayable"},{"type":"function","name":"hasRole","inputs":[{"name":"role","type":"bytes32","internalType":"bytes32"},{"name":"account","type":"address","internalType":"address"}],"outputs":[{"name":"","type":"bool","internalType":"bool"}],"stateMutability":"view"},{"type":"function","name":"initilize","inputs":[{"name":"_storageContract","type":"address","internalType":"address"}],"outputs":[],"stateMutability":"nonpayable"},{"type":"function","name":"massUpdatePools","inputs":[{"name":"pids","type":"uint256[]","internalType":"uint256[]"}],"outputs":[],"stateMutability":"nonpayable"},{"type":"function","name":"owner","inputs":[],"outputs":[{"name":"","type":"address","internalType":"address"}],"stateMutability":"view"},{"type":"function","name":"pendingSushi","inputs":[{"name":"_pid","type":"uint256","internalType":"uint256"},{"name":"_user","type":"address","internalType":"address"}],"outputs":[{"name":"pending","type":"uint256","internalType":"uint256"}],"stateMutability":"view"},{"type":"function","name":"renounceOwnership","inputs":[],"outputs":[],"stateMutability":"nonpayable"},{"type":"function","name":"renounceRole","inputs":[{"name":"role","type":"bytes32","internalType":"bytes32"},{"name":"callerConfirmation","type":"address","internalType":"address"}],"outputs":[],"stateMutability":"nonpayable"},{"type":"function","name":"revokeRole","inputs":[{"name":"role","type":"bytes32","internalType":"bytes32"},{"name":"account","type":"address","internalType":"address"}],"outputs":[],"stateMutability":"nonpayable"},{"type":"function","name":"set","inputs":[{"name":"_pid","type":"uint256","internalType":"uint256"},{"name":"_allocPoint","type":"uint256","internalType":"uint256"}],"outputs":[],"stateMutability":"nonpayable"},{"type":"function","name":"setRewardToken","inputs":[{"name":"_rewardToken","type":"address","internalType":"address"}],"outputs":[],"stateMutability":"nonpayable"},{"type":"function","name":"supportsInterface","inputs":[{"name":"interfaceId","type":"bytes4","internalType":"bytes4"}],"outputs":[{"name":"","type":"bool","internalType":"bool"}],"stateMutability":"view"},{"type":"function","name":"transferOwnership","inputs":[{"name":"newOwner","type":"address","internalType":"address"}],"outputs":[],"stateMutability":"nonpayable"},{"type":"function","name":"updatePool","inputs":[{"name":"pid","type":"uint256","internalType":"uint256"}],"outputs":[{"name":"pool","type":"tuple","internalType":"struct MasterChefStorage.PoolInfo","components":[{"name":"accSushiPerShare","type":"uint128","internalType":"uint128"},{"name":"lastRewardBlock","type":"uint64","internalType":"uint64"},{"name":"allocPoint","type":"uint64","internalType":"uint64"}]}],"stateMutability":"nonpayable"},{"type":"function","name":"withdraw","inputs":[{"name":"pid","type":"uint256","internalType":"uint256"},{"name":"amount","type":"uint256","internalType":"uint256"},{"name":"to","type":"address","internalType":"address"}],"outputs":[],"stateMutability":"nonpayable"},{"type":"function","name":"withdrawAndHarvest","inputs":[{"name":"pid","type":"uint256","internalType":"uint256"},{"name":"amount","type":"uint256","internalType":"uint256"},{"name":"to","type":"address","internalType":"address"}],"outputs":[],"stateMutability":"nonpayable"},{"type":"event","name":"Deposit","inputs":[{"name":"user","type":"address","indexed":true,"internalType":"address"},{"name":"pid","type":"uint256","indexed":true,"internalType":"uint256"},{"name":"amount","type":"uint256","indexed":false,"internalType":"uint256"},{"name":"to","type":"address","indexed":true,"internalType":"address"}],"anonymous":false},{"type":"event","name":"EmergencyWithdraw","inputs":[{"name":"user","type":"address","indexed":true,"internalType":"address"},{"name":"pid","type":"uint256","indexed":true,"internalType":"uint256"},{"name":"amount","type":"uint256","indexed":false,"internalType":"uint256"},{"name":"to","type":"address","indexed":true,"internalType":"address"}],"anonymous":false},{"type":"event","name":"Harvest","inputs":[{"name":"user","type":"address","indexed":true,"internalType":"address"},{"name":"pid","type":"uint256","indexed":true,"internalType":"uint256"},{"name":"amount","type":"uint256","indexed":false,"internalType":"uint256"}],"anonymous":false},{"type":"event","name":"Initialized","inputs":[{"name":"version","type":"uint64","indexed":false,"internalType":"uint64"}],"anonymous":false},{"type":"event","name":"LogInit","inputs":[],"anonymous":false},{"type":"event","name":"LogPoolAddition","inputs":[{"name":"pid","type":"uint256","indexed":true,"internalType":"uint256"},{"name":"allocPoint","type":"uint256","indexed":false,"internalType":"uint256"},{"name":"lpToken","type":"address","indexed":true,"internalType":"contract IERC20"}],"anonymous":false},{"type":"event","name":"LogSetPool","inputs":[{"name":"pid","type":"uint256","indexed":true,"internalType":"uint256"},{"name":"allocPoint","type":"uint256","indexed":false,"internalType":"uint256"}],"anonymous":false},{"type":"event","name":"LogUpdatePool","inputs":[{"name":"pid","type":"uint256","indexed":true,"internalType":"uint256"},{"name":"lastRewardBlock","type":"uint64","indexed":false,"internalType":"uint64"},{"name":"lpSupply","type":"uint256","indexed":false,"internalType":"uint256"},{"name":"accSushiPerShare","type":"uint256","indexed":false,"internalType":"uint256"}],"anonymous":false},{"type":"event","name":"OwnershipTransferred","inputs":[{"name":"previousOwner","type":"address","indexed":true,"internalType":"address"},{"name":"newOwner","type":"address","indexed":true,"internalType":"address"}],"anonymous":false},{"type":"event","name":"RoleAdminChanged","inputs":[{"name":"role","type":"bytes32","indexed":true,"internalType":"bytes32"},{"name":"previousAdminRole","type":"bytes32","indexed":true,"internalType":"bytes32"},{"name":"newAdminRole","type":"bytes32","indexed":true,"internalType":"bytes32"}],"anonymous":false},{"type":"event","name":"RoleGranted","inputs":[{"name":"role","type":"bytes32","indexed":true,"internalType":"bytes32"},{"name":"account","type":"address","indexed":true,"internalType":"address"},{"name":"sender","type":"address","indexed":true,"internalType":"address"}],"anonymous":false},{"type":"event","name":"RoleRevoked","inputs":[{"name":"role","type":"bytes32","indexed":true,"internalType":"bytes32"},{"name":"account","type":"address","indexed":true,"internalType":"address"},{"name":"sender","type":"address","indexed":true,"internalType":"address"}],"anonymous":false},{"type":"event","name":"Withdraw","inputs":[{"name":"user","type":"address","indexed":true,"internalType":"address"},{"name":"pid","type":"uint256","indexed":true,"internalType":"uint256"},{"name":"amount","type":"uint256","indexed":false,"internalType":"uint256"},{"name":"to","type":"address","indexed":true,"internalType":"address"}],"anonymous":false},{"type":"error","name":"AccessControlBadConfirmation","inputs":[]},{"type":"error","name":"AccessControlUnauthorizedAccount","inputs":[{"name":"account","type":"address","internalType":"address"},{"name":"neededRole","type":"bytes32","internalType":"bytes32"}]},{"type":"error","name":"InvalidInitialization","inputs":[]},{"type":"error","name":"NotInitializing","inputs":[]},{"type":"error","name":"OwnableInvalidOwner","inputs":[{"name":"owner","type":"address","internalType":"address"}]},{"type":"error","name":"OwnableUnauthorizedAccount","inputs":[{"name":"account","type":"address","internalType":"address"}]}],"bytecode":{"object":"0x6080604052348015600f57600080fd5b506016601a565b60ca565b7ff0c57e16840df040f15088dc2f81fe391c3923bec73e23a9662efc9c229c6a00805468010000000000000000900460ff161560695760405163f92ee8a960e01b815260040160405180910390fd5b80546001600160401b039081161460c75780546001600160401b0319166001600160401b0390811782556040519081527fc7f505b2f371ae2175ee4913f4499e1f2633a7b5936321eed1cdaeb6115181d29060200160405180910390a15b50565b6132aa806100d96000396000f3fe608060405234801561001057600080fd5b50600436106101735760003560e01c806357a5b58c116100de57806391d1485411610097578063ca15c87311610071578063ca15c87314610390578063d1abb907146103a3578063d547741f146103b6578063f2fde38b146103c957600080fd5b806391d1485414610355578063a217fddf14610368578063a3246ad31461037057600080fd5b806357a5b58c146102bd578063715018a6146102d05780638aee8127146102d85780638da5cb5b146102eb5780638dbdbe6d1461032f5780639010d07c1461034257600080fd5b8063248a9ca311610130578063248a9ca31461020f5780632b8bbbe8146102225780632f2ff15d146102355780632f940c701461024857806336568abe1461025b57806351eb05a61461026e57600080fd5b806301ffc9a7146101785780630ad58d2f146101a057806318fccc76146101b5578063195426ec146101c85780631ab06ee5146101e957806320281145146101fc575b600080fd5b61018b610186366004612d73565b6103dc565b60405190151581526020015b60405180910390f35b6101b36101ae366004612db2565b610407565b005b6101b36101c3366004612deb565b61067b565b6101db6101d6366004612deb565b6108e9565b604051908152602001610197565b6101b36101f7366004612e1b565b610efb565b6101b361020a366004612e3d565b61112a565b6101db61021d366004612e5a565b611253565b6101b3610230366004612deb565b611275565b6101b3610243366004612deb565b6114e6565b6101b3610256366004612deb565b611508565b6101b3610269366004612deb565b6116be565b61028161027c366004612e5a565b6116f6565b6040805182516001600160801b031681526020808401516001600160401b03908116918301919091529282015190921690820152606001610197565b6101b36102cb366004612e73565b611afa565b6101b3611b30565b6101b36102e6366004612e3d565b611b44565b7f9016d09d72d40fdae2fd8ceac6b6234c7706214fd39c1cd1e609a0528c199300546001600160a01b03165b6040516001600160a01b039091168152602001610197565b6101b361033d366004612db2565b611bae565b610317610350366004612e1b565b611e07565b61018b610363366004612deb565b611e36565b6101db600081565b61038361037e366004612e5a565b611e6e565b6040516101979190612ee8565b6101db61039e366004612e5a565b611ea0565b6101b36103b1366004612db2565b611ec6565b6101b36103c4366004612deb565b612279565b6101b36103d7366004612e3d565b612295565b60006001600160e01b03198216635a05180f60e01b14806104015750610401826122d8565b92915050565b6000610412846116f6565b600080546040516348c6ab9760e11b81526004810188905233602482015292935090916001600160a01b039091169063918d572e906044016040805180830381865afa158015610466573d6000803e3d6000fd5b505050506040513d601f19601f8201168201806040525081019061048a9190612f34565b905061052f60008054906101000a90046001600160a01b03166001600160a01b031663146539ca6040518163ffffffff1660e01b8152600401602060405180830381865afa1580156104e0573d6000803e3d6000fd5b505050506040513d601f19601f820116820180604052508101906105049190612f94565b835161051a9087906001600160801b031661230d565b6105249190612fc3565b602083015190612374565b602082015280516105409085612401565b8082526000546020830151604051621b56d160e41b81526001600160a01b03909216926301b56d109261057c928a923392909190600401612fe5565b600060405180830381600087803b15801561059657600080fd5b505af11580156105aa573d6000803e3d6000fd5b505060005460405163878db06160e01b81526004810189905261062693506001600160a01b03909116915063878db06190602401602060405180830381865afa1580156105fb573d6000803e3d6000fd5b505050506040513d601f19601f8201168201806040525081019061061f9190613009565b8486612457565b826001600160a01b031685336001600160a01b03167f8166bf25f8a2b7ed3c85049207da4358d16edbed977d23fa2ee6f0dde3ec21328760405161066c91815260200190565b60405180910390a45050505050565b6000610686836116f6565b600080546040516348c6ab9760e11b81526004810187905233602482015292935090916001600160a01b039091169063918d572e906044016040805180830381865afa1580156106da573d6000803e3d6000fd5b505050506040513d601f19601f820116820180604052508101906106fe9190612f34565b905060008060009054906101000a90046001600160a01b03166001600160a01b031663146539ca6040518163ffffffff1660e01b8152600401602060405180830381865afa158015610754573d6000803e3d6000fd5b505050506040513d601f19601f820116820180604052508101906107789190612f94565b8351835161078e916001600160801b031661230d565b6107989190612fc3565b905060006107bb6107b684602001518461237490919063ffffffff16565b612581565b602084018390526000548451604051621b56d160e41b81529293506001600160a01b03909116916301b56d10916107fa918a9133918890600401612fe5565b600060405180830381600087803b15801561081457600080fd5b505af1158015610828573d6000803e3d6000fd5b50505050806000146108aa576000546040805163384c315360e21b815290516108aa926001600160a01b03169163e130c54c9160048083019260209291908290030181865afa15801561087f573d6000803e3d6000fd5b505050506040513d601f19601f820116820180604052508101906108a39190613009565b8683612457565b604051818152869033907f71bab65ced2e5750775a0613be067df48ef06cf92a496ebf7663ae06609249549060200160405180910390a3505050505050565b60008054604051636f7a246560e11b81526004810185905282916001600160a01b03169063def448ca90602401606060405180830381865afa158015610933573d6000803e3d6000fd5b505050506040513d601f19601f82011682018060405250810190610957919061303d565b905061099d60405180604001604052806015815260200174706f6f6c2e6163635375736869506572536861726560581b81525082600001516001600160801b03166125c5565b6109e060405180604001604052806014815260200173706f6f6c2e6c617374526577617264426c6f636b60601b81525082602001516001600160401b03166125c5565b600080546040516348c6ab9760e11b8152600481018790526001600160a01b0386811660248301529091169063918d572e906044016040805180830381865afa158015610a31573d6000803e3d6000fd5b505050506040513d601f19601f82011682018060405250810190610a559190612f34565b9050610a886040518060400160405280600b81526020016a1d5cd95c8b985b5bdd5b9d60aa1b81525082600001516125c5565b610abd6040518060400160405280600f81526020016e1d5cd95c8b9c995dd85c991119589d608a1b81525082602001516125c5565b81516000805460405163878db06160e01b8152600481018990526001600160801b03909316926001600160a01b039091169063878db06190602401602060405180830381865afa158015610b15573d6000803e3d6000fd5b505050506040513d601f19601f82011682018060405250810190610b399190613009565b6040516370a0823160e01b81523060048201526001600160a01b0391909116906370a0823190602401602060405180830381865afa158015610b7f573d6000803e3d6000fd5b505050506040513d601f19601f82011682018060405250810190610ba39190612f94565b9050610bcf604051806040016040528060088152602001676c70537570706c7960c01b815250826125c5565b83602001516001600160401b031643118015610bea57508015155b15610dc6576000610c1185602001516001600160401b03164361240190919063ffffffff16565b905060008060009054906101000a90046001600160a01b03166001600160a01b0316633a58b91a6040518163ffffffff1660e01b8152600401602060405180830381865afa158015610c67573d6000803e3d6000fd5b505050506040513d601f19601f82011682018060405250810190610c8b9190612f94565b610d2187604001516001600160401b0316610d1b60008054906101000a90046001600160a01b03166001600160a01b03166387c361a56040518163ffffffff1660e01b8152600401602060405180830381865afa158015610cf0573d6000803e3d6000fd5b505050506040513d601f19601f82011682018060405250810190610d149190612f94565b869061230d565b9061230d565b610d2b9190612fc3565b9050610dc183610db060008054906101000a90046001600160a01b03166001600160a01b031663146539ca6040518163ffffffff1660e01b8152600401602060405180830381865afa158015610d85573d6000803e3d6000fd5b505050506040513d601f19601f82011682018060405250810190610da99190612f94565b849061230d565b610dba9190612fc3565b859061260e565b935050505b610df86040518060400160405280601081526020016f6163635375736869506572536861726560801b815250836125c5565b610e296040518060400160405280600b81526020016a1d5cd95c8b985b5bdd5b9d60aa1b81525084600001516125c5565b610e5e6040518060400160405280600f81526020016e1d5cd95c8b9c995dd85c991119589d608a1b81525084602001516125c5565b60208084015160005460408051630a329ce560e11b81529051610ef0946107b694936001600160a01b03169263146539ca92600480830193928290030181865afa158015610eb0573d6000803e3d6000fd5b505050506040513d601f19601f82011682018060405250810190610ed49190612f94565b8651610ee0908761230d565b610eea9190612fc3565b90612374565b979650505050505050565b610f03612663565b60008054604051636f7a246560e11b8152600481018590526001600160a01b039091169063def448ca90602401606060405180830381865afa158015610f4d573d6000803e3d6000fd5b505050506040513d601f19601f82011682018060405250810190610f71919061303d565b6000546040808301518151631d2c5c8d60e11b815291519394506001600160a01b039092169263ca8e6c039286926001600160401b03909116918591633a58b91a9160048083019260209291908290030181865afa158015610fd7573d6000803e3d6000fd5b505050506040513d601f19601f82011682018060405250810190610ffb9190612f94565b61100591906130c7565b61100f91906130da565b6040518263ffffffff1660e01b815260040161102d91815260200190565b600060405180830381600087803b15801561104757600080fd5b505af115801561105b573d6000803e3d6000fd5b50506000548351602085015160405163954d671b60e01b8152600481018990526001600160801b0390921660248301526001600160401b039081166044830152861660648201526001600160a01b03909116925063954d671b9150608401600060405180830381600087803b1580156110d357600080fd5b505af11580156110e7573d6000803e3d6000fd5b50505050827f942cc7e17a17c164bd977f32ab8c54265d5b9d481e4e352bf874f1e568874e7c8360405161111d91815260200190565b60405180910390a2505050565b7ff0c57e16840df040f15088dc2f81fe391c3923bec73e23a9662efc9c229c6a008054600160401b810460ff1615906001600160401b031660008115801561116f5750825b90506000826001600160401b0316600114801561118b5750303b155b905081158015611199575080155b156111b75760405163f92ee8a960e01b815260040160405180910390fd5b845467ffffffffffffffff1916600117855583156111e157845460ff60401b1916600160401b1785555b6111ea336126be565b600080546001600160a01b0319166001600160a01b038816179055831561124b57845460ff60401b19168555604051600181527fc7f505b2f371ae2175ee4913f4499e1f2633a7b5936321eed1cdaeb6115181d29060200160405180910390a15b505050505050565b6000908152600080516020613255833981519152602052604090206001015490565b61127d612663565b6000805460408051631d2c5c8d60e11b815290514393926001600160a01b031691633a58b91a9160048083019260209291908290030181865afa1580156112c8573d6000803e3d6000fd5b505050506040513d601f19601f820116820180604052508101906112ec9190612f94565b6000549091506001600160a01b031663ca8e6c0361130a86846130da565b6040518263ffffffff1660e01b815260040161132891815260200190565b600060405180830381600087803b15801561134257600080fd5b505af1158015611356573d6000803e3d6000fd5b50506000546040516375fdcc3160e01b81526001600160a01b03878116600483015290911692506375fdcc319150602401600060405180830381600087803b1580156113a157600080fd5b505af11580156113b5573d6000803e3d6000fd5b50506000805460405163042ee34960e51b815260048101929092526001600160401b038087166024840152881660448301526001600160a01b031692506385dc69209150606401600060405180830381600087803b15801561141657600080fd5b505af115801561142a573d6000803e3d6000fd5b50505050826001600160a01b031660008054906101000a90046001600160a01b03166001600160a01b03166373b001d96040518163ffffffff1660e01b8152600401602060405180830381865afa158015611489573d6000803e3d6000fd5b505050506040513d601f19601f820116820180604052508101906114ad9190612f94565b6040518681527f4710feb78e3bce8d2e3ca2989a8eb2f8bcd32a6a55b4535942c180fc4d2e29529060200160405180910390a350505050565b6114ef82611253565b6114f8816126cf565b61150283836126d9565b50505050565b600080546040516348c6ab9760e11b8152600481018590523360248201526001600160a01b039091169063918d572e906044016040805180830381865afa158015611557573d6000803e3d6000fd5b505050506040513d601f19601f8201168201806040525081019061157b9190612f34565b80516000808352602083018190528054604051621b56d160e41b815293945091926001600160a01b03909216916301b56d10916115c091889133918190600401612fe5565b600060405180830381600087803b1580156115da57600080fd5b505af11580156115ee573d6000803e3d6000fd5b505060005460405163878db06160e01b81526004810188905261166a93506001600160a01b03909116915063878db06190602401602060405180830381865afa15801561163f573d6000803e3d6000fd5b505050506040513d601f19601f820116820180604052508101906116639190613009565b8483612457565b826001600160a01b031684336001600160a01b03167f2cac5e20e1541d836381527a43f651851e302817b71dc8e810284e69210c1c6b846040516116b091815260200190565b60405180910390a450505050565b6001600160a01b03811633146116e75760405163334bd91960e11b815260040160405180910390fd5b6116f1828261271e565b505050565b60408051606081018252600080825260208201819052818301819052549151636f7a246560e11b81526004810184905290916001600160a01b03169063def448ca90602401606060405180830381865afa158015611758573d6000803e3d6000fd5b505050506040513d601f19601f8201168201806040525081019061177c919061303d565b905080602001516001600160401b0316431115611af5576000805460405163878db06160e01b8152600481018590526001600160a01b039091169063878db06190602401602060405180830381865afa1580156117dd573d6000803e3d6000fd5b505050506040513d601f19601f820116820180604052508101906118019190613009565b6040516370a0823160e01b81523060048201526001600160a01b0391909116906370a0823190602401602060405180830381865afa158015611847573d6000803e3d6000fd5b505050506040513d601f19601f8201168201806040525081019061186b9190612f94565b90508015611a0057600061189583602001516001600160401b03164361240190919063ffffffff16565b905060008060009054906101000a90046001600160a01b03166001600160a01b0316633a58b91a6040518163ffffffff1660e01b8152600401602060405180830381865afa1580156118eb573d6000803e3d6000fd5b505050506040513d601f19601f8201168201806040525081019061190f9190612f94565b61197485604001516001600160401b0316610d1b60008054906101000a90046001600160a01b03166001600160a01b03166387c361a56040518163ffffffff1660e01b8152600401602060405180830381865afa158015610cf0573d6000803e3d6000fd5b61197e9190612fc3565b90506000836119d760008054906101000a90046001600160a01b03166001600160a01b031663146539ca6040518163ffffffff1660e01b8152600401602060405180830381865afa158015610d85573d6000803e3d6000fd5b6119e19190612fc3565b85519091506119f19082906130ed565b6001600160801b031685525050505b6001600160401b03438116602084018190526000548451604080870151905163954d671b60e01b8152600481018990526001600160801b03909216602483015260448201939093529190921660648201526001600160a01b039091169063954d671b90608401600060405180830381600087803b158015611a8057600080fd5b505af1158015611a94573d6000803e3d6000fd5b505050506020828101518351604080516001600160401b0390931683529282018490526001600160801b031681830152905184917f0fc9545022a542541ad085d091fb09a2ab36fee366a4576ab63714ea907ad353919081900360600190a2505b919050565b8060005b8181101561150257611b27848483818110611b1b57611b1b61310c565b905060200201356116f6565b50600101611afe565b611b38612663565b611b42600061275a565b565b611b4c612663565b60005460405163797668d760e11b81526001600160a01b0383811660048301529091169063f2ecd1ae90602401600060405180830381600087803b158015611b9357600080fd5b505af1158015611ba7573d6000803e3d6000fd5b5050505050565b6000611bb9846116f6565b600080546040516348c6ab9760e11b8152600481018890526001600160a01b0386811660248301529394509192169063918d572e906044016040805180830381865afa158015611c0d573d6000803e3d6000fd5b505050506040513d601f19601f82011682018060405250810190611c319190612f34565b8051909150611c40908561260e565b815260005460408051630a329ce560e11b81529051611cdc926001600160a01b03169163146539ca9160048083019260209291908290030181865afa158015611c8d573d6000803e3d6000fd5b505050506040513d601f19601f82011682018060405250810190611cb19190612f94565b8351611cc79087906001600160801b031661230d565b611cd19190612fc3565b6020830151906127cb565b602082018190526000548251604051621b56d160e41b81526001600160a01b03909216926301b56d1092611d16928a928992600401612fe5565b600060405180830381600087803b158015611d3057600080fd5b505af1158015611d44573d6000803e3d6000fd5b505060005460405163878db06160e01b815260048101899052611dc193506001600160a01b03909116915063878db06190602401602060405180830381865afa158015611d95573d6000803e3d6000fd5b505050506040513d601f19601f82011682018060405250810190611db99190613009565b333087612856565b826001600160a01b031685336001600160a01b03167f02d7e648dd130fc184d383e55bb126ac4c9c60e8f94bf05acdf557ba2d540b478760405161066c91815260200190565b6000828152600080516020613235833981519152602081905260408220611e2e908461298c565b949350505050565b6000918252600080516020613255833981519152602090815260408084206001600160a01b0393909316845291905290205460ff1690565b60008181526000805160206132358339815191526020819052604090912060609190611e9990612998565b9392505050565b6000818152600080516020613235833981519152602081905260408220611e99906129a5565b6000611ed1846116f6565b600080546040516348c6ab9760e11b81526004810188905233602482015292935090916001600160a01b039091169063918d572e906044016040805180830381865afa158015611f25573d6000803e3d6000fd5b505050506040513d601f19601f82011682018060405250810190611f499190612f34565b905060008060009054906101000a90046001600160a01b03166001600160a01b031663146539ca6040518163ffffffff1660e01b8152600401602060405180830381865afa158015611f9f573d6000803e3d6000fd5b505050506040513d601f19601f82011682018060405250810190611fc39190612f94565b83518351611fd9916001600160801b031661230d565b611fe39190612fc3565b905060006120016107b684602001518461237490919063ffffffff16565b90506120a260008054906101000a90046001600160a01b03166001600160a01b031663146539ca6040518163ffffffff1660e01b8152600401602060405180830381865afa158015612057573d6000803e3d6000fd5b505050506040513d601f19601f8201168201806040525081019061207b9190612f94565b85516120919089906001600160801b031661230d565b61209b9190612fc3565b8390612374565b602084015282516120b39087612401565b8084526000546020850151604051621b56d160e41b81526001600160a01b03909216926301b56d10926120ef928c923392909190600401612fe5565b600060405180830381600087803b15801561210957600080fd5b505af115801561211d573d6000803e3d6000fd5b5050505061217560008054906101000a90046001600160a01b03166001600160a01b031663e130c54c6040518163ffffffff1660e01b8152600401602060405180830381865afa15801561087f573d6000803e3d6000fd5b60005460405163878db06160e01b8152600481018990526121eb916001600160a01b03169063878db06190602401602060405180830381865afa1580156121c0573d6000803e3d6000fd5b505050506040513d601f19601f820116820180604052508101906121e49190613009565b8688612457565b846001600160a01b031687336001600160a01b03167f8166bf25f8a2b7ed3c85049207da4358d16edbed977d23fa2ee6f0dde3ec21328960405161223191815260200190565b60405180910390a4604051818152879033907f71bab65ced2e5750775a0613be067df48ef06cf92a496ebf7663ae06609249549060200160405180910390a350505050505050565b61228282611253565b61228b816126cf565b611502838361271e565b61229d612663565b6001600160a01b0381166122cc57604051631e4fbdf760e01b8152600060048201526024015b60405180910390fd5b6122d58161275a565b50565b60006001600160e01b03198216637965db0b60e01b148061040157506301ffc9a760e01b6001600160e01b0319831614610401565b6000811580612331575082826123238183613122565b925061232f9083612fc3565b145b6104015760405162461bcd60e51b815260206004820152601460248201527364732d6d6174682d6d756c2d6f766572666c6f7760601b60448201526064016122c3565b6000806123818385613139565b9050600083121580156123945750838113155b806123a957506000831280156123a957508381135b611e995760405162461bcd60e51b8152602060048201526024808201527f5369676e6564536166654d6174683a207375627472616374696f6e206f766572604482015263666c6f7760e01b60648201526084016122c3565b60008261240e83826130c7565b91508111156104015760405162461bcd60e51b815260206004820152601560248201527464732d6d6174682d7375622d756e646572666c6f7760581b60448201526064016122c3565b604080516001600160a01b038481166024830152604480830185905283518084039091018152606490920183526020820180516001600160e01b031663a9059cbb60e01b17905291516000928392908716916124b3919061317d565b6000604051808303816000865af19150503d80600081146124f0576040519150601f19603f3d011682016040523d82523d6000602084013e6124f5565b606091505b509150915081801561251f57508051158061251f57508080602001905181019061251f9190613199565b611ba75760405162461bcd60e51b815260206004820152602d60248201527f5472616e7366657248656c7065723a3a736166655472616e736665723a20747260448201526c185b9cd9995c8819985a5b1959609a1b60648201526084016122c3565b6000808212156125c15760405162461bcd60e51b815260206004820152600b60248201526a0496e7465676572203c20360ac1b60448201526064016122c3565b5090565b61260a82826040516024016125db9291906131bb565b60408051601f198184030181529190526020810180516001600160e01b0316632d839cb360e21b1790526129af565b5050565b60008261261b83826130da565b91508110156104015760405162461bcd60e51b815260206004820152601460248201527364732d6d6174682d6164642d6f766572666c6f7760601b60448201526064016122c3565b336126957f9016d09d72d40fdae2fd8ceac6b6234c7706214fd39c1cd1e609a0528c199300546001600160a01b031690565b6001600160a01b031614611b425760405163118cdaa760e01b81523360048201526024016122c3565b6126c66129b8565b6122d581612a01565b6122d58133612a09565b6000600080516020613235833981519152816126f58585612a42565b90508015611e2e5760008581526020839052604090206127159085612aee565b50949350505050565b60006000805160206132358339815191528161273a8585612b03565b90508015611e2e5760008581526020839052604090206127159085612b7f565b7f9016d09d72d40fdae2fd8ceac6b6234c7706214fd39c1cd1e609a0528c19930080546001600160a01b031981166001600160a01b03848116918217845560405192169182907f8be0079c531659141344cd1fd0a4f28419497f9722a3daafe3b4186f6b6457e090600090a3505050565b6000806127d883856131f6565b9050600083121580156127eb5750838112155b80612800575060008312801561280057508381125b611e995760405162461bcd60e51b815260206004820152602160248201527f5369676e6564536166654d6174683a206164646974696f6e206f766572666c6f6044820152607760f81b60648201526084016122c3565b604080516001600160a01b0385811660248301528481166044830152606480830185905283518084039091018152608490920183526020820180516001600160e01b03166323b872dd60e01b17905291516000928392908816916128ba919061317d565b6000604051808303816000865af19150503d80600081146128f7576040519150601f19603f3d011682016040523d82523d6000602084013e6128fc565b606091505b50915091508180156129265750805115806129265750808060200190518101906129269190613199565b61124b5760405162461bcd60e51b815260206004820152603160248201527f5472616e7366657248656c7065723a3a7472616e7366657246726f6d3a207472604482015270185b9cd9995c919c9bdb4819985a5b1959607a1b60648201526084016122c3565b6000611e998383612b94565b60606000611e9983612bbe565b6000610401825490565b6122d581612c1a565b7ff0c57e16840df040f15088dc2f81fe391c3923bec73e23a9662efc9c229c6a0054600160401b900460ff16611b4257604051631afcd79f60e31b815260040160405180910390fd5b61229d6129b8565b612a138282611e36565b61260a5760405163e2517d3f60e01b81526001600160a01b0382166004820152602481018390526044016122c3565b6000600080516020613255833981519152612a5d8484611e36565b612add576000848152602082815260408083206001600160a01b03871684529091529020805460ff19166001179055612a933390565b6001600160a01b0316836001600160a01b0316857f2f8788117e7eff1d82e926ec794901d17c78024a50270940304540a733656f0d60405160405180910390a46001915050610401565b6000915050610401565b5092915050565b6000611e99836001600160a01b038416612c3b565b6000600080516020613255833981519152612b1e8484611e36565b15612add576000848152602082815260408083206001600160a01b0387168085529252808320805460ff1916905551339287917ff6391f5c32d9c69d2a47ea670b442974b53935d1edc7fd64eb21e047a839171b9190a46001915050610401565b6000611e99836001600160a01b038416612c8a565b6000826000018281548110612bab57612bab61310c565b9060005260206000200154905092915050565b606081600001805480602002602001604051908101604052809291908181526020018280548015612c0e57602002820191906000526020600020905b815481526020019060010190808311612bfa575b50505050509050919050565b60006a636f6e736f6c652e6c6f679050600080835160208501845afa505050565b6000818152600183016020526040812054612c8257508154600181810184556000848152602080822090930184905584548482528286019093526040902091909155610401565b506000610401565b60008181526001830160205260408120548015612add576000612cae6001836130c7565b8554909150600090612cc2906001906130c7565b9050808214612d27576000866000018281548110612ce257612ce261310c565b9060005260206000200154905080876000018481548110612d0557612d0561310c565b6000918252602080832090910192909255918252600188019052604090208390555b8554869080612d3857612d3861321e565b600190038181906000526020600020016000905590558560010160008681526020019081526020016000206000905560019350505050610401565b600060208284031215612d8557600080fd5b81356001600160e01b031981168114611e9957600080fd5b6001600160a01b03811681146122d557600080fd5b600080600060608486031215612dc757600080fd5b83359250602084013591506040840135612de081612d9d565b809150509250925092565b60008060408385031215612dfe57600080fd5b823591506020830135612e1081612d9d565b809150509250929050565b60008060408385031215612e2e57600080fd5b50508035926020909101359150565b600060208284031215612e4f57600080fd5b8135611e9981612d9d565b600060208284031215612e6c57600080fd5b5035919050565b60008060208385031215612e8657600080fd5b82356001600160401b03811115612e9c57600080fd5b8301601f81018513612ead57600080fd5b80356001600160401b03811115612ec357600080fd5b8560208260051b8401011115612ed857600080fd5b6020919091019590945092505050565b602080825282518282018190526000918401906040840190835b81811015612f295783516001600160a01b0316835260209384019390920191600101612f02565b509095945050505050565b60006040828403128015612f4757600080fd5b506040805160009181016001600160401b0381118282101715612f7857634e487b7160e01b83526041600452602483fd5b6040528351815260209384015193810193909352509092915050565b600060208284031215612fa657600080fd5b5051919050565b634e487b7160e01b600052601160045260246000fd5b600082612fe057634e487b7160e01b600052601260045260246000fd5b500490565b9384526001600160a01b039290921660208401526040830152606082015260800190565b60006020828403121561301b57600080fd5b8151611e9981612d9d565b80516001600160401b0381168114611af557600080fd5b6000606082840312801561305057600080fd5b50604051600090606081016001600160401b038111828210171561308257634e487b7160e01b83526041600452602483fd5b60405283516001600160801b038116811461309b578283fd5b81526130a960208501613026565b60208201526130ba60408501613026565b6040820152949350505050565b8181038181111561040157610401612fad565b8082018082111561040157610401612fad565b6001600160801b03818116838216019081111561040157610401612fad565b634e487b7160e01b600052603260045260246000fd5b808202811582820484141761040157610401612fad565b8181036000831280158383131683831282161715612ae757612ae7612fad565b60005b8381101561317457818101518382015260200161315c565b50506000910152565b6000825161318f818460208701613159565b9190910192915050565b6000602082840312156131ab57600080fd5b81518015158114611e9957600080fd5b60408152600083518060408401526131da816060850160208801613159565b602083019390935250601f91909101601f191601606001919050565b808201828112600083128015821682158216171561321657613216612fad565b505092915050565b634e487b7160e01b600052603160045260246000fdfec1f6fe24621ce81ec5827caf0253cadb74709b061630e6b55e8237170593200002dd7bc7dec4dceedda775e58dd541e08a116c6c53815c0bd028192f7b626800a2646970667358221220f3bab37f9f3232a1a0b21900fb8f05b935ac308c6bfc16c9f9e4d87518b0c51564736f6c634300081a0033","linkReferences":{}},"methodIdentifiers":{"DEFAULT_ADMIN_ROLE()":"a217fddf","add(uint256,address)":"2b8bbbe8","deposit(uint256,uint256,address)":"8dbdbe6d","emergencyWithdraw(uint256,address)":"2f940c70","getRoleAdmin(bytes32)":"248a9ca3","getRoleMember(bytes32,uint256)":"9010d07c","getRoleMemberCount(bytes32)":"ca15c873","getRoleMembers(bytes32)":"a3246ad3","grantRole(bytes32,address)":"2f2ff15d","harvest(uint256,address)":"18fccc76","hasRole(bytes32,address)":"91d14854","initilize(address)":"20281145","massUpdatePools(uint256[])":"57a5b58c","owner()":"8da5cb5b","pendingSushi(uint256,address)":"195426ec","renounceOwnership()":"715018a6","renounceRole(bytes32,address)":"36568abe","revokeRole(bytes32,address)":"d547741f","set(uint256,uint256)":"1ab06ee5","setRewardToken(address)":"8aee8127","supportsInterface(bytes4)":"01ffc9a7","transferOwnership(address)":"f2fde38b","updatePool(uint256)":"51eb05a6","withdraw(uint256,uint256,address)":"0ad58d2f","withdrawAndHarvest(uint256,uint256,address)":"d1abb907"},"id":2}