{"abi":[{"type":"constructor","inputs":[{"name":"name","type":"string","internalType":"string"},{"name":"symbol","type":"string","internalType":"string"},{"name":"_feePercentage","type":"uint256","internalType":"uint256"}],"stateMutability":"nonpayable"},{"type":"function","name":"allowance","inputs":[{"name":"owner","type":"address","internalType":"address"},{"name":"spender","type":"address","internalType":"address"}],"outputs":[{"name":"","type":"uint256","internalType":"uint256"}],"stateMutability":"view"},{"type":"function","name":"approve","inputs":[{"name":"spender","type":"address","internalType":"address"},{"name":"value","type":"uint256","internalType":"uint256"}],"outputs":[{"name":"","type":"bool","internalType":"bool"}],"stateMutability":"nonpayable"},{"type":"function","name":"balanceOf","inputs":[{"name":"account","type":"address","internalType":"address"}],"outputs":[{"name":"","type":"uint256","internalType":"uint256"}],"stateMutability":"view"},{"type":"function","name":"decimals","inputs":[],"outputs":[{"name":"","type":"uint8","internalType":"uint8"}],"stateMutability":"view"},{"type":"function","name":"feePercentage","inputs":[],"outputs":[{"name":"","type":"uint256","internalType":"uint256"}],"stateMutability":"view"},{"type":"function","name":"name","inputs":[],"outputs":[{"name":"","type":"string","internalType":"string"}],"stateMutability":"view"},{"type":"function","name":"symbol","inputs":[],"outputs":[{"name":"","type":"string","internalType":"string"}],"stateMutability":"view"},{"type":"function","name":"totalSupply","inputs":[],"outputs":[{"name":"","type":"uint256","internalType":"uint256"}],"stateMutability":"view"},{"type":"function","name":"transfer","inputs":[{"name":"to","type":"address","internalType":"address"},{"name":"value","type":"uint256","internalType":"uint256"}],"outputs":[{"name":"","type":"bool","internalType":"bool"}],"stateMutability":"nonpayable"},{"type":"function","name":"transfer","inputs":[{"name":"sender","type":"address","internalType":"address"},{"name":"recipient","type":"address","internalType":"address"},{"name":"amount","type":"uint256","internalType":"uint256"}],"outputs":[],"stateMutability":"nonpayable"},{"type":"function","name":"transferFrom","inputs":[{"name":"from","type":"address","internalType":"address"},{"name":"to","type":"address","internalType":"address"},{"name":"value","type":"uint256","internalType":"uint256"}],"outputs":[{"name":"","type":"bool","internalType":"bool"}],"stateMutability":"nonpayable"},{"type":"event","name":"Approval","inputs":[{"name":"owner","type":"address","indexed":true,"internalType":"address"},{"name":"spender","type":"address","indexed":true,"internalType":"address"},{"name":"value","type":"uint256","indexed":false,"internalType":"uint256"}],"anonymous":false},{"type":"event","name":"Transfer","inputs":[{"name":"from","type":"address","indexed":true,"internalType":"address"},{"name":"to","type":"address","indexed":true,"internalType":"address"},{"name":"value","type":"uint256","indexed":false,"internalType":"uint256"}],"anonymous":false},{"type":"error","name":"ERC20InsufficientAllowance","inputs":[{"name":"spender","type":"address","internalType":"address"},{"name":"allowance","type":"uint256","internalType":"uint256"},{"name":"needed","type":"uint256","internalType":"uint256"}]},{"type":"error","name":"ERC20InsufficientBalance","inputs":[{"name":"sender","type":"address","internalType":"address"},{"name":"balance","type":"uint256","internalType":"uint256"},{"name":"needed","type":"uint256","internalType":"uint256"}]},{"type":"error","name":"ERC20InvalidApprover","inputs":[{"name":"approver","type":"address","internalType":"address"}]},{"type":"error","name":"ERC20InvalidReceiver","inputs":[{"name":"receiver","type":"address","internalType":"address"}]},{"type":"error","name":"ERC20InvalidSender","inputs":[{"name":"sender","type":"address","internalType":"address"}]},{"type":"error","name":"ERC20InvalidSpender","inputs":[{"name":"spender","type":"address","internalType":"address"}]}],"bytecode":{"object":"0x608060405234801561001057600080fd5b50604051610d9d380380610d9d83398101604081905261002f9161029e565b8282600361003d8382610399565b50600461004a8282610399565b5050506005819055610074336100626012600a610556565b61006f90620f424061056c565b61007c565b505050610596565b6001600160a01b0382166100ab5760405163ec442f0560e01b8152600060048201526024015b60405180910390fd5b6100b7600083836100bb565b5050565b6001600160a01b0383166100e65780600260008282546100db9190610583565b909155506101589050565b6001600160a01b038316600090815260208190526040902054818110156101395760405163391434e360e21b81526001600160a01b038516600482015260248101829052604481018390526064016100a2565b6001600160a01b03841660009081526020819052604090209082900390555b6001600160a01b03821661017457600280548290039055610193565b6001600160a01b03821660009081526020819052604090208054820190555b816001600160a01b0316836001600160a01b03167fddf252ad1be2c89b69c2b068fc378daa952ba7f163c4a11628f55a4df523b3ef836040516101d891815260200190565b60405180910390a3505050565b634e487b7160e01b600052604160045260246000fd5b600082601f83011261020c57600080fd5b81516001600160401b03811115610225576102256101e5565b604051601f8201601f19908116603f011681016001600160401b0381118282101715610253576102536101e5565b60405281815283820160200185101561026b57600080fd5b60005b8281101561028a5760208186018101518383018201520161026e565b506000918101602001919091529392505050565b6000806000606084860312156102b357600080fd5b83516001600160401b038111156102c957600080fd5b6102d5868287016101fb565b602086015190945090506001600160401b038111156102f357600080fd5b6102ff868287016101fb565b925050604084015190509250925092565b600181811c9082168061032457607f821691505b60208210810361034457634e487b7160e01b600052602260045260246000fd5b50919050565b601f82111561039457806000526020600020601f840160051c810160208510156103715750805b601f840160051c820191505b81811015610391576000815560010161037d565b50505b505050565b81516001600160401b038111156103b2576103b26101e5565b6103c6816103c08454610310565b8461034a565b6020601f8211600181146103fa57600083156103e25750848201515b600019600385901b1c1916600184901b178455610391565b600084815260208120601f198516915b8281101561042a578785015182556020948501946001909201910161040a565b50848210156104485786840151600019600387901b60f8161c191681555b50505050600190811b01905550565b634e487b7160e01b600052601160045260246000fd5b6001815b60018411156104a85780850481111561048c5761048c610457565b600184161561049a57908102905b60019390931c928002610471565b935093915050565b6000826104bf57506001610550565b816104cc57506000610550565b81600181146104e257600281146104ec57610508565b6001915050610550565b60ff8411156104fd576104fd610457565b50506001821b610550565b5060208310610133831016604e8410600b841016171561052b575081810a610550565b610538600019848461046d565b806000190482111561054c5761054c610457565b0290505b92915050565b600061056560ff8416836104b0565b9392505050565b808202811582820484141761055057610550610457565b8082018082111561055057610550610457565b6107f8806105a56000396000f3fe608060405234801561001057600080fd5b50600436106100a95760003560e01c806370a082311161007157806370a082311461012357806395d89b411461014c578063a001ecdd14610154578063a9059cbb1461015d578063beabacc814610170578063dd62ed3e1461018557600080fd5b806306fdde03146100ae578063095ea7b3146100cc57806318160ddd146100ef57806323b872dd14610101578063313ce56714610114575b600080fd5b6100b66101be565b6040516100c391906105ed565b60405180910390f35b6100df6100da366004610657565b610250565b60405190151581526020016100c3565b6002545b6040519081526020016100c3565b6100df61010f366004610681565b61026a565b604051601281526020016100c3565b6100f36101313660046106be565b6001600160a01b031660009081526020819052604090205490565b6100b661028e565b6100f360055481565b6100df61016b366004610657565b61029d565b61018361017e366004610681565b6102ab565b005b6100f36101933660046106e0565b6001600160a01b03918216600090815260016020908152604080832093909416825291909152205490565b6060600380546101cd90610713565b80601f01602080910402602001604051908101604052809291908181526020018280546101f990610713565b80156102465780601f1061021b57610100808354040283529160200191610246565b820191906000526020600020905b81548152906001019060200180831161022957829003601f168201915b5050505050905090565b60003361025e8185856102fa565b60019150505b92915050565b60003361027885828561030c565b61028385858561038f565b506001949350505050565b6060600480546101cd90610713565b60003361025e81858561038f565b60006064600554836102bd9190610763565b6102c7919061077a565b905060006102d5828461079c565b90506102e285858361038f565b81156102f3576102f385308461038f565b5050505050565b61030783838360016103ee565b505050565b6001600160a01b038381166000908152600160209081526040808320938616835292905220546000198114610389578181101561037a57604051637dc7a0d960e11b81526001600160a01b038416600482015260248101829052604481018390526064015b60405180910390fd5b610389848484840360006103ee565b50505050565b6001600160a01b0383166103b957604051634b637e8f60e11b815260006004820152602401610371565b6001600160a01b0382166103e35760405163ec442f0560e01b815260006004820152602401610371565b6103078383836104c3565b6001600160a01b0384166104185760405163e602df0560e01b815260006004820152602401610371565b6001600160a01b03831661044257604051634a1406b160e11b815260006004820152602401610371565b6001600160a01b038085166000908152600160209081526040808320938716835292905220829055801561038957826001600160a01b0316846001600160a01b03167f8c5be1e5ebec7d5bd14f71427d1e84f3dd0314c0f7b2291e5b200ac8c7c3b925846040516104b591815260200190565b60405180910390a350505050565b6001600160a01b0383166104ee5780600260008282546104e391906107af565b909155506105609050565b6001600160a01b038316600090815260208190526040902054818110156105415760405163391434e360e21b81526001600160a01b03851660048201526024810182905260448101839052606401610371565b6001600160a01b03841660009081526020819052604090209082900390555b6001600160a01b03821661057c5760028054829003905561059b565b6001600160a01b03821660009081526020819052604090208054820190555b816001600160a01b0316836001600160a01b03167fddf252ad1be2c89b69c2b068fc378daa952ba7f163c4a11628f55a4df523b3ef836040516105e091815260200190565b60405180910390a3505050565b602081526000825180602084015260005b8181101561061b57602081860181015160408684010152016105fe565b506000604082850101526040601f19601f83011684010191505092915050565b80356001600160a01b038116811461065257600080fd5b919050565b6000806040838503121561066a57600080fd5b6106738361063b565b946020939093013593505050565b60008060006060848603121561069657600080fd5b61069f8461063b565b92506106ad6020850161063b565b929592945050506040919091013590565b6000602082840312156106d057600080fd5b6106d98261063b565b9392505050565b600080604083850312156106f357600080fd5b6106fc8361063b565b915061070a6020840161063b565b90509250929050565b600181811c9082168061072757607f821691505b60208210810361074757634e487b7160e01b600052602260045260246000fd5b50919050565b634e487b7160e01b600052601160045260246000fd5b80820281158282048414176102645761026461074d565b60008261079757634e487b7160e01b600052601260045260246000fd5b500490565b818103818111156102645761026461074d565b808201808211156102645761026461074d56fea26469706673582212208d192010a867b98da7e227f108f30deed1f0de555a1626e93174c2bc655a00c664736f6c634300081a0033","linkReferences":{}},"methodIdentifiers":{"allowance(address,address)":"dd62ed3e","approve(address,uint256)":"095ea7b3","balanceOf(address)":"70a08231","decimals()":"313ce567","feePercentage()":"a001ecdd","name()":"06fdde03","symbol()":"95d89b41","totalSupply()":"18160ddd","transfer(address,address,uint256)":"beabacc8","transfer(address,uint256)":"a9059cbb","transferFrom(address,address,uint256)":"23b872dd"},"id":17}