{"abi":[{"type":"constructor","inputs":[],"stateMutability":"nonpayable"},{"type":"function","name":"ACC_SUSHI_PRECISION","inputs":[],"outputs":[{"name":"","type":"uint256","internalType":"uint256"}],"stateMutability":"view"},{"type":"function","name":"AdminRole","inputs":[],"outputs":[{"name":"","type":"bytes32","internalType":"bytes32"}],"stateMutability":"view"},{"type":"function","name":"SUSHI","inputs":[],"outputs":[{"name":"","type":"address","internalType":"address"}],"stateMutability":"view"},{"type":"function","name":"SUSHI_PER_BLOCK","inputs":[],"outputs":[{"name":"","type":"uint256","internalType":"uint256"}],"stateMutability":"view"},{"type":"function","name":"UpdateRole","inputs":[],"outputs":[{"name":"","type":"bytes32","internalType":"bytes32"}],"stateMutability":"view"},{"type":"function","name":"getAddress","inputs":[{"name":"key","type":"bytes32","internalType":"bytes32"}],"outputs":[{"name":"","type":"address","internalType":"address"}],"stateMutability":"view"},{"type":"function","name":"getBool","inputs":[{"name":"key","type":"bytes32","internalType":"bytes32"}],"outputs":[{"name":"","type":"bool","internalType":"bool"}],"stateMutability":"view"},{"type":"function","name":"getBytes32","inputs":[{"name":"key","type":"bytes32","internalType":"bytes32"}],"outputs":[{"name":"","type":"bytes32","internalType":"bytes32"}],"stateMutability":"view"},{"type":"function","name":"getLpTokenElement","inputs":[{"name":"index","type":"uint256","internalType":"uint256"}],"outputs":[{"name":"","type":"address","internalType":"address"}],"stateMutability":"view"},{"type":"function","name":"getLpTokenLength","inputs":[],"outputs":[{"name":"","type":"uint256","internalType":"uint256"}],"stateMutability":"view"},{"type":"function","name":"getPoolInfoElement","inputs":[{"name":"_pid","type":"uint256","internalType":"uint256"}],"outputs":[{"name":"pool","type":"tuple","internalType":"struct MasterChefStorage.PoolInfo","components":[{"name":"accSushiPerShare","type":"uint128","internalType":"uint128"},{"name":"lastRewardBlock","type":"uint64","internalType":"uint64"},{"name":"allocPoint","type":"uint64","internalType":"uint64"}]}],"stateMutability":"view"},{"type":"function","name":"getPoolInfoLength","inputs":[],"outputs":[{"name":"","type":"uint256","internalType":"uint256"}],"stateMutability":"view"},{"type":"function","name":"getSushi","inputs":[],"outputs":[{"name":"","type":"address","internalType":"address"}],"stateMutability":"view"},{"type":"function","name":"getTotalAllocPoint","inputs":[],"outputs":[{"name":"","type":"uint256","internalType":"uint256"}],"stateMutability":"view"},{"type":"function","name":"getUint","inputs":[{"name":"key","type":"bytes32","internalType":"bytes32"}],"outputs":[{"name":"","type":"uint256","internalType":"uint256"}],"stateMutability":"view"},{"type":"function","name":"getUserInfoElement","inputs":[{"name":"_pid","type":"uint256","internalType":"uint256"},{"name":"_user","type":"address","internalType":"address"}],"outputs":[{"name":"userInfo","type":"tuple","internalType":"struct MasterChefStorage.UserInfo","components":[{"name":"amount","type":"uint256","internalType":"uint256"},{"name":"rewardDebt","type":"int256","internalType":"int256"}]}],"stateMutability":"view"},{"type":"function","name":"lpToken","inputs":[{"name":"","type":"uint256","internalType":"uint256"}],"outputs":[{"name":"","type":"address","internalType":"address"}],"stateMutability":"view"},{"type":"function","name":"owner","inputs":[],"outputs":[{"name":"","type":"address","internalType":"address"}],"stateMutability":"view"},{"type":"function","name":"poolInfo","inputs":[{"name":"","type":"uint256","internalType":"uint256"}],"outputs":[{"name":"accSushiPerShare","type":"uint128","internalType":"uint128"},{"name":"lastRewardBlock","type":"uint64","internalType":"uint64"},{"name":"allocPoint","type":"uint64","internalType":"uint64"}],"stateMutability":"view"},{"type":"function","name":"pushLpToken","inputs":[{"name":"_lpToken","type":"address","internalType":"address"}],"outputs":[],"stateMutability":"nonpayable"},{"type":"function","name":"pushPoolInfo","inputs":[{"name":"_accSushiPerShare","type":"uint128","internalType":"uint128"},{"name":"_lastRewardBlock","type":"uint64","internalType":"uint64"},{"name":"_allocPoint","type":"uint64","internalType":"uint64"}],"outputs":[],"stateMutability":"nonpayable"},{"type":"function","name":"setAddress","inputs":[{"name":"key","type":"bytes32","internalType":"bytes32"},{"name":"value","type":"address","internalType":"address"}],"outputs":[],"stateMutability":"nonpayable"},{"type":"function","name":"setBool","inputs":[{"name":"key","type":"bytes32","internalType":"bytes32"},{"name":"value","type":"bool","internalType":"bool"}],"outputs":[],"stateMutability":"nonpayable"},{"type":"function","name":"setBytes32","inputs":[{"name":"key","type":"bytes32","internalType":"bytes32"},{"name":"value","type":"bytes32","internalType":"bytes32"}],"outputs":[],"stateMutability":"nonpayable"},{"type":"function","name":"setLpTokenElement","inputs":[{"name":"index","type":"uint256","internalType":"uint256"},{"name":"_lpToken","type":"address","internalType":"address"}],"outputs":[],"stateMutability":"nonpayable"},{"type":"function","name":"setLpTokenLength","inputs":[{"name":"_length","type":"uint256","internalType":"uint256"}],"outputs":[],"stateMutability":"nonpayable"},{"type":"function","name":"setPoolInfoElement","inputs":[{"name":"_pid","type":"uint256","internalType":"uint256"},{"name":"_accSushiPerShare","type":"uint128","internalType":"uint128"},{"name":"_lastRewardBlock","type":"uint64","internalType":"uint64"},{"name":"_allocPoint","type":"uint64","internalType":"uint64"}],"outputs":[],"stateMutability":"nonpayable"},{"type":"function","name":"setPoolInfoLength","inputs":[{"name":"_length","type":"uint256","internalType":"uint256"}],"outputs":[],"stateMutability":"nonpayable"},{"type":"function","name":"setSushi","inputs":[{"name":"_sushi","type":"address","internalType":"address"}],"outputs":[],"stateMutability":"nonpayable"},{"type":"function","name":"setTotalAllocPoint","inputs":[{"name":"_totalAllocPoint","type":"uint256","internalType":"uint256"}],"outputs":[],"stateMutability":"nonpayable"},{"type":"function","name":"setUint","inputs":[{"name":"key","type":"bytes32","internalType":"bytes32"},{"name":"value","type":"uint256","internalType":"uint256"}],"outputs":[],"stateMutability":"nonpayable"},{"type":"function","name":"setUserInfoElement","inputs":[{"name":"_pid","type":"uint256","internalType":"uint256"},{"name":"_user","type":"address","internalType":"address"},{"name":"_amount","type":"uint256","internalType":"uint256"},{"name":"_rewardDebt","type":"int256","internalType":"int256"}],"outputs":[],"stateMutability":"nonpayable"},{"type":"function","name":"totalAllocPoint","inputs":[],"outputs":[{"name":"","type":"uint256","internalType":"uint256"}],"stateMutability":"view"},{"type":"function","name":"transferOwnership","inputs":[{"name":"_owner","type":"address","internalType":"address"}],"outputs":[],"stateMutability":"nonpayable"},{"type":"function","name":"userInfo","inputs":[{"name":"","type":"uint256","internalType":"uint256"},{"name":"","type":"address","internalType":"address"}],"outputs":[{"name":"amount","type":"uint256","internalType":"uint256"},{"name":"rewardDebt","type":"int256","internalType":"int256"}],"stateMutability":"view"}],"bytecode":{"object":"0x6080604052348015600f57600080fd5b50600480546001600160a01b0319163317905561120a806100316000396000f3fe608060405234801561001057600080fd5b50600436106102115760003560e01c80638910e1ed11610125578063bd02d0f5116100ad578063e130c54c1161007c578063e130c54c1461062d578063e2a4853a14610686578063efbdb6d6146106a6578063f2ecd1ae146106e4578063f2fde38b146106f757600080fd5b8063bd02d0f514610597578063ca446dd9146105b7578063ca8e6c03146105ca578063def448ca146105dd57600080fd5b8063954d671b116100f4578063954d671b146104fc578063a6ed563e1461050f578063a86527fe1461052f578063ab560e1014610556578063abfdcced1461056957600080fd5b80638910e1ed1461044d5780638da5cb5b14610474578063918d572e1461048757806393f1a40b146104b557600080fd5b806355d44a5d116101a857806378ed5d1f1161017757806378ed5d1f146103d15780637ae1cfca146103e457806385dc692014610417578063878db0611461042a57806387c361a51461043d57600080fd5b806355d44a5d1461035a578063593783941461036d57806373b001d91461038057806375fdcc31146103be57600080fd5b806321f8a721116101e457806321f8a7211461029657806324bc181b146102d75780633a58b91a146102ea5780634e91db081461033a57600080fd5b806301b56d1014610216578063146539ca1461022b5780631526fe271461024a57806317caf6f11461028d575b600080fd5b610229610224366004610e64565b61070a565b005b61023764e8d4a5100081565b6040519081526020015b60405180910390f35b61025d610258366004610e9f565b6107c1565b604080516001600160801b03909416845267ffffffffffffffff9283166020850152911690820152606001610241565b61023760095481565b6102bf6102a4366004610e9f565b6000908152600160205260409020546001600160a01b031690565b6040516001600160a01b039091168152602001610241565b6102296102e5366004610e9f565b610807565b7faf3e60e386ca70d4a3588cb5847488a8b35880045a6814406dba4bff4d96aa7b60009081526020527fbbbc4643b4f99c086bec79e060f553324b944aac0cef2cc3a29a694eab1a87f854610237565b610229610348366004610eb8565b60009182526003602052604090912055565b610229610368366004610e9f565b61086f565b61022961037b366004610eda565b6108d4565b6000805160206111b583398151915260009081526020527fdca5c296e8b271bae0ecba245eb441bc680762c720fdc9137b1587a42bb8768a54610237565b6102296103cc366004610f06565b61093f565b6102bf6103df366004610e9f565b6109c9565b6104076103f2366004610e9f565b60009081526002602052604090205460ff1690565b6040519015158152602001610241565b610229610425366004610f57565b6109f3565b6102bf610438366004610e9f565b610a7f565b61023768056bc75e2d6310000081565b6102377f92fca2a051a1d56e4386f5a3c5a80faf206d9ce7724a6a05dadc11b8db569de081565b6004546102bf906001600160a01b031681565b61049a610495366004610eda565b610ada565b60408051825181526020928301519281019290925201610241565b6104e76104c3366004610eda565b60086020908152600092835260408084209091529082529020805460019091015482565b60408051928352602083019190915201610241565b61022961050a366004610f9a565b610b7a565b61023761051d366004610e9f565b60009081526003602052604090205490565b6102377fd4e3e506ca1d83d61cce51f23629bed4554bc706a090148511170d317cdcb69c81565b6005546102bf906001600160a01b031681565b610229610577366004610fe7565b600091825260026020526040909120805460ff1916911515919091179055565b6102376105a5366004610e9f565b60009081526020819052604090205490565b6102296105c5366004610eda565b610c78565b6102296105d8366004610e9f565b610ca6565b6105f06105eb366004610e9f565b610d1d565b6040805182516001600160801b0316815260208084015167ffffffffffffffff908116918301919091529282015190921690820152606001610241565b7fcb2d20206d906069351c89a2cb7cdbd96c71998717cd5a82e724d955b654f67a60005260016020527fa4d7b655d215d9228b4a94511e244711a00df0c69c1083f5fcbed39ffd55695e546001600160a01b03166102bf565b610229610694366004610eb8565b60009182526020829052604090912055565b60008051602061119583398151915260009081526020527fa52664d566232b853e7c1e89f1687c16004afcb47d76dd7d48edd369306f1fec54610237565b6102296106f2366004610f06565b610da8565b610229610705366004610f06565b610dfc565b6004546001600160a01b0316331461073d5760405162461bcd60e51b81526004016107349061101c565b60405180910390fd5b61077c8484604051602001610753929190611053565b604051602081830303815290604052805190602001208360009182526020829052604090912055565b6107bb8484604051602001610792929190611095565b604051602081830303815290604052805190602001208260009182526020829052604090912055565b50505050565b600681815481106107d157600080fd5b6000918252602090912001546001600160801b038116915067ffffffffffffffff600160801b8204811691600160c01b90041683565b6004546001600160a01b031633146108315760405162461bcd60e51b81526004016107349061101c565b6000805160206111b583398151915260009081526020527fdca5c296e8b271bae0ecba245eb441bc680762c720fdc9137b1587a42bb8768a55565b50565b6004546001600160a01b031633146108995760405162461bcd60e51b81526004016107349061101c565b60008051602061119583398151915260009081526020527fa52664d566232b853e7c1e89f1687c16004afcb47d76dd7d48edd369306f1fec55565b6004546001600160a01b031633146108fe5760405162461bcd60e51b81526004016107349061101c565b6040516636382a37b5b2b760c91b60208201526027810183905261093b906047016040516020818303038152906040528051906020012082610c78565b5050565b6004546001600160a01b031633146109695760405162461bcd60e51b81526004016107349061101c565b6000805160206111b583398151915260009081526020527fdca5c296e8b271bae0ecba245eb441bc680762c720fdc9137b1587a42bb8768a546109ac81836108d4565b61093b6000805160206111b58339815191526106948360016110db565b600781815481106109d957600080fd5b6000918252602090912001546001600160a01b0316905081565b6004546001600160a01b03163314610a1d5760405162461bcd60e51b81526004016107349061101c565b60008051602061119583398151915260009081526020527fa52664d566232b853e7c1e89f1687c16004afcb47d76dd7d48edd369306f1fec54610a6281858585610b7a565b6107bb6000805160206111958339815191526106948360016110db565b6040516636382a37b5b2b760c91b602082015260278101829052600090610ad490604701604051602081830303815290604052805190602001206000908152600160205260409020546001600160a01b031690565b92915050565b60408051808201909152600080825260208201526004546001600160a01b03163314610b185760405162461bcd60e51b81526004016107349061101c565b610b568383604051602001610b2e929190611053565b6040516020818303038152906040528051906020012060009081526020819052604090205490565b8152604051610b6f90610b2e9085908590602001611095565b602082015292915050565b6004546001600160a01b03163314610ba45760405162461bcd60e51b81526004016107349061101c565b610bea84604051602001610bb891906110fc565b60405160208183030381529060405280519060200120846001600160801b031660009182526020829052604090912055565b610c3184604051602001610bfe9190611131565b604051602081830303815290604052805190602001208367ffffffffffffffff1660009182526020829052604090912055565b6107bb84604051602001610c459190611165565b604051602081830303815290604052805190602001208267ffffffffffffffff1660009182526020829052604090912055565b60009182526001602052604090912080546001600160a01b0319166001600160a01b03909216919091179055565b6004546001600160a01b03163314610cd05760405162461bcd60e51b81526004016107349061101c565b7faf3e60e386ca70d4a3588cb5847488a8b35880045a6814406dba4bff4d96aa7b60009081526020527fbbbc4643b4f99c086bec79e060f553324b944aac0cef2cc3a29a694eab1a87f855565b6040805160608101825260008082526020820181905291810191909152610d4e82604051602001610b2e91906110fc565b6001600160801b03168152604051610d6e90610b2e908490602001611131565b67ffffffffffffffff16602080830191909152604051610d9491610b2e91859101611165565b67ffffffffffffffff166040820152919050565b6004546001600160a01b03163314610dd25760405162461bcd60e51b81526004016107349061101c565b61086c7fcb2d20206d906069351c89a2cb7cdbd96c71998717cd5a82e724d955b654f67a82610c78565b6004546001600160a01b03163314610e265760405162461bcd60e51b81526004016107349061101c565b600480546001600160a01b0319166001600160a01b0392909216919091179055565b80356001600160a01b0381168114610e5f57600080fd5b919050565b60008060008060808587031215610e7a57600080fd5b84359350610e8a60208601610e48565b93969395505050506040820135916060013590565b600060208284031215610eb157600080fd5b5035919050565b60008060408385031215610ecb57600080fd5b50508035926020909101359150565b60008060408385031215610eed57600080fd5b82359150610efd60208401610e48565b90509250929050565b600060208284031215610f1857600080fd5b610f2182610e48565b9392505050565b80356001600160801b0381168114610e5f57600080fd5b803567ffffffffffffffff81168114610e5f57600080fd5b600080600060608486031215610f6c57600080fd5b610f7584610f28565b9250610f8360208501610f3f565b9150610f9160408501610f3f565b90509250925092565b60008060008060808587031215610fb057600080fd5b84359350610fc060208601610f28565b9250610fce60408601610f3f565b9150610fdc60608601610f3f565b905092959194509250565b60008060408385031215610ffa57600080fd5b823591506020830135801515811461101157600080fd5b809150509250929050565b6020808252601c908201527f4d61737465724368656653746f726167653a20464f5242494444454e00000000604082015260600190565b6775736572496e666f60c01b8152600881019290925260601b6bffffffffffffffffffffffff1916602882015265185b5bdd5b9d60d21b603c82015260420190565b6775736572496e666f60c01b8152600881019290925260601b6bffffffffffffffffffffffff19166028820152691c995dd85c991119589d60b21b603c82015260460190565b80820180821115610ad457634e487b7160e01b600052601160045260246000fd5b67706f6f6c496e666f60c01b815260088101919091526f6163635375736869506572536861726560801b602882015260380190565b67706f6f6c496e666f60c01b815260088101919091526e6c617374526577617264426c6f636b60881b602882015260370190565b67706f6f6c496e666f60c01b8152600881019190915269185b1b1bd8d41bda5b9d60b21b60288201526032019056febdfb30c4078a05e37a77a07dd25e60cd82233c55ae8fe36a998c08eb7f50084dd1b0e4a87150f6479a5eaf3d877717fdcc12bf6b2b6356cfedc525f5a95f7dbfa2646970667358221220b136d2c8ef3fad6b80a723ff9961c435d2854589aebfecb0706a3b627df6c1e664736f6c634300081a0033","linkReferences":{}},"methodIdentifiers":{"ACC_SUSHI_PRECISION()":"146539ca","AdminRole()":"8910e1ed","SUSHI()":"ab560e10","SUSHI_PER_BLOCK()":"87c361a5","UpdateRole()":"a86527fe","getAddress(bytes32)":"21f8a721","getBool(bytes32)":"7ae1cfca","getBytes32(bytes32)":"a6ed563e","getLpTokenElement(uint256)":"878db061","getLpTokenLength()":"73b001d9","getPoolInfoElement(uint256)":"def448ca","getPoolInfoLength()":"efbdb6d6","getSushi()":"e130c54c","getTotalAllocPoint()":"3a58b91a","getUint(bytes32)":"bd02d0f5","getUserInfoElement(uint256,address)":"918d572e","lpToken(uint256)":"78ed5d1f","owner()":"8da5cb5b","poolInfo(uint256)":"1526fe27","pushLpToken(address)":"75fdcc31","pushPoolInfo(uint128,uint64,uint64)":"85dc6920","setAddress(bytes32,address)":"ca446dd9","setBool(bytes32,bool)":"abfdcced","setBytes32(bytes32,bytes32)":"4e91db08","setLpTokenElement(uint256,address)":"59378394","setLpTokenLength(uint256)":"24bc181b","setPoolInfoElement(uint256,uint128,uint64,uint64)":"954d671b","setPoolInfoLength(uint256)":"55d44a5d","setSushi(address)":"f2ecd1ae","setTotalAllocPoint(uint256)":"ca8e6c03","setUint(bytes32,uint256)":"e2a4853a","setUserInfoElement(uint256,address,uint256,int256)":"01b56d10","totalAllocPoint()":"17caf6f1","transferOwnership(address)":"f2fde38b","userInfo(uint256,address)":"93f1a40b"},"id":2}